{
  "transactions": [
    {
      "hash": "0x83961f98853cc7033bb95e26c38d611e040f984cc45a7cca3d41b9b37e3e42a3",
      "transactionType": "CALL",
      "contractName": null,
      "contractAddress": "0x5ce8d5a2bc84beb22a398cca51996f7930313d61",
      "function": "cancelSubscription(uint256,address)",
      "arguments": [
        "57396828998005806751714008700158677680669815368320214952044276705372934835402",
        "0x94cF685cc5D26828e2CA4c9C571249Fc9B1D16Be"
      ],
      "transaction": {
        "from": "0x94cf685cc5d26828e2ca4c9c571249fc9b1d16be",
        "to": "0x5ce8d5a2bc84beb22a398cca51996f7930313d61",
        "gas": "0x15d66",
        "value": "0x0",
        "input": "0x0ae095407ee574377e5aca203885c81aceedd061f2662767f5d79c45097a41ef53690cca00000000000000000000000094cf685cc5d26828e2ca4c9c571249fc9b1d16be",
        "nonce": "0xc1",
        "chainId": "0x66eee"
      },
      "additionalContracts": [],
      "isFixedGasLimit": false
    }
  ],
  "receipts": [
    {
      "status": "0x1",
      "cumulativeGasUsed": "0xd656",
      "logs": [
        {
          "address": "0x5ce8d5a2bc84beb22a398cca51996f7930313d61",
          "topics": [
            "0x8c74ce8b8cf87f5eb001275c8be27eb34ea2b62bfab6814fcc62192bb63e81c4",
            "0x7ee574377e5aca203885c81aceedd061f2662767f5d79c45097a41ef53690cca"
          ],
          "data": "0x00000000000000000000000094cf685cc5d26828e2ca4c9c571249fc9b1d16be00000000000000000000000000000000000000000000000000000000000000000000000000000000000000000000000000000000000000000000000000000000",
          "blockHash": "0x82b448fe9401dbbcbfd512b23e4c67095be9ebb402d9f0ad578c6ae4c41d78d2",
          "blockNumber": "0xb274690",
          "transactionHash": "0x83961f98853cc7033bb95e26c38d611e040f984cc45a7cca3d41b9b37e3e42a3",
          "transactionIndex": "0x1",
          "logIndex": "0x0",
          "removed": false
        }
      ],
      "logsBloom": "0x00000000000000000000000000000000000000000000000100020000000020000000000000000000000000000000000000000001000000000000000000000000000002000000000000000000000000000000000000000000000000000000080000000000008000000000000000000000000000000000000000000000000000000000000000000000000000000000000000000100000000000000000000000000000000000000000000010000000000000000000000000000000000000000000000000000000000000000000000000000000000000000000000000000000000000000000000000000000000000000000000000000000000000000000000000000",
      "type": "0x2",
      "transactionHash": "0x83961f98853cc7033bb95e26c38d611e040f984cc45a7cca3d41b9b37e3e42a3",
      "transactionIndex": "0x1",
      "blockHash": "0x82b448fe9401dbbcbfd512b23e4c67095be9ebb402d9f0ad578c6ae4c41d78d2",
      "blockNumber": "0xb274690",
      "gasUsed": "0xd656",
      "effectiveGasPrice": "0x5f5e100",
      "from": "0x94cf685cc5d26828e2ca4c9c571249fc9b1d16be",
      "to": "0x5ce8d5a2bc84beb22a398cca51996f7930313d61",
      "contractAddress": null,
      "gasUsedForL1": "0xf2",
      "l1BlockNumber": "0x8a1f8a",
      "timeboosted": false
    }
  ],
  "libraries": [],
  "pending": [],
  "returns": {},
  "timestamp": 1756019307,
  "chain": 421614,
  "commit": "7849496"
}