{
  "transactions": [
    {
      "hash": "0x5eac6a0a7b7fcd2ca97e19337835f3a860abc21d395020d1575c83d61671255f",
      "transactionType": "CALL",
      "contractName": null,
      "contractAddress": "0x50d47e4142598e3411aa864e08a44284e471ac6f",
      "function": "addConsumer(uint64,address)",
      "arguments": [
        "450",
        "0xA202068950d1CE1FdC54a5f74a4242E6aBE8acda"
      ],
      "transaction": {
        "from": "0x94cf685cc5d26828e2ca4c9c571249fc9b1d16be",
        "to": "0x50d47e4142598e3411aa864e08a44284e471ac6f",
        "gas": "0x190a7",
        "value": "0x0",
        "input": "0x7341c10c00000000000000000000000000000000000000000000000000000000000001c2000000000000000000000000a202068950d1ce1fdc54a5f74a4242e6abe8acda",
        "nonce": "0x7f",
        "chainId": "0x66eee"
      },
      "additionalContracts": [],
      "isFixedGasLimit": false
    }
  ],
  "receipts": [
    {
      "status": "0x1",
      "cumulativeGasUsed": "0x6360b",
      "logs": [
        {
          "address": "0x50d47e4142598e3411aa864e08a44284e471ac6f",
          "topics": [
            "0x43dc749a04ac8fb825cbd514f7c0e13f13bc6f2ee66043b76629d51776cff8e0",
            "0x00000000000000000000000000000000000000000000000000000000000001c2"
          ],
          "data": "0x000000000000000000000000a202068950d1ce1fdc54a5f74a4242e6abe8acda",
          "blockHash": "0x377ebf428ce3211fa65ad083b7a855b22d1e15a5c47d0e53510d02d7eed2f535",
          "blockNumber": "0xb268d2c",
          "transactionHash": "0x5eac6a0a7b7fcd2ca97e19337835f3a860abc21d395020d1575c83d61671255f",
          "transactionIndex": "0x2",
          "logIndex": "0x4",
          "removed": false
        }
      ],
      "logsBloom": "0x00000000000000000002000000000000000000000000000000000000000000000000000000000000000000000000000000000000000000000400000000000000000000000000000000000000000000000000000000000000000000000000000000000000000080000000002000000000000000000000000000000000000000008000000000000100000000000000000000000000000000000000000000000000000000000000000000000080000000000000000000000000000000000000000000000000000000000000000000000000000000000000000000020000000000000000000000000000000000000000000000000000000000000040000000000000",
      "type": "0x2",
      "transactionHash": "0x5eac6a0a7b7fcd2ca97e19337835f3a860abc21d395020d1575c83d61671255f",
      "transactionIndex": "0x2",
      "blockHash": "0x377ebf428ce3211fa65ad083b7a855b22d1e15a5c47d0e53510d02d7eed2f535",
      "blockNumber": "0xb268d2c",
      "gasUsed": "0x130ac",
      "effectiveGasPrice": "0x5f5e100",
      "from": "0x94cf685cc5d26828e2ca4c9c571249fc9b1d16be",
      "to": "0x50d47e4142598e3411aa864e08a44284e471ac6f",
      "contractAddress": null,
      "gasUsedForL1": "0x2a",
      "l1BlockNumber": "0x8a1bc7",
      "timeboosted": false
    }
  ],
  "libraries": [],
  "pending": [],
  "returns": {},
  "timestamp": 1756006953,
  "chain": 421614,
  "commit": "3792cd9"
}