{
  "transactions": [
    {
      "hash": "0xcd21c803e8afe4c963ec66cb4d9981417d54624a822411f48771e941d0285e11",
      "transactionType": "CALL",
      "contractName": null,
      "contractAddress": "0x50d47e4142598e3411aa864e08a44284e471ac6f",
      "function": "addConsumer(uint64,address)",
      "arguments": [
        "449",
        "0x66d745ed8CB04DB9b1F0CF4720d73D7FbC284509"
      ],
      "transaction": {
        "from": "0x94cf685cc5d26828e2ca4c9c571249fc9b1d16be",
        "to": "0x50d47e4142598e3411aa864e08a44284e471ac6f",
        "gas": "0x9f8b",
        "value": "0x0",
        "input": "0x7341c10c00000000000000000000000000000000000000000000000000000000000001c100000000000000000000000066d745ed8cb04db9b1f0cf4720d73d7fbc284509",
        "nonce": "0x7b",
        "chainId": "0x66eee"
      },
      "additionalContracts": [],
      "isFixedGasLimit": false
    }
  ],
  "receipts": [
    {
      "status": "0x1",
      "cumulativeGasUsed": "0x247ccd",
      "logs": [],
      "logsBloom": "0x00000000000000000000000000000000000000000000000000000000000000000000000000000000000000000000000000000000000000000000000000000000000000000000000000000000000000000000000000000000000000000000000000000000000000000000000000000000000000000000000000000000000000000000000000000000000000000000000000000000000000000000000000000000000000000000000000000000000000000000000000000000000000000000000000000000000000000000000000000000000000000000000000000000000000000000000000000000000000000000000000000000000000000000000000000000",
      "type": "0x2",
      "transactionHash": "0xcd21c803e8afe4c963ec66cb4d9981417d54624a822411f48771e941d0285e11",
      "transactionIndex": "0x7",
      "blockHash": "0x2de1a14dcd5d31a873e2fd54e5b9691fc2f9130e8775579118afedaeb14f4bc8",
      "blockNumber": "0xb26528a",
      "gasUsed": "0x7944",
      "effectiveGasPrice": "0x5f5e100",
      "from": "0x94cf685cc5d26828e2ca4c9c571249fc9b1d16be",
      "to": "0x50d47e4142598e3411aa864e08a44284e471ac6f",
      "contractAddress": null,
      "gasUsedForL1": "0x57",
      "l1BlockNumber": "0x8a1a8f",
      "timeboosted": false
    }
  ],
  "libraries": [],
  "pending": [],
  "returns": {},
  "timestamp": 1756002991,
  "chain": 421614,
  "commit": "1fb1818"
}