{
  "transactions": [
    {
      "hash": "0x13adfbe59432311d7757959f84b9aa6e09348a5dfe691d4e34489bb98020ef6a",
      "transactionType": "CALL",
      "contractName": null,
      "contractAddress": "0x5ce8d5a2bc84beb22a398cca51996f7930313d61",
      "function": "addConsumer(uint256,address)",
      "arguments": [
        "71454954300587139168864100044495375120155859731008673854560977115929423440553",
        "0x7Ced52a4c54F2a6269808BED1d4cC0096af52063"
      ],
      "transaction": {
        "from": "0x94cf685cc5d26828e2ca4c9c571249fc9b1d16be",
        "to": "0x5ce8d5a2bc84beb22a398cca51996f7930313d61",
        "gas": "0x19218",
        "value": "0x0",
        "input": "0xbec4c08c9dfa1227e36549d843fe79b29af769a6b25e89449dba361029fb9093db28eaa90000000000000000000000007ced52a4c54f2a6269808bed1d4cc0096af52063",
        "nonce": "0xaf",
        "chainId": "0x66eee"
      },
      "additionalContracts": [],
      "isFixedGasLimit": false
    }
  ],
  "receipts": [
    {
      "status": "0x1",
      "cumulativeGasUsed": "0x131a9",
      "logs": [
        {
          "address": "0x5ce8d5a2bc84beb22a398cca51996f7930313d61",
          "topics": [
            "0x1e980d04aa7648e205713e5e8ea3808672ac163d10936d36f91b2c88ac1575e1",
            "0x9dfa1227e36549d843fe79b29af769a6b25e89449dba361029fb9093db28eaa9"
          ],
          "data": "0x0000000000000000000000007ced52a4c54f2a6269808bed1d4cc0096af52063",
          "blockHash": "0x9ebd84025911c27c49e41d98d16dd0605ca00025b1533b8c70006f70d899aee2",
          "blockNumber": "0xb2731f1",
          "transactionHash": "0x13adfbe59432311d7757959f84b9aa6e09348a5dfe691d4e34489bb98020ef6a",
          "transactionIndex": "0x1",
          "logIndex": "0x0",
          "removed": false
        }
      ],
      "logsBloom": "0x00000000000000000000000000000080000000000000000000020000000000000000000000000000000000000000000000000001000000000000000000000000000002000000000000000000000000000000000000000001100000000000000000000000004000000000000000000000000000000000000000002000000000000000000000000000000000000000000000000000000000000000000000000000000000000000000000001000000000000000000000000000000000000000000000000000000000000000000000000000000000000000000000000000000000000000000000000000000000000000000000000000000000000000000000000000",
      "type": "0x2",
      "transactionHash": "0x13adfbe59432311d7757959f84b9aa6e09348a5dfe691d4e34489bb98020ef6a",
      "transactionIndex": "0x1",
      "blockHash": "0x9ebd84025911c27c49e41d98d16dd0605ca00025b1533b8c70006f70d899aee2",
      "blockNumber": "0xb2731f1",
      "gasUsed": "0x131a9",
      "effectiveGasPrice": "0x5f5e100",
      "from": "0x94cf685cc5d26828e2ca4c9c571249fc9b1d16be",
      "to": "0x5ce8d5a2bc84beb22a398cca51996f7930313d61",
      "contractAddress": null,
      "gasUsedForL1": "0xa3",
      "l1BlockNumber": "0x8a1f20",
      "timeboosted": false
    }
  ],
  "libraries": [],
  "pending": [],
  "returns": {},
  "timestamp": 1756017943,
  "chain": 421614,
  "commit": "201d026"
}