{
  "transactions": [
    {
      "hash": "0x20b31a28e981a1a99bb55f2aacaed99cb11d0b8aec568bfdcdb4378f6dfcd50f",
      "transactionType": "CALL",
      "contractName": null,
      "contractAddress": "0x5ce8d5a2bc84beb22a398cca51996f7930313d61",
      "function": "addConsumer(uint256,address)",
      "arguments": [
        "71454954300587139168864100044495375120155859731008673854560977115929423440553",
        "0xF6Da349794155fe1f610e4Ea5B1873Eab8011AD8"
      ],
      "transaction": {
        "from": "0x94cf685cc5d26828e2ca4c9c571249fc9b1d16be",
        "to": "0x5ce8d5a2bc84beb22a398cca51996f7930313d61",
        "gas": "0x191c5",
        "value": "0x0",
        "input": "0xbec4c08c9dfa1227e36549d843fe79b29af769a6b25e89449dba361029fb9093db28eaa9000000000000000000000000f6da349794155fe1f610e4ea5b1873eab8011ad8",
        "nonce": "0x107",
        "chainId": "0x66eee"
      },
      "additionalContracts": [],
      "isFixedGasLimit": false
    }
  ],
  "receipts": [
    {
      "status": "0x1",
      "cumulativeGasUsed": "0x2540a",
      "logs": [
        {
          "address": "0x5ce8d5a2bc84beb22a398cca51996f7930313d61",
          "topics": [
            "0x1e980d04aa7648e205713e5e8ea3808672ac163d10936d36f91b2c88ac1575e1",
            "0x9dfa1227e36549d843fe79b29af769a6b25e89449dba361029fb9093db28eaa9"
          ],
          "data": "0x000000000000000000000000f6da349794155fe1f610e4ea5b1873eab8011ad8",
          "blockHash": "0x700dfb19939b4d29d4a16bd3756ee2b8a99051df6b91c9d2cdfd450141c40640",
          "blockNumber": "0xb28be2b",
          "transactionHash": "0x20b31a28e981a1a99bb55f2aacaed99cb11d0b8aec568bfdcdb4378f6dfcd50f",
          "transactionIndex": "0x2",
          "logIndex": "0x1",
          "removed": false
        }
      ],
      "logsBloom": "0x00000000000000000000000000000080000000000000000000020000000000000000000000000000000000000000000000000001000000000000000000000000000002000000000000000000000000000000000000000001100000000000000000000000004000000000000000000000000000000000000000002000000000000000000000000000000000000000000000000000000000000000000000000000000000000000000000001000000000000000000000000000000000000000000000000000000000000000000000000000000000000000000000000000000000000000000000000000000000000000000000000000000000000000000000000000",
      "type": "0x2",
      "transactionHash": "0x20b31a28e981a1a99bb55f2aacaed99cb11d0b8aec568bfdcdb4378f6dfcd50f",
      "transactionIndex": "0x2",
      "blockHash": "0x700dfb19939b4d29d4a16bd3756ee2b8a99051df6b91c9d2cdfd450141c40640",
      "blockNumber": "0xb28be2b",
      "gasUsed": "0x13177",
      "effectiveGasPrice": "0x5f5e100",
      "from": "0x94cf685cc5d26828e2ca4c9c571249fc9b1d16be",
      "to": "0x5ce8d5a2bc84beb22a398cca51996f7930313d61",
      "contractAddress": null,
      "gasUsedForL1": "0x71",
      "l1BlockNumber": "0x8a2731",
      "timeboosted": false
    }
  ],
  "libraries": [],
  "pending": [],
  "returns": {},
  "timestamp": 1756043934,
  "chain": 421614,
  "commit": "e0a9136"
}