{
  "transactions": [
    {
      "hash": "0xa9f987b99242b5e4c02664e5ab40e7225fe24b6c1b118972699f0cf2a44d9900",
      "transactionType": "CALL",
      "contractName": null,
      "contractAddress": "0x50d47e4142598e3411aa864e08a44284e471ac6f",
      "function": "addConsumer(uint64,address)",
      "arguments": [
        "449",
        "0xB97241446b4d57679e28B2133D7E994267c76550"
      ],
      "transaction": {
        "from": "0x94cf685cc5d26828e2ca4c9c571249fc9b1d16be",
        "to": "0x50d47e4142598e3411aa864e08a44284e471ac6f",
        "gas": "0x19063",
        "value": "0x0",
        "input": "0x7341c10c00000000000000000000000000000000000000000000000000000000000001c1000000000000000000000000b97241446b4d57679e28b2133d7e994267c76550",
        "nonce": "0x3d",
        "chainId": "0x66eee"
      },
      "additionalContracts": [],
      "isFixedGasLimit": false
    }
  ],
  "receipts": [
    {
      "status": "0x1",
      "cumulativeGasUsed": "0x359cc",
      "logs": [
        {
          "address": "0x50d47e4142598e3411aa864e08a44284e471ac6f",
          "topics": [
            "0x43dc749a04ac8fb825cbd514f7c0e13f13bc6f2ee66043b76629d51776cff8e0",
            "0x00000000000000000000000000000000000000000000000000000000000001c1"
          ],
          "data": "0x000000000000000000000000b97241446b4d57679e28b2133d7e994267c76550",
          "blockHash": "0xe13e375d9dfb77aacd8517aa3eb0a982774e4cee20694750092ab47e15e5d393",
          "blockNumber": "0xb176414",
          "transactionHash": "0xa9f987b99242b5e4c02664e5ab40e7225fe24b6c1b118972699f0cf2a44d9900",
          "transactionIndex": "0x3",
          "logIndex": "0x4",
          "removed": false
        }
      ],
      "logsBloom": "0x00000000000000000000000000000000000000000000000000000000000000000000000000000000000000000000000000000000000000000000000000000000000000000000000000000000000000000000000800000000000000000000000000000020000080000000002000000000000000000000000000000000000000008000000000000000000000000000000000000000000000000000000020000000000000000000000000000080000000000000000000000000000000000000000000000000000000000000000000000000000000000000000000020000000000000000000000000000000000000000000000000000000000000040000000000000",
      "type": "0x2",
      "transactionHash": "0xa9f987b99242b5e4c02664e5ab40e7225fe24b6c1b118972699f0cf2a44d9900",
      "transactionIndex": "0x3",
      "blockHash": "0xe13e375d9dfb77aacd8517aa3eb0a982774e4cee20694750092ab47e15e5d393",
      "blockNumber": "0xb176414",
      "gasUsed": "0x13082",
      "effectiveGasPrice": "0x5f5e100",
      "from": "0x94cf685cc5d26828e2ca4c9c571249fc9b1d16be",
      "to": "0x50d47e4142598e3411aa864e08a44284e471ac6f",
      "contractAddress": null,
      "gasUsedForL1": "0x0",
      "l1BlockNumber": "0x89c703",
      "timeboosted": false
    }
  ],
  "libraries": [],
  "pending": [],
  "returns": {},
  "timestamp": 1755741366,
  "chain": 421614,
  "commit": "f81e8f9"
}