{
  "transactions": [
    {
      "hash": "0x5ea6fba7ece4e6348b690dd805e49dfa3f3b76e34fe22b02c5672c808fe39b13",
      "transactionType": "CALL",
      "contractName": null,
      "contractAddress": "0xb1d4538b4571d411f07960ef2838ce337fe1e80e",
      "function": "transferAndCall(address,uint256,bytes)",
      "arguments": [
        "0x50d47e4142598E3411aA864e08a44284e471AC6f",
        "1000000000000000000",
        "0x00000000000000000000000000000000000000000000000000000000000001c1"
      ],
      "transaction": {
        "from": "0x94cf685cc5d26828e2ca4c9c571249fc9b1d16be",
        "to": "0xb1d4538b4571d411f07960ef2838ce337fe1e80e",
        "gas": "0x18912",
        "value": "0x0",
        "input": "0x4000aea000000000000000000000000050d47e4142598e3411aa864e08a44284e471ac6f0000000000000000000000000000000000000000000000000de0b6b3a76400000000000000000000000000000000000000000000000000000000000000000060000000000000000000000000000000000000000000000000000000000000002000000000000000000000000000000000000000000000000000000000000001c1",
        "nonce": "0x1a",
        "chainId": "0x66eee"
      },
      "additionalContracts": [],
      "isFixedGasLimit": false
    }
  ],
  "receipts": [
    {
      "status": "0x1",
      "cumulativeGasUsed": "0x12ad4",
      "logs": [
        {
          "address": "0xb1d4538b4571d411f07960ef2838ce337fe1e80e",
          "topics": [
            "0xddf252ad1be2c89b69c2b068fc378daa952ba7f163c4a11628f55a4df523b3ef",
            "0x00000000000000000000000094cf685cc5d26828e2ca4c9c571249fc9b1d16be",
            "0x00000000000000000000000050d47e4142598e3411aa864e08a44284e471ac6f"
          ],
          "data": "0x0000000000000000000000000000000000000000000000000de0b6b3a7640000",
          "blockHash": "0x7fe9ca979d657a800aa23f12b27c499f39509d4f2664eefc5f74954bb3855c6d",
          "blockNumber": "0xb08e17e",
          "transactionHash": "0x5ea6fba7ece4e6348b690dd805e49dfa3f3b76e34fe22b02c5672c808fe39b13",
          "transactionIndex": "0x1",
          "logIndex": "0x0",
          "removed": false
        },
        {
          "address": "0xb1d4538b4571d411f07960ef2838ce337fe1e80e",
          "topics": [
            "0xe19260aff97b920c7df27010903aeb9c8d2be5d310a2c67824cf3f15396e4c16",
            "0x00000000000000000000000094cf685cc5d26828e2ca4c9c571249fc9b1d16be",
            "0x00000000000000000000000050d47e4142598e3411aa864e08a44284e471ac6f"
          ],
          "data": "0x0000000000000000000000000000000000000000000000000de0b6b3a76400000000000000000000000000000000000000000000000000000000000000000040000000000000000000000000000000000000000000000000000000000000002000000000000000000000000000000000000000000000000000000000000001c1",
          "blockHash": "0x7fe9ca979d657a800aa23f12b27c499f39509d4f2664eefc5f74954bb3855c6d",
          "blockNumber": "0xb08e17e",
          "transactionHash": "0x5ea6fba7ece4e6348b690dd805e49dfa3f3b76e34fe22b02c5672c808fe39b13",
          "transactionIndex": "0x1",
          "logIndex": "0x1",
          "removed": false
        },
        {
          "address": "0x50d47e4142598e3411aa864e08a44284e471ac6f",
          "topics": [
            "0xd39ec07f4e209f627a4c427971473820dc129761ba28de8906bd56f57101d4f8",
            "0x00000000000000000000000000000000000000000000000000000000000001c1"
          ],
          "data": "0x00000000000000000000000000000000000000000000000000000000000000000000000000000000000000000000000000000000000000000de0b6b3a7640000",
          "blockHash": "0x7fe9ca979d657a800aa23f12b27c499f39509d4f2664eefc5f74954bb3855c6d",
          "blockNumber": "0xb08e17e",
          "transactionHash": "0x5ea6fba7ece4e6348b690dd805e49dfa3f3b76e34fe22b02c5672c808fe39b13",
          "transactionIndex": "0x1",
          "logIndex": "0x2",
          "removed": false
        }
      ],
      "logsBloom": "0x080000000000000000000000000000000000000000000002000000000200000000000000000000000000000000000000000000000000000000000000000001000000000000000000040000080000000000000008000000000000200000000000000000a0000000000000002000000000000000040000000000000010000000008000080000000010000000000000000010000020000000000000000020000000000000000000000000000000000000000000000000000000000400000000000000000002000000000000000000000000000000000000000000000000000000000000000000000000000000000000000000000000000000004040000000000001",
      "type": "0x2",
      "transactionHash": "0x5ea6fba7ece4e6348b690dd805e49dfa3f3b76e34fe22b02c5672c808fe39b13",
      "transactionIndex": "0x1",
      "blockHash": "0x7fe9ca979d657a800aa23f12b27c499f39509d4f2664eefc5f74954bb3855c6d",
      "blockNumber": "0xb08e17e",
      "gasUsed": "0x12ad4",
      "effectiveGasPrice": "0x5f5e100",
      "from": "0x94cf685cc5d26828e2ca4c9c571249fc9b1d16be",
      "to": "0xb1d4538b4571d411f07960ef2838ce337fe1e80e",
      "contractAddress": null,
      "gasUsedForL1": "0x66",
      "l1BlockNumber": "0x897698",
      "timeboosted": false
    }
  ],
  "libraries": [],
  "pending": [],
  "returns": {},
  "timestamp": 1755492548,
  "chain": 421614,
  "commit": "9c25031"
}