{
  "transactions": [
    {
      "hash": "0xf881d193d1829f15a1a0ca39d693dfc9466c04099f849532f1dfc1a2fec59827",
      "transactionType": "CALL",
      "contractName": null,
      "contractAddress": "0x50d47e4142598e3411aa864e08a44284e471ac6f",
      "function": "cancelSubscription(uint64,address)",
      "arguments": [
        "450",
        "0x94cF685cc5D26828e2CA4c9C571249Fc9B1D16Be"
      ],
      "transaction": {
        "from": "0x94cf685cc5d26828e2ca4c9c571249fc9b1d16be",
        "to": "0x50d47e4142598e3411aa864e08a44284e471ac6f",
        "gas": "0x20302",
        "value": "0x0",
        "input": "0xd7ae1d3000000000000000000000000000000000000000000000000000000000000001c200000000000000000000000094cf685cc5d26828e2ca4c9c571249fc9b1d16be",
        "nonce": "0xc0",
        "chainId": "0x66eee"
      },
      "additionalContracts": [],
      "isFixedGasLimit": false
    }
  ],
  "receipts": [
    {
      "status": "0x1",
      "cumulativeGasUsed": "0x7df1d",
      "logs": [
        {
          "address": "0xb1d4538b4571d411f07960ef2838ce337fe1e80e",
          "topics": [
            "0xddf252ad1be2c89b69c2b068fc378daa952ba7f163c4a11628f55a4df523b3ef",
            "0x00000000000000000000000050d47e4142598e3411aa864e08a44284e471ac6f",
            "0x00000000000000000000000094cf685cc5d26828e2ca4c9c571249fc9b1d16be"
          ],
          "data": "0x000000000000000000000000000000000000000000000000000098466280af4e",
          "blockHash": "0x5d9cefb46c090021e4115ac7131b01cb6d4c79591bc82552c90a2f35fb60b81d",
          "blockNumber": "0xb27444c",
          "transactionHash": "0xf881d193d1829f15a1a0ca39d693dfc9466c04099f849532f1dfc1a2fec59827",
          "transactionIndex": "0x5",
          "logIndex": "0x10",
          "removed": false
        },
        {
          "address": "0x50d47e4142598e3411aa864e08a44284e471ac6f",
          "topics": [
            "0xe8ed5b475a5b5987aa9165e8731bb78043f39eee32ec5a1169a89e27fcd49815",
            "0x00000000000000000000000000000000000000000000000000000000000001c2"
          ],
          "data": "0x00000000000000000000000094cf685cc5d26828e2ca4c9c571249fc9b1d16be000000000000000000000000000000000000000000000000000098466280af4e",
          "blockHash": "0x5d9cefb46c090021e4115ac7131b01cb6d4c79591bc82552c90a2f35fb60b81d",
          "blockNumber": "0xb27444c",
          "transactionHash": "0xf881d193d1829f15a1a0ca39d693dfc9466c04099f849532f1dfc1a2fec59827",
          "transactionIndex": "0x5",
          "logIndex": "0x11",
          "removed": false
        }
      ],
      "logsBloom": "0x08000000000000000002000000000000000000000000000000000000000000000000000000000000000000000000000000000000000000000400000000000100000000000000000004001008000000000000000000000000000000000000000000000080000000000000002000000000000000040000000000000010000040008000080000000110000000000000000000000000000000000000000000010000000000000000000000000000000000000000000000000000000000000000000000000002000000000000000000000000000000000000000000000000000000000000000000000000000000000000000000000000000000004040000000000001",
      "type": "0x2",
      "transactionHash": "0xf881d193d1829f15a1a0ca39d693dfc9466c04099f849532f1dfc1a2fec59827",
      "transactionIndex": "0x5",
      "blockHash": "0x5d9cefb46c090021e4115ac7131b01cb6d4c79591bc82552c90a2f35fb60b81d",
      "blockNumber": "0xb27444c",
      "gasUsed": "0x13a04",
      "effectiveGasPrice": "0x5f5e100",
      "from": "0x94cf685cc5d26828e2ca4c9c571249fc9b1d16be",
      "to": "0x50d47e4142598e3411aa864e08a44284e471ac6f",
      "contractAddress": null,
      "gasUsedForL1": "0xf2",
      "l1BlockNumber": "0x8a1f7e",
      "timeboosted": false
    }
  ],
  "libraries": [],
  "pending": [],
  "returns": {},
  "timestamp": 1756019162,
  "chain": 421614,
  "commit": "7849496"
}