{
  "transactions": [
    {
      "hash": null,
      "transactionType": "CALL",
      "contractName": null,
      "contractAddress": "0x335c3009548f4a392e72b7d062e13fb27338a47a",
      "function": null,
      "arguments": null,
      "transaction": {
        "from": "0x94cf685cc5d26828e2ca4c9c571249fc9b1d16be",
        "to": "0x335c3009548f4a392e72b7d062e13fb27338a47a",
        "gas": "0x6aa4",
        "value": "0xb5e620f48000",
        "input": "0x",
        "nonce": "0x47",
        "chainId": "0x66eee"
      },
      "additionalContracts": [],
      "isFixedGasLimit": false
    },
    {
      "hash": null,
      "transactionType": "CALL",
      "contractName": null,
      "contractAddress": "0x495c42ea5e1f7d7eddfb458184b44fa78725faf9",
      "function": "mint(address,uint256)",
      "arguments": [
        "0x335c3009548F4A392E72B7D062E13Fb27338A47A",
        "10000000"
      ],
      "transaction": {
        "from": "0x94cf685cc5d26828e2ca4c9c571249fc9b1d16be",
        "to": "0x495c42ea5e1f7d7eddfb458184b44fa78725faf9",
        "gas": "0xbe09",
        "value": "0x0",
        "input": "0x40c10f19000000000000000000000000335c3009548f4a392e72b7d062e13fb27338a47a0000000000000000000000000000000000000000000000000000000000989680",
        "nonce": "0x48",
        "chainId": "0x66eee"
      },
      "additionalContracts": [],
      "isFixedGasLimit": false
    },
    {
      "hash": null,
      "transactionType": "CALL",
      "contractName": null,
      "contractAddress": "0x783c89d1f3b8707ad191c4b86dd44e901b4f6de9",
      "function": null,
      "arguments": null,
      "transaction": {
        "from": "0x94cf685cc5d26828e2ca4c9c571249fc9b1d16be",
        "to": "0x783c89d1f3b8707ad191c4b86dd44e901b4f6de9",
        "gas": "0x6aa4",
        "value": "0xb5e620f48000",
        "input": "0x",
        "nonce": "0x49",
        "chainId": "0x66eee"
      },
      "additionalContracts": [],
      "isFixedGasLimit": false
    },
    {
      "hash": null,
      "transactionType": "CALL",
      "contractName": null,
      "contractAddress": "0x495c42ea5e1f7d7eddfb458184b44fa78725faf9",
      "function": "mint(address,uint256)",
      "arguments": [
        "0x783C89d1F3B8707aD191c4B86Dd44E901b4F6De9",
        "10000000"
      ],
      "transaction": {
        "from": "0x94cf685cc5d26828e2ca4c9c571249fc9b1d16be",
        "to": "0x495c42ea5e1f7d7eddfb458184b44fa78725faf9",
        "gas": "0xbe09",
        "value": "0x0",
        "input": "0x40c10f19000000000000000000000000783c89d1f3b8707ad191c4b86dd44e901b4f6de90000000000000000000000000000000000000000000000000000000000989680",
        "nonce": "0x4a",
        "chainId": "0x66eee"
      },
      "additionalContracts": [],
      "isFixedGasLimit": false
    },
    {
      "hash": null,
      "transactionType": "CALL",
      "contractName": null,
      "contractAddress": "0xdf0777621ba83142ddd349eeae122f132f41b61b",
      "function": null,
      "arguments": null,
      "transaction": {
        "from": "0x94cf685cc5d26828e2ca4c9c571249fc9b1d16be",
        "to": "0xdf0777621ba83142ddd349eeae122f132f41b61b",
        "gas": "0x6aa4",
        "value": "0xb5e620f48000",
        "input": "0x",
        "nonce": "0x4b",
        "chainId": "0x66eee"
      },
      "additionalContracts": [],
      "isFixedGasLimit": false
    },
    {
      "hash": null,
      "transactionType": "CALL",
      "contractName": null,
      "contractAddress": "0x495c42ea5e1f7d7eddfb458184b44fa78725faf9",
      "function": "mint(address,uint256)",
      "arguments": [
        "0xdF0777621bA83142ddd349eeAE122f132f41b61B",
        "10000000"
      ],
      "transaction": {
        "from": "0x94cf685cc5d26828e2ca4c9c571249fc9b1d16be",
        "to": "0x495c42ea5e1f7d7eddfb458184b44fa78725faf9",
        "gas": "0xbe09",
        "value": "0x0",
        "input": "0x40c10f19000000000000000000000000df0777621ba83142ddd349eeae122f132f41b61b0000000000000000000000000000000000000000000000000000000000989680",
        "nonce": "0x4c",
        "chainId": "0x66eee"
      },
      "additionalContracts": [],
      "isFixedGasLimit": false
    },
    {
      "hash": null,
      "transactionType": "CALL",
      "contractName": null,
      "contractAddress": "0xf1c8194d42f50c64685604fea60f23ade0ffba76",
      "function": null,
      "arguments": null,
      "transaction": {
        "from": "0x94cf685cc5d26828e2ca4c9c571249fc9b1d16be",
        "to": "0xf1c8194d42f50c64685604fea60f23ade0ffba76",
        "gas": "0x6aa4",
        "value": "0xb5e620f48000",
        "input": "0x",
        "nonce": "0x4d",
        "chainId": "0x66eee"
      },
      "additionalContracts": [],
      "isFixedGasLimit": false
    },
    {
      "hash": null,
      "transactionType": "CALL",
      "contractName": null,
      "contractAddress": "0x495c42ea5e1f7d7eddfb458184b44fa78725faf9",
      "function": "mint(address,uint256)",
      "arguments": [
        "0xF1c8194d42F50C64685604fea60F23Ade0fFBA76",
        "10000000"
      ],
      "transaction": {
        "from": "0x94cf685cc5d26828e2ca4c9c571249fc9b1d16be",
        "to": "0x495c42ea5e1f7d7eddfb458184b44fa78725faf9",
        "gas": "0xbe09",
        "value": "0x0",
        "input": "0x40c10f19000000000000000000000000f1c8194d42f50c64685604fea60f23ade0ffba760000000000000000000000000000000000000000000000000000000000989680",
        "nonce": "0x4e",
        "chainId": "0x66eee"
      },
      "additionalContracts": [],
      "isFixedGasLimit": false
    },
    {
      "hash": null,
      "transactionType": "CALL",
      "contractName": null,
      "contractAddress": "0xb1138094397f7f3ef1200c123e1539c6a5ad1738",
      "function": null,
      "arguments": null,
      "transaction": {
        "from": "0x94cf685cc5d26828e2ca4c9c571249fc9b1d16be",
        "to": "0xb1138094397f7f3ef1200c123e1539c6a5ad1738",
        "gas": "0x6aa4",
        "value": "0xb5e620f48000",
        "input": "0x",
        "nonce": "0x4f",
        "chainId": "0x66eee"
      },
      "additionalContracts": [],
      "isFixedGasLimit": false
    },
    {
      "hash": null,
      "transactionType": "CALL",
      "contractName": null,
      "contractAddress": "0x495c42ea5e1f7d7eddfb458184b44fa78725faf9",
      "function": "mint(address,uint256)",
      "arguments": [
        "0xb1138094397f7F3EF1200C123E1539c6a5AD1738",
        "10000000"
      ],
      "transaction": {
        "from": "0x94cf685cc5d26828e2ca4c9c571249fc9b1d16be",
        "to": "0x495c42ea5e1f7d7eddfb458184b44fa78725faf9",
        "gas": "0xbe09",
        "value": "0x0",
        "input": "0x40c10f19000000000000000000000000b1138094397f7f3ef1200c123e1539c6a5ad17380000000000000000000000000000000000000000000000000000000000989680",
        "nonce": "0x50",
        "chainId": "0x66eee"
      },
      "additionalContracts": [],
      "isFixedGasLimit": false
    },
    {
      "hash": null,
      "transactionType": "CALL",
      "contractName": null,
      "contractAddress": "0xe7dab1389f7abdc16044f61cedfcc5086012e0b4",
      "function": null,
      "arguments": null,
      "transaction": {
        "from": "0x94cf685cc5d26828e2ca4c9c571249fc9b1d16be",
        "to": "0xe7dab1389f7abdc16044f61cedfcc5086012e0b4",
        "gas": "0x6aa4",
        "value": "0xb5e620f48000",
        "input": "0x",
        "nonce": "0x51",
        "chainId": "0x66eee"
      },
      "additionalContracts": [],
      "isFixedGasLimit": false
    },
    {
      "hash": null,
      "transactionType": "CALL",
      "contractName": null,
      "contractAddress": "0x495c42ea5e1f7d7eddfb458184b44fa78725faf9",
      "function": "mint(address,uint256)",
      "arguments": [
        "0xE7daB1389F7aBDc16044F61CEdfcC5086012E0B4",
        "10000000"
      ],
      "transaction": {
        "from": "0x94cf685cc5d26828e2ca4c9c571249fc9b1d16be",
        "to": "0x495c42ea5e1f7d7eddfb458184b44fa78725faf9",
        "gas": "0xbe09",
        "value": "0x0",
        "input": "0x40c10f19000000000000000000000000e7dab1389f7abdc16044f61cedfcc5086012e0b40000000000000000000000000000000000000000000000000000000000989680",
        "nonce": "0x52",
        "chainId": "0x66eee"
      },
      "additionalContracts": [],
      "isFixedGasLimit": false
    },
    {
      "hash": null,
      "transactionType": "CALL",
      "contractName": null,
      "contractAddress": "0x495c42ea5e1f7d7eddfb458184b44fa78725faf9",
      "function": "approve(address,uint256)",
      "arguments": [
        "0xB97241446b4d57679e28B2133D7E994267c76550",
        "115792089237316195423570985008687907853269984665640564039457584007913129639935"
      ],
      "transaction": {
        "from": "0x335c3009548f4a392e72b7d062e13fb27338a47a",
        "to": "0x495c42ea5e1f7d7eddfb458184b44fa78725faf9",
        "gas": "0x8c96",
        "value": "0x0",
        "input": "0x095ea7b3000000000000000000000000b97241446b4d57679e28b2133d7e994267c76550ffffffffffffffffffffffffffffffffffffffffffffffffffffffffffffffff",
        "nonce": "0x4",
        "chainId": "0x66eee"
      },
      "additionalContracts": [],
      "isFixedGasLimit": false
    },
    {
      "hash": null,
      "transactionType": "CALL",
      "contractName": null,
      "contractAddress": "0xb97241446b4d57679e28b2133d7e994267c76550",
      "function": "buyTicket(uint8)",
      "arguments": [
        "1"
      ],
      "transaction": {
        "from": "0x335c3009548f4a392e72b7d062e13fb27338a47a",
        "to": "0xb97241446b4d57679e28b2133d7e994267c76550",
        "gas": "0x60bd9",
        "value": "0x0",
        "input": "0x023697f00000000000000000000000000000000000000000000000000000000000000001",
        "nonce": "0x5",
        "chainId": "0x66eee"
      },
      "additionalContracts": [],
      "isFixedGasLimit": false
    },
    {
      "hash": null,
      "transactionType": "CALL",
      "contractName": null,
      "contractAddress": "0x495c42ea5e1f7d7eddfb458184b44fa78725faf9",
      "function": "approve(address,uint256)",
      "arguments": [
        "0xB97241446b4d57679e28B2133D7E994267c76550",
        "115792089237316195423570985008687907853269984665640564039457584007913129639935"
      ],
      "transaction": {
        "from": "0x783c89d1f3b8707ad191c4b86dd44e901b4f6de9",
        "to": "0x495c42ea5e1f7d7eddfb458184b44fa78725faf9",
        "gas": "0x8c96",
        "value": "0x0",
        "input": "0x095ea7b3000000000000000000000000b97241446b4d57679e28b2133d7e994267c76550ffffffffffffffffffffffffffffffffffffffffffffffffffffffffffffffff",
        "nonce": "0x4",
        "chainId": "0x66eee"
      },
      "additionalContracts": [],
      "isFixedGasLimit": false
    },
    {
      "hash": null,
      "transactionType": "CALL",
      "contractName": null,
      "contractAddress": "0xb97241446b4d57679e28b2133d7e994267c76550",
      "function": "buyTicket(uint8)",
      "arguments": [
        "1"
      ],
      "transaction": {
        "from": "0x783c89d1f3b8707ad191c4b86dd44e901b4f6de9",
        "to": "0xb97241446b4d57679e28b2133d7e994267c76550",
        "gas": "0x46e74",
        "value": "0x0",
        "input": "0x023697f00000000000000000000000000000000000000000000000000000000000000001",
        "nonce": "0x5",
        "chainId": "0x66eee"
      },
      "additionalContracts": [],
      "isFixedGasLimit": false
    },
    {
      "hash": null,
      "transactionType": "CALL",
      "contractName": null,
      "contractAddress": "0x495c42ea5e1f7d7eddfb458184b44fa78725faf9",
      "function": "approve(address,uint256)",
      "arguments": [
        "0xB97241446b4d57679e28B2133D7E994267c76550",
        "115792089237316195423570985008687907853269984665640564039457584007913129639935"
      ],
      "transaction": {
        "from": "0xdf0777621ba83142ddd349eeae122f132f41b61b",
        "to": "0x495c42ea5e1f7d7eddfb458184b44fa78725faf9",
        "gas": "0x8c96",
        "value": "0x0",
        "input": "0x095ea7b3000000000000000000000000b97241446b4d57679e28b2133d7e994267c76550ffffffffffffffffffffffffffffffffffffffffffffffffffffffffffffffff",
        "nonce": "0x4",
        "chainId": "0x66eee"
      },
      "additionalContracts": [],
      "isFixedGasLimit": false
    },
    {
      "hash": null,
      "transactionType": "CALL",
      "contractName": null,
      "contractAddress": "0xb97241446b4d57679e28b2133d7e994267c76550",
      "function": "buyTicket(uint8)",
      "arguments": [
        "0"
      ],
      "transaction": {
        "from": "0xdf0777621ba83142ddd349eeae122f132f41b61b",
        "to": "0xb97241446b4d57679e28b2133d7e994267c76550",
        "gas": "0x3c3ec",
        "value": "0x0",
        "input": "0x023697f00000000000000000000000000000000000000000000000000000000000000000",
        "nonce": "0x5",
        "chainId": "0x66eee"
      },
      "additionalContracts": [],
      "isFixedGasLimit": false
    },
    {
      "hash": null,
      "transactionType": "CALL",
      "contractName": null,
      "contractAddress": "0x495c42ea5e1f7d7eddfb458184b44fa78725faf9",
      "function": "approve(address,uint256)",
      "arguments": [
        "0xB97241446b4d57679e28B2133D7E994267c76550",
        "115792089237316195423570985008687907853269984665640564039457584007913129639935"
      ],
      "transaction": {
        "from": "0xf1c8194d42f50c64685604fea60f23ade0ffba76",
        "to": "0x495c42ea5e1f7d7eddfb458184b44fa78725faf9",
        "gas": "0x8c96",
        "value": "0x0",
        "input": "0x095ea7b3000000000000000000000000b97241446b4d57679e28b2133d7e994267c76550ffffffffffffffffffffffffffffffffffffffffffffffffffffffffffffffff",
        "nonce": "0x4",
        "chainId": "0x66eee"
      },
      "additionalContracts": [],
      "isFixedGasLimit": false
    },
    {
      "hash": null,
      "transactionType": "CALL",
      "contractName": null,
      "contractAddress": "0xb97241446b4d57679e28b2133d7e994267c76550",
      "function": "buyTicket(uint8)",
      "arguments": [
        "0"
      ],
      "transaction": {
        "from": "0xf1c8194d42f50c64685604fea60f23ade0ffba76",
        "to": "0xb97241446b4d57679e28b2133d7e994267c76550",
        "gas": "0x3c3ec",
        "value": "0x0",
        "input": "0x023697f00000000000000000000000000000000000000000000000000000000000000000",
        "nonce": "0x5",
        "chainId": "0x66eee"
      },
      "additionalContracts": [],
      "isFixedGasLimit": false
    },
    {
      "hash": null,
      "transactionType": "CALL",
      "contractName": null,
      "contractAddress": "0x495c42ea5e1f7d7eddfb458184b44fa78725faf9",
      "function": "approve(address,uint256)",
      "arguments": [
        "0xB97241446b4d57679e28B2133D7E994267c76550",
        "115792089237316195423570985008687907853269984665640564039457584007913129639935"
      ],
      "transaction": {
        "from": "0xb1138094397f7f3ef1200c123e1539c6a5ad1738",
        "to": "0x495c42ea5e1f7d7eddfb458184b44fa78725faf9",
        "gas": "0x8c96",
        "value": "0x0",
        "input": "0x095ea7b3000000000000000000000000b97241446b4d57679e28b2133d7e994267c76550ffffffffffffffffffffffffffffffffffffffffffffffffffffffffffffffff",
        "nonce": "0x4",
        "chainId": "0x66eee"
      },
      "additionalContracts": [],
      "isFixedGasLimit": false
    },
    {
      "hash": null,
      "transactionType": "CALL",
      "contractName": null,
      "contractAddress": "0xb97241446b4d57679e28b2133d7e994267c76550",
      "function": "buyTicket(uint8)",
      "arguments": [
        "0"
      ],
      "transaction": {
        "from": "0xb1138094397f7f3ef1200c123e1539c6a5ad1738",
        "to": "0xb97241446b4d57679e28b2133d7e994267c76550",
        "gas": "0x3c3ec",
        "value": "0x0",
        "input": "0x023697f00000000000000000000000000000000000000000000000000000000000000000",
        "nonce": "0x5",
        "chainId": "0x66eee"
      },
      "additionalContracts": [],
      "isFixedGasLimit": false
    },
    {
      "hash": null,
      "transactionType": "CALL",
      "contractName": null,
      "contractAddress": "0x495c42ea5e1f7d7eddfb458184b44fa78725faf9",
      "function": "approve(address,uint256)",
      "arguments": [
        "0xB97241446b4d57679e28B2133D7E994267c76550",
        "115792089237316195423570985008687907853269984665640564039457584007913129639935"
      ],
      "transaction": {
        "from": "0xe7dab1389f7abdc16044f61cedfcc5086012e0b4",
        "to": "0x495c42ea5e1f7d7eddfb458184b44fa78725faf9",
        "gas": "0x8c96",
        "value": "0x0",
        "input": "0x095ea7b3000000000000000000000000b97241446b4d57679e28b2133d7e994267c76550ffffffffffffffffffffffffffffffffffffffffffffffffffffffffffffffff",
        "nonce": "0x4",
        "chainId": "0x66eee"
      },
      "additionalContracts": [],
      "isFixedGasLimit": false
    },
    {
      "hash": null,
      "transactionType": "CALL",
      "contractName": null,
      "contractAddress": "0xb97241446b4d57679e28b2133d7e994267c76550",
      "function": "buyTicket(uint8)",
      "arguments": [
        "0"
      ],
      "transaction": {
        "from": "0xe7dab1389f7abdc16044f61cedfcc5086012e0b4",
        "to": "0xb97241446b4d57679e28b2133d7e994267c76550",
        "gas": "0x3c3ec",
        "value": "0x0",
        "input": "0x023697f00000000000000000000000000000000000000000000000000000000000000000",
        "nonce": "0x5",
        "chainId": "0x66eee"
      },
      "additionalContracts": [],
      "isFixedGasLimit": false
    }
  ],
  "receipts": [],
  "libraries": [],
  "pending": [],
  "returns": {},
  "timestamp": 1755741516,
  "chain": 421614,
  "commit": "f81e8f9"
}