{
  "transactions": [
    {
      "hash": "0xf7af5359143c11de3871e546e5d6093ac0670145b17fa9fea4fb361d56601bbc",
      "transactionType": "CALL",
      "contractName": null,
      "contractAddress": "0x335c3009548f4a392e72b7d062e13fb27338a47a",
      "function": null,
      "arguments": null,
      "transaction": {
        "from": "0x94cf685cc5d26828e2ca4c9c571249fc9b1d16be",
        "to": "0x335c3009548f4a392e72b7d062e13fb27338a47a",
        "gas": "0x6bb3",
        "value": "0xb5e620f48000",
        "input": "0x",
        "nonce": "0x1f",
        "chainId": "0x66eee"
      },
      "additionalContracts": [],
      "isFixedGasLimit": false
    },
    {
      "hash": "0x8832a3f78816054a24aab7712481b9f3e820ec5d0c76d682457f8026c1440200",
      "transactionType": "CALL",
      "contractName": null,
      "contractAddress": "0x495c42ea5e1f7d7eddfb458184b44fa78725faf9",
      "function": "mint(address,uint256)",
      "arguments": [
        "0x335c3009548F4A392E72B7D062E13Fb27338A47A",
        "10000000"
      ],
      "transaction": {
        "from": "0x94cf685cc5d26828e2ca4c9c571249fc9b1d16be",
        "to": "0x495c42ea5e1f7d7eddfb458184b44fa78725faf9",
        "gas": "0x11768",
        "value": "0x0",
        "input": "0x40c10f19000000000000000000000000335c3009548f4a392e72b7d062e13fb27338a47a0000000000000000000000000000000000000000000000000000000000989680",
        "nonce": "0x20",
        "chainId": "0x66eee"
      },
      "additionalContracts": [],
      "isFixedGasLimit": false
    },
    {
      "hash": "0xf46aa45482696aa4617be6326eabe8fe4fab2fd750fa6d34025988e3cf312cec",
      "transactionType": "CALL",
      "contractName": null,
      "contractAddress": "0x783c89d1f3b8707ad191c4b86dd44e901b4f6de9",
      "function": null,
      "arguments": null,
      "transaction": {
        "from": "0x94cf685cc5d26828e2ca4c9c571249fc9b1d16be",
        "to": "0x783c89d1f3b8707ad191c4b86dd44e901b4f6de9",
        "gas": "0x6bb3",
        "value": "0xb5e620f48000",
        "input": "0x",
        "nonce": "0x21",
        "chainId": "0x66eee"
      },
      "additionalContracts": [],
      "isFixedGasLimit": false
    },
    {
      "hash": "0xf9234e2ef5caf0780bbc9f46457b5a3cce7c657496554e325a488a0f973eb4d3",
      "transactionType": "CALL",
      "contractName": null,
      "contractAddress": "0x495c42ea5e1f7d7eddfb458184b44fa78725faf9",
      "function": "mint(address,uint256)",
      "arguments": [
        "0x783C89d1F3B8707aD191c4B86Dd44E901b4F6De9",
        "10000000"
      ],
      "transaction": {
        "from": "0x94cf685cc5d26828e2ca4c9c571249fc9b1d16be",
        "to": "0x495c42ea5e1f7d7eddfb458184b44fa78725faf9",
        "gas": "0x11768",
        "value": "0x0",
        "input": "0x40c10f19000000000000000000000000783c89d1f3b8707ad191c4b86dd44e901b4f6de90000000000000000000000000000000000000000000000000000000000989680",
        "nonce": "0x22",
        "chainId": "0x66eee"
      },
      "additionalContracts": [],
      "isFixedGasLimit": false
    },
    {
      "hash": "0x021967484a88b3088b9ce2559945ba0a219a1631035d5fe945fac6fa0064afd4",
      "transactionType": "CALL",
      "contractName": null,
      "contractAddress": "0xdf0777621ba83142ddd349eeae122f132f41b61b",
      "function": null,
      "arguments": null,
      "transaction": {
        "from": "0x94cf685cc5d26828e2ca4c9c571249fc9b1d16be",
        "to": "0xdf0777621ba83142ddd349eeae122f132f41b61b",
        "gas": "0x6bb3",
        "value": "0xb5e620f48000",
        "input": "0x",
        "nonce": "0x23",
        "chainId": "0x66eee"
      },
      "additionalContracts": [],
      "isFixedGasLimit": false
    },
    {
      "hash": "0x40cdafa3157cc576783eeba23a6824a263fc3602d38c466e26a607729af944aa",
      "transactionType": "CALL",
      "contractName": null,
      "contractAddress": "0x495c42ea5e1f7d7eddfb458184b44fa78725faf9",
      "function": "mint(address,uint256)",
      "arguments": [
        "0xdF0777621bA83142ddd349eeAE122f132f41b61B",
        "10000000"
      ],
      "transaction": {
        "from": "0x94cf685cc5d26828e2ca4c9c571249fc9b1d16be",
        "to": "0x495c42ea5e1f7d7eddfb458184b44fa78725faf9",
        "gas": "0x11768",
        "value": "0x0",
        "input": "0x40c10f19000000000000000000000000df0777621ba83142ddd349eeae122f132f41b61b0000000000000000000000000000000000000000000000000000000000989680",
        "nonce": "0x24",
        "chainId": "0x66eee"
      },
      "additionalContracts": [],
      "isFixedGasLimit": false
    },
    {
      "hash": "0xed4454e960ffd356f26a68a7077cca12b8f01260cb217a4ed8443816b7dc603a",
      "transactionType": "CALL",
      "contractName": null,
      "contractAddress": "0xf1c8194d42f50c64685604fea60f23ade0ffba76",
      "function": null,
      "arguments": null,
      "transaction": {
        "from": "0x94cf685cc5d26828e2ca4c9c571249fc9b1d16be",
        "to": "0xf1c8194d42f50c64685604fea60f23ade0ffba76",
        "gas": "0x6bb3",
        "value": "0xb5e620f48000",
        "input": "0x",
        "nonce": "0x25",
        "chainId": "0x66eee"
      },
      "additionalContracts": [],
      "isFixedGasLimit": false
    },
    {
      "hash": "0xc2d923eedf4c43670fca0fc7151d921de1d0d73e24c71f40a1309679f73e5795",
      "transactionType": "CALL",
      "contractName": null,
      "contractAddress": "0x495c42ea5e1f7d7eddfb458184b44fa78725faf9",
      "function": "mint(address,uint256)",
      "arguments": [
        "0xF1c8194d42F50C64685604fea60F23Ade0fFBA76",
        "10000000"
      ],
      "transaction": {
        "from": "0x94cf685cc5d26828e2ca4c9c571249fc9b1d16be",
        "to": "0x495c42ea5e1f7d7eddfb458184b44fa78725faf9",
        "gas": "0x11768",
        "value": "0x0",
        "input": "0x40c10f19000000000000000000000000f1c8194d42f50c64685604fea60f23ade0ffba760000000000000000000000000000000000000000000000000000000000989680",
        "nonce": "0x26",
        "chainId": "0x66eee"
      },
      "additionalContracts": [],
      "isFixedGasLimit": false
    },
    {
      "hash": "0x55ce7fe7cbd90bc5ed16b5ea25ca01b65c44c20f401b74d1f3f0c5b1df8a4449",
      "transactionType": "CALL",
      "contractName": null,
      "contractAddress": "0xb1138094397f7f3ef1200c123e1539c6a5ad1738",
      "function": null,
      "arguments": null,
      "transaction": {
        "from": "0x94cf685cc5d26828e2ca4c9c571249fc9b1d16be",
        "to": "0xb1138094397f7f3ef1200c123e1539c6a5ad1738",
        "gas": "0x6bb3",
        "value": "0xb5e620f48000",
        "input": "0x",
        "nonce": "0x27",
        "chainId": "0x66eee"
      },
      "additionalContracts": [],
      "isFixedGasLimit": false
    },
    {
      "hash": "0x72833202597fa00e68d1e687b2889dcd8ebcd2180bcd1e7cc01c81b05e6fa5f0",
      "transactionType": "CALL",
      "contractName": null,
      "contractAddress": "0x495c42ea5e1f7d7eddfb458184b44fa78725faf9",
      "function": "mint(address,uint256)",
      "arguments": [
        "0xb1138094397f7F3EF1200C123E1539c6a5AD1738",
        "10000000"
      ],
      "transaction": {
        "from": "0x94cf685cc5d26828e2ca4c9c571249fc9b1d16be",
        "to": "0x495c42ea5e1f7d7eddfb458184b44fa78725faf9",
        "gas": "0x11768",
        "value": "0x0",
        "input": "0x40c10f19000000000000000000000000b1138094397f7f3ef1200c123e1539c6a5ad17380000000000000000000000000000000000000000000000000000000000989680",
        "nonce": "0x28",
        "chainId": "0x66eee"
      },
      "additionalContracts": [],
      "isFixedGasLimit": false
    },
    {
      "hash": "0xa4ed0c813357049a8a5d64fc25f25d440d08dcd0e54d8ce497678e48e46b6633",
      "transactionType": "CALL",
      "contractName": null,
      "contractAddress": "0xe7dab1389f7abdc16044f61cedfcc5086012e0b4",
      "function": null,
      "arguments": null,
      "transaction": {
        "from": "0x94cf685cc5d26828e2ca4c9c571249fc9b1d16be",
        "to": "0xe7dab1389f7abdc16044f61cedfcc5086012e0b4",
        "gas": "0x6bb3",
        "value": "0xb5e620f48000",
        "input": "0x",
        "nonce": "0x29",
        "chainId": "0x66eee"
      },
      "additionalContracts": [],
      "isFixedGasLimit": false
    },
    {
      "hash": "0x69d9ab3bdb039aee8c2cfdc5345be5d399fc7c81e4b2cd3d9ced77bfe67772f6",
      "transactionType": "CALL",
      "contractName": null,
      "contractAddress": "0x495c42ea5e1f7d7eddfb458184b44fa78725faf9",
      "function": "mint(address,uint256)",
      "arguments": [
        "0xE7daB1389F7aBDc16044F61CEdfcC5086012E0B4",
        "10000000"
      ],
      "transaction": {
        "from": "0x94cf685cc5d26828e2ca4c9c571249fc9b1d16be",
        "to": "0x495c42ea5e1f7d7eddfb458184b44fa78725faf9",
        "gas": "0x11768",
        "value": "0x0",
        "input": "0x40c10f19000000000000000000000000e7dab1389f7abdc16044f61cedfcc5086012e0b40000000000000000000000000000000000000000000000000000000000989680",
        "nonce": "0x2a",
        "chainId": "0x66eee"
      },
      "additionalContracts": [],
      "isFixedGasLimit": false
    },
    {
      "hash": "0xb4c64aa03cecdde9ad23c26c8c8d5eade5aa82648542e715f360f808f4d47f10",
      "transactionType": "CALL",
      "contractName": null,
      "contractAddress": "0x495c42ea5e1f7d7eddfb458184b44fa78725faf9",
      "function": "approve(address,uint256)",
      "arguments": [
        "0xfA5c0E6982cd399598F9300cC1d080957470431e",
        "115792089237316195423570985008687907853269984665640564039457584007913129639935"
      ],
      "transaction": {
        "from": "0x335c3009548f4a392e72b7d062e13fb27338a47a",
        "to": "0x495c42ea5e1f7d7eddfb458184b44fa78725faf9",
        "gas": "0xf22f",
        "value": "0x0",
        "input": "0x095ea7b3000000000000000000000000fa5c0e6982cd399598f9300cc1d080957470431effffffffffffffffffffffffffffffffffffffffffffffffffffffffffffffff",
        "nonce": "0x0",
        "chainId": "0x66eee"
      },
      "additionalContracts": [],
      "isFixedGasLimit": false
    },
    {
      "hash": "0x58392fdf5abdd6cd341444dc83fc3205970114799eec9e41549cd9ab86ce7832",
      "transactionType": "CALL",
      "contractName": null,
      "contractAddress": "0xfa5c0e6982cd399598f9300cc1d080957470431e",
      "function": "buyTicket(uint8)",
      "arguments": [
        "0"
      ],
      "transaction": {
        "from": "0x335c3009548f4a392e72b7d062e13fb27338a47a",
        "to": "0xfa5c0e6982cd399598f9300cc1d080957470431e",
        "gas": "0x4d8ae",
        "value": "0x0",
        "input": "0x023697f00000000000000000000000000000000000000000000000000000000000000000",
        "nonce": "0x1",
        "chainId": "0x66eee"
      },
      "additionalContracts": [],
      "isFixedGasLimit": false
    },
    {
      "hash": "0x8f3d6b5732c7646ece035e9293d30fe462124fe1db4850894ef063ebe378eb12",
      "transactionType": "CALL",
      "contractName": null,
      "contractAddress": "0x495c42ea5e1f7d7eddfb458184b44fa78725faf9",
      "function": "approve(address,uint256)",
      "arguments": [
        "0xfA5c0E6982cd399598F9300cC1d080957470431e",
        "115792089237316195423570985008687907853269984665640564039457584007913129639935"
      ],
      "transaction": {
        "from": "0x783c89d1f3b8707ad191c4b86dd44e901b4f6de9",
        "to": "0x495c42ea5e1f7d7eddfb458184b44fa78725faf9",
        "gas": "0xf22f",
        "value": "0x0",
        "input": "0x095ea7b3000000000000000000000000fa5c0e6982cd399598f9300cc1d080957470431effffffffffffffffffffffffffffffffffffffffffffffffffffffffffffffff",
        "nonce": "0x0",
        "chainId": "0x66eee"
      },
      "additionalContracts": [],
      "isFixedGasLimit": false
    },
    {
      "hash": "0xbca156971d179c31cb22429cd0bbb1cda76aa0ee82016990ed52f5d8c6fd0a40",
      "transactionType": "CALL",
      "contractName": null,
      "contractAddress": "0xfa5c0e6982cd399598f9300cc1d080957470431e",
      "function": "buyTicket(uint8)",
      "arguments": [
        "1"
      ],
      "transaction": {
        "from": "0x783c89d1f3b8707ad191c4b86dd44e901b4f6de9",
        "to": "0xfa5c0e6982cd399598f9300cc1d080957470431e",
        "gas": "0x42f64",
        "value": "0x0",
        "input": "0x023697f00000000000000000000000000000000000000000000000000000000000000001",
        "nonce": "0x1",
        "chainId": "0x66eee"
      },
      "additionalContracts": [],
      "isFixedGasLimit": false
    },
    {
      "hash": "0x8a0d6d999eb646783f9e2790709ecc0c6ee55961dce3df62948fcf6472c19e22",
      "transactionType": "CALL",
      "contractName": null,
      "contractAddress": "0x495c42ea5e1f7d7eddfb458184b44fa78725faf9",
      "function": "approve(address,uint256)",
      "arguments": [
        "0xfA5c0E6982cd399598F9300cC1d080957470431e",
        "115792089237316195423570985008687907853269984665640564039457584007913129639935"
      ],
      "transaction": {
        "from": "0xdf0777621ba83142ddd349eeae122f132f41b61b",
        "to": "0x495c42ea5e1f7d7eddfb458184b44fa78725faf9",
        "gas": "0xf22f",
        "value": "0x0",
        "input": "0x095ea7b3000000000000000000000000fa5c0e6982cd399598f9300cc1d080957470431effffffffffffffffffffffffffffffffffffffffffffffffffffffffffffffff",
        "nonce": "0x0",
        "chainId": "0x66eee"
      },
      "additionalContracts": [],
      "isFixedGasLimit": false
    },
    {
      "hash": "0xebd37f9bb8e78d1e8e5ca6bd908387bbe689e46925f19c48cffc6212d990d79f",
      "transactionType": "CALL",
      "contractName": null,
      "contractAddress": "0xfa5c0e6982cd399598f9300cc1d080957470431e",
      "function": "buyTicket(uint8)",
      "arguments": [
        "0"
      ],
      "transaction": {
        "from": "0xdf0777621ba83142ddd349eeae122f132f41b61b",
        "to": "0xfa5c0e6982cd399598f9300cc1d080957470431e",
        "gas": "0x3c3e4",
        "value": "0x0",
        "input": "0x023697f00000000000000000000000000000000000000000000000000000000000000000",
        "nonce": "0x1",
        "chainId": "0x66eee"
      },
      "additionalContracts": [],
      "isFixedGasLimit": false
    },
    {
      "hash": "0xbc7faaa06323905cee9b674b4871864866f5d83fe773c0b33785f16190cac2e3",
      "transactionType": "CALL",
      "contractName": null,
      "contractAddress": "0x495c42ea5e1f7d7eddfb458184b44fa78725faf9",
      "function": "approve(address,uint256)",
      "arguments": [
        "0xfA5c0E6982cd399598F9300cC1d080957470431e",
        "115792089237316195423570985008687907853269984665640564039457584007913129639935"
      ],
      "transaction": {
        "from": "0xf1c8194d42f50c64685604fea60f23ade0ffba76",
        "to": "0x495c42ea5e1f7d7eddfb458184b44fa78725faf9",
        "gas": "0xf22f",
        "value": "0x0",
        "input": "0x095ea7b3000000000000000000000000fa5c0e6982cd399598f9300cc1d080957470431effffffffffffffffffffffffffffffffffffffffffffffffffffffffffffffff",
        "nonce": "0x0",
        "chainId": "0x66eee"
      },
      "additionalContracts": [],
      "isFixedGasLimit": false
    },
    {
      "hash": "0x27ad8ffbf63bb5e58521b346f2848c8250837d3d96f4c26afefff78fe78d3add",
      "transactionType": "CALL",
      "contractName": null,
      "contractAddress": "0xfa5c0e6982cd399598f9300cc1d080957470431e",
      "function": "buyTicket(uint8)",
      "arguments": [
        "1"
      ],
      "transaction": {
        "from": "0xf1c8194d42f50c64685604fea60f23ade0ffba76",
        "to": "0xfa5c0e6982cd399598f9300cc1d080957470431e",
        "gas": "0x42f64",
        "value": "0x0",
        "input": "0x023697f00000000000000000000000000000000000000000000000000000000000000001",
        "nonce": "0x1",
        "chainId": "0x66eee"
      },
      "additionalContracts": [],
      "isFixedGasLimit": false
    },
    {
      "hash": "0x15a52bdb0b7913f85ba02567fcc78c8aba261cacc7c59f1b6b821bcea87b35b3",
      "transactionType": "CALL",
      "contractName": null,
      "contractAddress": "0x495c42ea5e1f7d7eddfb458184b44fa78725faf9",
      "function": "approve(address,uint256)",
      "arguments": [
        "0xfA5c0E6982cd399598F9300cC1d080957470431e",
        "115792089237316195423570985008687907853269984665640564039457584007913129639935"
      ],
      "transaction": {
        "from": "0xb1138094397f7f3ef1200c123e1539c6a5ad1738",
        "to": "0x495c42ea5e1f7d7eddfb458184b44fa78725faf9",
        "gas": "0xf22f",
        "value": "0x0",
        "input": "0x095ea7b3000000000000000000000000fa5c0e6982cd399598f9300cc1d080957470431effffffffffffffffffffffffffffffffffffffffffffffffffffffffffffffff",
        "nonce": "0x0",
        "chainId": "0x66eee"
      },
      "additionalContracts": [],
      "isFixedGasLimit": false
    },
    {
      "hash": "0x88e20e800692ed2b058a0b2296831c9717b3d0998d8358b0eb642ae826afcbc4",
      "transactionType": "CALL",
      "contractName": null,
      "contractAddress": "0xfa5c0e6982cd399598f9300cc1d080957470431e",
      "function": "buyTicket(uint8)",
      "arguments": [
        "0"
      ],
      "transaction": {
        "from": "0xb1138094397f7f3ef1200c123e1539c6a5ad1738",
        "to": "0xfa5c0e6982cd399598f9300cc1d080957470431e",
        "gas": "0x3c3e4",
        "value": "0x0",
        "input": "0x023697f00000000000000000000000000000000000000000000000000000000000000000",
        "nonce": "0x1",
        "chainId": "0x66eee"
      },
      "additionalContracts": [],
      "isFixedGasLimit": false
    },
    {
      "hash": "0xcdf2f9fc62a98d24790ae54d17e608e2119426ffa9d471319b3b37148b9800c4",
      "transactionType": "CALL",
      "contractName": null,
      "contractAddress": "0x495c42ea5e1f7d7eddfb458184b44fa78725faf9",
      "function": "approve(address,uint256)",
      "arguments": [
        "0xfA5c0E6982cd399598F9300cC1d080957470431e",
        "115792089237316195423570985008687907853269984665640564039457584007913129639935"
      ],
      "transaction": {
        "from": "0xe7dab1389f7abdc16044f61cedfcc5086012e0b4",
        "to": "0x495c42ea5e1f7d7eddfb458184b44fa78725faf9",
        "gas": "0xf22f",
        "value": "0x0",
        "input": "0x095ea7b3000000000000000000000000fa5c0e6982cd399598f9300cc1d080957470431effffffffffffffffffffffffffffffffffffffffffffffffffffffffffffffff",
        "nonce": "0x0",
        "chainId": "0x66eee"
      },
      "additionalContracts": [],
      "isFixedGasLimit": false
    },
    {
      "hash": "0x67c1cb3b59f30e4b5879d67baa726322600fe5ffc3beb4f9c45d290757c24b5e",
      "transactionType": "CALL",
      "contractName": null,
      "contractAddress": "0xfa5c0e6982cd399598f9300cc1d080957470431e",
      "function": "buyTicket(uint8)",
      "arguments": [
        "1"
      ],
      "transaction": {
        "from": "0xe7dab1389f7abdc16044f61cedfcc5086012e0b4",
        "to": "0xfa5c0e6982cd399598f9300cc1d080957470431e",
        "gas": "0x42f64",
        "value": "0x0",
        "input": "0x023697f00000000000000000000000000000000000000000000000000000000000000001",
        "nonce": "0x1",
        "chainId": "0x66eee"
      },
      "additionalContracts": [],
      "isFixedGasLimit": false
    }
  ],
  "receipts": [
    {
      "status": "0x1",
      "cumulativeGasUsed": "0x622f5",
      "logs": [],
      "logsBloom": "0x00000000000000000000000000000000000000000000000000000000000000000000000000000000000000000000000000000000000000000000000000000000000000000000000000000000000000000000000000000000000000000000000000000000000000000000000000000000000000000000000000000000000000000000000000000000000000000000000000000000000000000000000000000000000000000000000000000000000000000000000000000000000000000000000000000000000000000000000000000000000000000000000000000000000000000000000000000000000000000000000000000000000000000000000000000000",
      "type": "0x2",
      "transactionHash": "0xf7af5359143c11de3871e546e5d6093ac0670145b17fa9fea4fb361d56601bbc",
      "transactionIndex": "0x3",
      "blockHash": "0x49fa894b92def30e575864c2a0069e975c2ad85e9b705e59bb61dcf6f656709f",
      "blockNumber": "0xb08ff05",
      "gasUsed": "0x522a",
      "effectiveGasPrice": "0x5f5e100",
      "from": "0x94cf685cc5d26828e2ca4c9c571249fc9b1d16be",
      "to": "0x335c3009548f4a392e72b7d062e13fb27338a47a",
      "contractAddress": null,
      "gasUsedForL1": "0x22",
      "l1BlockNumber": "0x897739",
      "timeboosted": false
    },
    {
      "status": "0x1",
      "cumulativeGasUsed": "0x1239ee",
      "logs": [
        {
          "address": "0x495c42ea5e1f7d7eddfb458184b44fa78725faf9",
          "topics": [
            "0xddf252ad1be2c89b69c2b068fc378daa952ba7f163c4a11628f55a4df523b3ef",
            "0x0000000000000000000000000000000000000000000000000000000000000000",
            "0x000000000000000000000000335c3009548f4a392e72b7d062e13fb27338a47a"
          ],
          "data": "0x0000000000000000000000000000000000000000000000000000000000989680",
          "blockHash": "0xaf6f131cc0f7e745ba5160e753ac26f323141455f231a36a38cec7191ad1c9f4",
          "blockNumber": "0xb08ff0c",
          "transactionHash": "0x8832a3f78816054a24aab7712481b9f3e820ec5d0c76d682457f8026c1440200",
          "transactionIndex": "0x4",
          "logIndex": "0xb",
          "removed": false
        }
      ],
      "logsBloom": "0x01000000000000000000000000000000000080000000000000000000000000000000000000000000000000000000000000000000000000000000000002000000000000000000000000000008000000000000000000000000000000000000000000000000020000000000000000000800000000000000000000000010000000000000000000000000000000000000000000000000000000000000000000000000000000000000000000000000000000000000000000000000000000000000000000000002000000000000000000000000000000000000090000000000000020000000000000000000000000000000000000000000000000000000020000000000",
      "type": "0x2",
      "transactionHash": "0x8832a3f78816054a24aab7712481b9f3e820ec5d0c76d682457f8026c1440200",
      "transactionIndex": "0x4",
      "blockHash": "0xaf6f131cc0f7e745ba5160e753ac26f323141455f231a36a38cec7191ad1c9f4",
      "blockNumber": "0xb08ff0c",
      "gasUsed": "0xd3c3",
      "effectiveGasPrice": "0x5f5e100",
      "from": "0x94cf685cc5d26828e2ca4c9c571249fc9b1d16be",
      "to": "0x495c42ea5e1f7d7eddfb458184b44fa78725faf9",
      "contractAddress": null,
      "gasUsedForL1": "0x34",
      "l1BlockNumber": "0x897739",
      "timeboosted": false
    },
    {
      "status": "0x1",
      "cumulativeGasUsed": "0x522a",
      "logs": [],
      "logsBloom": "0x00000000000000000000000000000000000000000000000000000000000000000000000000000000000000000000000000000000000000000000000000000000000000000000000000000000000000000000000000000000000000000000000000000000000000000000000000000000000000000000000000000000000000000000000000000000000000000000000000000000000000000000000000000000000000000000000000000000000000000000000000000000000000000000000000000000000000000000000000000000000000000000000000000000000000000000000000000000000000000000000000000000000000000000000000000000",
      "type": "0x2",
      "transactionHash": "0xf46aa45482696aa4617be6326eabe8fe4fab2fd750fa6d34025988e3cf312cec",
      "transactionIndex": "0x1",
      "blockHash": "0x96e6ad3a1598bf25c6fffc8d69e01525f5b1fa0a94a363175131502667968ded",
      "blockNumber": "0xb08ff14",
      "gasUsed": "0x522a",
      "effectiveGasPrice": "0x5f5e100",
      "from": "0x94cf685cc5d26828e2ca4c9c571249fc9b1d16be",
      "to": "0x783c89d1f3b8707ad191c4b86dd44e901b4f6de9",
      "contractAddress": null,
      "gasUsedForL1": "0x22",
      "l1BlockNumber": "0x897739",
      "timeboosted": false
    },
    {
      "status": "0x1",
      "cumulativeGasUsed": "0x2d41a",
      "logs": [
        {
          "address": "0x495c42ea5e1f7d7eddfb458184b44fa78725faf9",
          "topics": [
            "0xddf252ad1be2c89b69c2b068fc378daa952ba7f163c4a11628f55a4df523b3ef",
            "0x0000000000000000000000000000000000000000000000000000000000000000",
            "0x000000000000000000000000783c89d1f3b8707ad191c4b86dd44e901b4f6de9"
          ],
          "data": "0x0000000000000000000000000000000000000000000000000000000000989680",
          "blockHash": "0xe7386a3a9ac32dca204dd07744c64b124f191b071f34610dc080899c8d5d27e9",
          "blockNumber": "0xb08ff1d",
          "transactionHash": "0xf9234e2ef5caf0780bbc9f46457b5a3cce7c657496554e325a488a0f973eb4d3",
          "transactionIndex": "0x2",
          "logIndex": "0x3",
          "removed": false
        }
      ],
      "logsBloom": "0x00000000000000000000001000000000000000000000000000000000000000000000000000000000000000000000000000000000000000000000000002000000000000000000000000000008000000000000000000000000000000000000000000000000020000000000000000000800000000000000000000000010000000000000000000000000004000000000000000000000000000000000000000000000000000000000000000000000000000000000000000000000000000000000010000000002000000000000000000000000000000000000080000000000000020000000000000000000000000000000000000000000000000000000020000000000",
      "type": "0x2",
      "transactionHash": "0xf9234e2ef5caf0780bbc9f46457b5a3cce7c657496554e325a488a0f973eb4d3",
      "transactionIndex": "0x2",
      "blockHash": "0xe7386a3a9ac32dca204dd07744c64b124f191b071f34610dc080899c8d5d27e9",
      "blockNumber": "0xb08ff1d",
      "gasUsed": "0xd3c3",
      "effectiveGasPrice": "0x5f5e100",
      "from": "0x94cf685cc5d26828e2ca4c9c571249fc9b1d16be",
      "to": "0x495c42ea5e1f7d7eddfb458184b44fa78725faf9",
      "contractAddress": null,
      "gasUsedForL1": "0x34",
      "l1BlockNumber": "0x897739",
      "timeboosted": false
    },
    {
      "status": "0x1",
      "cumulativeGasUsed": "0x771ce",
      "logs": [],
      "logsBloom": "0x00000000000000000000000000000000000000000000000000000000000000000000000000000000000000000000000000000000000000000000000000000000000000000000000000000000000000000000000000000000000000000000000000000000000000000000000000000000000000000000000000000000000000000000000000000000000000000000000000000000000000000000000000000000000000000000000000000000000000000000000000000000000000000000000000000000000000000000000000000000000000000000000000000000000000000000000000000000000000000000000000000000000000000000000000000000",
      "type": "0x2",
      "transactionHash": "0x021967484a88b3088b9ce2559945ba0a219a1631035d5fe945fac6fa0064afd4",
      "transactionIndex": "0x2",
      "blockHash": "0x37aef8f75dc7b29f31ceb4137084b598f38c64855c4b72356732699994e3b35a",
      "blockNumber": "0xb08ff2a",
      "gasUsed": "0x522a",
      "effectiveGasPrice": "0x5f5e100",
      "from": "0x94cf685cc5d26828e2ca4c9c571249fc9b1d16be",
      "to": "0xdf0777621ba83142ddd349eeae122f132f41b61b",
      "contractAddress": null,
      "gasUsedForL1": "0x22",
      "l1BlockNumber": "0x897739",
      "timeboosted": false
    },
    {
      "status": "0x1",
      "cumulativeGasUsed": "0x6755a",
      "logs": [
        {
          "address": "0x495c42ea5e1f7d7eddfb458184b44fa78725faf9",
          "topics": [
            "0xddf252ad1be2c89b69c2b068fc378daa952ba7f163c4a11628f55a4df523b3ef",
            "0x0000000000000000000000000000000000000000000000000000000000000000",
            "0x000000000000000000000000df0777621ba83142ddd349eeae122f132f41b61b"
          ],
          "data": "0x0000000000000000000000000000000000000000000000000000000000989680",
          "blockHash": "0x829b6e18f1cd0dbc34dcd3b184f6fa73ed200c4c9128fbcc0928c359258a1ce0",
          "blockNumber": "0xb08ff31",
          "transactionHash": "0x40cdafa3157cc576783eeba23a6824a263fc3602d38c466e26a607729af944aa",
          "transactionIndex": "0x4",
          "logIndex": "0x7",
          "removed": false
        }
      ],
      "logsBloom": "0x00000000000000000000000000080000000000000000000000000000000000000000000000000000000000000000000000200000000000000000000002000000000000000000000000000088000000000000000000000000000000000000000000000000020000000000000000000800000000000000000000000010000000000000000000000000000000000000000000000000000000000000000000000000000000000000000000000000000000000000000000000000000000000000000000000002000000000000000000000000000000000000080000000000000020000000000000000000000000000000000000000000000000000000020000000000",
      "type": "0x2",
      "transactionHash": "0x40cdafa3157cc576783eeba23a6824a263fc3602d38c466e26a607729af944aa",
      "transactionIndex": "0x4",
      "blockHash": "0x829b6e18f1cd0dbc34dcd3b184f6fa73ed200c4c9128fbcc0928c359258a1ce0",
      "blockNumber": "0xb08ff31",
      "gasUsed": "0xd3c3",
      "effectiveGasPrice": "0x5f5e100",
      "from": "0x94cf685cc5d26828e2ca4c9c571249fc9b1d16be",
      "to": "0x495c42ea5e1f7d7eddfb458184b44fa78725faf9",
      "contractAddress": null,
      "gasUsedForL1": "0x34",
      "l1BlockNumber": "0x897739",
      "timeboosted": false
    },
    {
      "status": "0x1",
      "cumulativeGasUsed": "0x2f9ed",
      "logs": [],
      "logsBloom": "0x00000000000000000000000000000000000000000000000000000000000000000000000000000000000000000000000000000000000000000000000000000000000000000000000000000000000000000000000000000000000000000000000000000000000000000000000000000000000000000000000000000000000000000000000000000000000000000000000000000000000000000000000000000000000000000000000000000000000000000000000000000000000000000000000000000000000000000000000000000000000000000000000000000000000000000000000000000000000000000000000000000000000000000000000000000000",
      "type": "0x2",
      "transactionHash": "0xed4454e960ffd356f26a68a7077cca12b8f01260cb217a4ed8443816b7dc603a",
      "transactionIndex": "0x3",
      "blockHash": "0x82be6637e47d7fcb477608d1f7abc3433b8866e9d7b9aeecbc40665748eba3e5",
      "blockNumber": "0xb08ff39",
      "gasUsed": "0x522a",
      "effectiveGasPrice": "0x5f5e100",
      "from": "0x94cf685cc5d26828e2ca4c9c571249fc9b1d16be",
      "to": "0xf1c8194d42f50c64685604fea60f23ade0ffba76",
      "contractAddress": null,
      "gasUsedForL1": "0x22",
      "l1BlockNumber": "0x897739",
      "timeboosted": false
    },
    {
      "status": "0x1",
      "cumulativeGasUsed": "0xa60d6",
      "logs": [
        {
          "address": "0x495c42ea5e1f7d7eddfb458184b44fa78725faf9",
          "topics": [
            "0xddf252ad1be2c89b69c2b068fc378daa952ba7f163c4a11628f55a4df523b3ef",
            "0x0000000000000000000000000000000000000000000000000000000000000000",
            "0x000000000000000000000000f1c8194d42f50c64685604fea60f23ade0ffba76"
          ],
          "data": "0x0000000000000000000000000000000000000000000000000000000000989680",
          "blockHash": "0x7ee7bb949aeb6b557129de96f6f586acce3b1c29a498d12e98d3879db36bfd86",
          "blockNumber": "0xb08ff48",
          "transactionHash": "0xc2d923eedf4c43670fca0fc7151d921de1d0d73e24c71f40a1309679f73e5795",
          "transactionIndex": "0x6",
          "logIndex": "0x13",
          "removed": false
        }
      ],
      "logsBloom": "0x00000000000000000000000000000000000000000000000000000000000000000000000000000000000000000000000000000000000000000001000002000000000000000000000000000008000000020000000000000000000000000000000040000000020000000000000000000800000000000000000000000010000000000000000000000000000000000000000000000000000000000000000000000000000000000000000000000000000000000000000000000000000000000000000000000002000000000000000000000000000000000000080000000000000020000000000000000000000000000000000000000000000000000000020000000000",
      "type": "0x2",
      "transactionHash": "0xc2d923eedf4c43670fca0fc7151d921de1d0d73e24c71f40a1309679f73e5795",
      "transactionIndex": "0x6",
      "blockHash": "0x7ee7bb949aeb6b557129de96f6f586acce3b1c29a498d12e98d3879db36bfd86",
      "blockNumber": "0xb08ff48",
      "gasUsed": "0xd3a9",
      "effectiveGasPrice": "0x5f5e100",
      "from": "0x94cf685cc5d26828e2ca4c9c571249fc9b1d16be",
      "to": "0x495c42ea5e1f7d7eddfb458184b44fa78725faf9",
      "contractAddress": null,
      "gasUsedForL1": "0x1a",
      "l1BlockNumber": "0x89773b",
      "timeboosted": false
    },
    {
      "status": "0x1",
      "cumulativeGasUsed": "0x5219",
      "logs": [],
      "logsBloom": "0x00000000000000000000000000000000000000000000000000000000000000000000000000000000000000000000000000000000000000000000000000000000000000000000000000000000000000000000000000000000000000000000000000000000000000000000000000000000000000000000000000000000000000000000000000000000000000000000000000000000000000000000000000000000000000000000000000000000000000000000000000000000000000000000000000000000000000000000000000000000000000000000000000000000000000000000000000000000000000000000000000000000000000000000000000000000",
      "type": "0x2",
      "transactionHash": "0x55ce7fe7cbd90bc5ed16b5ea25ca01b65c44c20f401b74d1f3f0c5b1df8a4449",
      "transactionIndex": "0x1",
      "blockHash": "0x0c27f0bd19041b496aac2743bc165a43191fcb9b5602ffe1de5240f0c827948f",
      "blockNumber": "0xb08ff53",
      "gasUsed": "0x5219",
      "effectiveGasPrice": "0x5f5e100",
      "from": "0x94cf685cc5d26828e2ca4c9c571249fc9b1d16be",
      "to": "0xb1138094397f7f3ef1200c123e1539c6a5ad1738",
      "contractAddress": null,
      "gasUsedForL1": "0x11",
      "l1BlockNumber": "0x89773b",
      "timeboosted": false
    },
    {
      "status": "0x1",
      "cumulativeGasUsed": "0x24a4f",
      "logs": [
        {
          "address": "0x495c42ea5e1f7d7eddfb458184b44fa78725faf9",
          "topics": [
            "0xddf252ad1be2c89b69c2b068fc378daa952ba7f163c4a11628f55a4df523b3ef",
            "0x0000000000000000000000000000000000000000000000000000000000000000",
            "0x000000000000000000000000b1138094397f7f3ef1200c123e1539c6a5ad1738"
          ],
          "data": "0x0000000000000000000000000000000000000000000000000000000000989680",
          "blockHash": "0xa3031c7a5f28a7b69574924e779b0ee17d0277a53b0b55168b977a81722cde48",
          "blockNumber": "0xb08ff5c",
          "transactionHash": "0x72833202597fa00e68d1e687b2889dcd8ebcd2180bcd1e7cc01c81b05e6fa5f0",
          "transactionIndex": "0x2",
          "logIndex": "0x1",
          "removed": false
        }
      ],
      "logsBloom": "0x00000000000000000000000000000000000000000000000000000000000000000000000000000000000000000000000000000000000000000000000002000000000000000000000000000008000000000000000000000000200000000000000000000000020000000000000000000800000000000000000000000010000000000000000000000000000000000000000000000008000000000000000000000000000000000000000000000000000001000000000000000000000000000000000000000002000000000000000000000000000000000000080000000000000020000000000000000000000000000000000000000000000000000000020000000000",
      "type": "0x2",
      "transactionHash": "0x72833202597fa00e68d1e687b2889dcd8ebcd2180bcd1e7cc01c81b05e6fa5f0",
      "transactionIndex": "0x2",
      "blockHash": "0xa3031c7a5f28a7b69574924e779b0ee17d0277a53b0b55168b977a81722cde48",
      "blockNumber": "0xb08ff5c",
      "gasUsed": "0xd3a9",
      "effectiveGasPrice": "0x5f5e100",
      "from": "0x94cf685cc5d26828e2ca4c9c571249fc9b1d16be",
      "to": "0x495c42ea5e1f7d7eddfb458184b44fa78725faf9",
      "contractAddress": null,
      "gasUsedForL1": "0x1a",
      "l1BlockNumber": "0x89773b",
      "timeboosted": false
    },
    {
      "status": "0x1",
      "cumulativeGasUsed": "0xf18dc",
      "logs": [],
      "logsBloom": "0x00000000000000000000000000000000000000000000000000000000000000000000000000000000000000000000000000000000000000000000000000000000000000000000000000000000000000000000000000000000000000000000000000000000000000000000000000000000000000000000000000000000000000000000000000000000000000000000000000000000000000000000000000000000000000000000000000000000000000000000000000000000000000000000000000000000000000000000000000000000000000000000000000000000000000000000000000000000000000000000000000000000000000000000000000000000",
      "type": "0x2",
      "transactionHash": "0xa4ed0c813357049a8a5d64fc25f25d440d08dcd0e54d8ce497678e48e46b6633",
      "transactionIndex": "0x5",
      "blockHash": "0x6718fe24069a9348fc07e7bb6b492d15e4ba01d5d83a568b15be81e4604867c2",
      "blockNumber": "0xb08ff64",
      "gasUsed": "0x5219",
      "effectiveGasPrice": "0x5f5e100",
      "from": "0x94cf685cc5d26828e2ca4c9c571249fc9b1d16be",
      "to": "0xe7dab1389f7abdc16044f61cedfcc5086012e0b4",
      "contractAddress": null,
      "gasUsedForL1": "0x11",
      "l1BlockNumber": "0x89773b",
      "timeboosted": false
    },
    {
      "status": "0x1",
      "cumulativeGasUsed": "0x5f9a7",
      "logs": [
        {
          "address": "0x495c42ea5e1f7d7eddfb458184b44fa78725faf9",
          "topics": [
            "0xddf252ad1be2c89b69c2b068fc378daa952ba7f163c4a11628f55a4df523b3ef",
            "0x0000000000000000000000000000000000000000000000000000000000000000",
            "0x000000000000000000000000e7dab1389f7abdc16044f61cedfcc5086012e0b4"
          ],
          "data": "0x0000000000000000000000000000000000000000000000000000000000989680",
          "blockHash": "0x0c9ddf4e0efe7f180fbcce240492a416e3fc725902855985c898c37b43cb78b5",
          "blockNumber": "0xb08ff6c",
          "transactionHash": "0x69d9ab3bdb039aee8c2cfdc5345be5d399fc7c81e4b2cd3d9ced77bfe67772f6",
          "transactionIndex": "0x3",
          "logIndex": "0x4",
          "removed": false
        }
      ],
      "logsBloom": "0x00000000000000000000000000000000000000000000000000000000000000000000000000000000000000000000000000000000000000000000000002000000000000000000000000000008000000000000008000000000000000000000000000040000020000000000000000000800000000000000000000000010000000000000004000000000000000000000000000000000000000000000000000000000000000000000000000000000000000000000000000000000000000000000000000000002000000000000000000000000000000000000080000000000000020000000000000000000000000000000000000000000000000000000020000000000",
      "type": "0x2",
      "transactionHash": "0x69d9ab3bdb039aee8c2cfdc5345be5d399fc7c81e4b2cd3d9ced77bfe67772f6",
      "transactionIndex": "0x3",
      "blockHash": "0x0c9ddf4e0efe7f180fbcce240492a416e3fc725902855985c898c37b43cb78b5",
      "blockNumber": "0xb08ff6c",
      "gasUsed": "0xd3a9",
      "effectiveGasPrice": "0x5f5e100",
      "from": "0x94cf685cc5d26828e2ca4c9c571249fc9b1d16be",
      "to": "0x495c42ea5e1f7d7eddfb458184b44fa78725faf9",
      "contractAddress": null,
      "gasUsedForL1": "0x1a",
      "l1BlockNumber": "0x89773b",
      "timeboosted": false
    },
    {
      "status": "0x1",
      "cumulativeGasUsed": "0xd1502",
      "logs": [
        {
          "address": "0x495c42ea5e1f7d7eddfb458184b44fa78725faf9",
          "topics": [
            "0x8c5be1e5ebec7d5bd14f71427d1e84f3dd0314c0f7b2291e5b200ac8c7c3b925",
            "0x000000000000000000000000335c3009548f4a392e72b7d062e13fb27338a47a",
            "0x000000000000000000000000fa5c0e6982cd399598f9300cc1d080957470431e"
          ],
          "data": "0xffffffffffffffffffffffffffffffffffffffffffffffffffffffffffffffff",
          "blockHash": "0xf43a5d8b580f6c0d74f152e7113a9f62ac57316914acda3edd01a282ac38ceb7",
          "blockNumber": "0xb08ff77",
          "transactionHash": "0xb4c64aa03cecdde9ad23c26c8c8d5eade5aa82648542e715f360f808f4d47f10",
          "transactionIndex": "0x4",
          "logIndex": "0x5",
          "removed": false
        }
      ],
      "logsBloom": "0x01000000000000000000000000000000000080000000000000000000000000000020000000000000000000000000000000000000000000000000000002200000000000000000000000000010000000000000000000000000000000000000000000000000000000000000000000000000000000000000000000000000000000000000000000000000000000000000000000000000000000000000000000000000020000000000000000000000000000000000000000000000000000000000000080000000000000000000000000000000000000000000090000000000000000000010000000000000000000000000000000000000000000000000020000000000",
      "type": "0x2",
      "transactionHash": "0xb4c64aa03cecdde9ad23c26c8c8d5eade5aa82648542e715f360f808f4d47f10",
      "transactionIndex": "0x4",
      "blockHash": "0xf43a5d8b580f6c0d74f152e7113a9f62ac57316914acda3edd01a282ac38ceb7",
      "blockNumber": "0xb08ff77",
      "gasUsed": "0xb8a2",
      "effectiveGasPrice": "0x5f5e100",
      "from": "0x335c3009548f4a392e72b7d062e13fb27338a47a",
      "to": "0x495c42ea5e1f7d7eddfb458184b44fa78725faf9",
      "contractAddress": null,
      "gasUsedForL1": "0x1a",
      "l1BlockNumber": "0x89773b",
      "timeboosted": false
    },
    {
      "status": "0x1",
      "cumulativeGasUsed": "0x971c2",
      "logs": [
        {
          "address": "0xfa5c0e6982cd399598f9300cc1d080957470431e",
          "topics": [
            "0xfd0a74cd9439908a3aecc74e2d38c760ae56b4df3da24c9723da70b461d3a35d",
            "0x00000000000000000000000000000000000000000000000000000000000770d5",
            "0x000000000000000000000000335c3009548f4a392e72b7d062e13fb27338a47a"
          ],
          "data": "0x00000000000000000000000000000000000000000000000000000000000000000000000000000000000000000000000000000000000000000000000000000064",
          "blockHash": "0xc90d889a9c55cc220cedbfb41d89421a67c3eb15d449a27434b8125b810ee1e5",
          "blockNumber": "0xb08ff80",
          "transactionHash": "0x58392fdf5abdd6cd341444dc83fc3205970114799eec9e41549cd9ab86ce7832",
          "transactionIndex": "0x5",
          "logIndex": "0xc",
          "removed": false
        },
        {
          "address": "0x495c42ea5e1f7d7eddfb458184b44fa78725faf9",
          "topics": [
            "0xddf252ad1be2c89b69c2b068fc378daa952ba7f163c4a11628f55a4df523b3ef",
            "0x000000000000000000000000335c3009548f4a392e72b7d062e13fb27338a47a",
            "0x000000000000000000000000fa5c0e6982cd399598f9300cc1d080957470431e"
          ],
          "data": "0x00000000000000000000000000000000000000000000000000000000000f4240",
          "blockHash": "0xc90d889a9c55cc220cedbfb41d89421a67c3eb15d449a27434b8125b810ee1e5",
          "blockNumber": "0xb08ff80",
          "transactionHash": "0x58392fdf5abdd6cd341444dc83fc3205970114799eec9e41549cd9ab86ce7832",
          "transactionIndex": "0x5",
          "logIndex": "0xd",
          "removed": false
        }
      ],
      "logsBloom": "0x01000000000000000000000000000004000080000000000000000000000000000020000000000000000004002000000000000000000000000000000002000000000000000000000000000018000000000000000000000000080000000000000000000000000000000000000000000000000000000000000000000010000000200000000000000000000000000000000000000000000000000000000000000000000000000000000000000000000000000000000000000000000000000000000080000002000000040000000400000001000000000000090000000000000000000000000000000008000000000000000000000000000000000000020000000000",
      "type": "0x2",
      "transactionHash": "0x58392fdf5abdd6cd341444dc83fc3205970114799eec9e41549cd9ab86ce7832",
      "transactionIndex": "0x5",
      "blockHash": "0xc90d889a9c55cc220cedbfb41d89421a67c3eb15d449a27434b8125b810ee1e5",
      "blockNumber": "0xb08ff80",
      "gasUsed": "0x38251",
      "effectiveGasPrice": "0x5f5e100",
      "from": "0x335c3009548f4a392e72b7d062e13fb27338a47a",
      "to": "0xfa5c0e6982cd399598f9300cc1d080957470431e",
      "contractAddress": null,
      "gasUsedForL1": "0x15",
      "l1BlockNumber": "0x89773c",
      "timeboosted": false
    },
    {
      "status": "0x1",
      "cumulativeGasUsed": "0x44b18",
      "logs": [
        {
          "address": "0x495c42ea5e1f7d7eddfb458184b44fa78725faf9",
          "topics": [
            "0x8c5be1e5ebec7d5bd14f71427d1e84f3dd0314c0f7b2291e5b200ac8c7c3b925",
            "0x000000000000000000000000783c89d1f3b8707ad191c4b86dd44e901b4f6de9",
            "0x000000000000000000000000fa5c0e6982cd399598f9300cc1d080957470431e"
          ],
          "data": "0xffffffffffffffffffffffffffffffffffffffffffffffffffffffffffffffff",
          "blockHash": "0xc1d35598f5d0df0c8444b8288ef027a0d14bc96038a9f475ba5aee264c8222b9",
          "blockNumber": "0xb08ff8b",
          "transactionHash": "0x8f3d6b5732c7646ece035e9293d30fe462124fe1db4850894ef063ebe378eb12",
          "transactionIndex": "0x2",
          "logIndex": "0x1",
          "removed": false
        }
      ],
      "logsBloom": "0x00000000000000000000001000000000000000000000000000000000000000000020000000000000000000000000000000000000000000000000000002200000000000000000000000000010000000000000000000000000000000000000000000000000000000000000000000000000000000000000000000000000000000000000000000000000004000000000000000000000000000000000000000000000020000000000000000000000000000000000000000000000000000000000010080000000000000000000000000000000000000000000080000000000000000000010000000000000000000000000000000000000000000000000020000000000",
      "type": "0x2",
      "transactionHash": "0x8f3d6b5732c7646ece035e9293d30fe462124fe1db4850894ef063ebe378eb12",
      "transactionIndex": "0x2",
      "blockHash": "0xc1d35598f5d0df0c8444b8288ef027a0d14bc96038a9f475ba5aee264c8222b9",
      "blockNumber": "0xb08ff8b",
      "gasUsed": "0xb8a2",
      "effectiveGasPrice": "0x5f5e100",
      "from": "0x783c89d1f3b8707ad191c4b86dd44e901b4f6de9",
      "to": "0x495c42ea5e1f7d7eddfb458184b44fa78725faf9",
      "contractAddress": null,
      "gasUsedForL1": "0x1a",
      "l1BlockNumber": "0x89773c",
      "timeboosted": false
    },
    {
      "status": "0x1",
      "cumulativeGasUsed": "0x740d4",
      "logs": [
        {
          "address": "0xfa5c0e6982cd399598f9300cc1d080957470431e",
          "topics": [
            "0xfd0a74cd9439908a3aecc74e2d38c760ae56b4df3da24c9723da70b461d3a35d",
            "0x00000000000000000000000000000000000000000000000000000000000770d5",
            "0x000000000000000000000000783c89d1f3b8707ad191c4b86dd44e901b4f6de9"
          ],
          "data": "0x00000000000000000000000000000000000000000000000000000000000000010000000000000000000000000000000000000000000000000000000000000064",
          "blockHash": "0x42a0a7d01fcc7c0618af791c00f7f0a47809ca47dfff95cf831b3eeb90194257",
          "blockNumber": "0xb08ff92",
          "transactionHash": "0xbca156971d179c31cb22429cd0bbb1cda76aa0ee82016990ed52f5d8c6fd0a40",
          "transactionIndex": "0x4",
          "logIndex": "0x9",
          "removed": false
        },
        {
          "address": "0x495c42ea5e1f7d7eddfb458184b44fa78725faf9",
          "topics": [
            "0xddf252ad1be2c89b69c2b068fc378daa952ba7f163c4a11628f55a4df523b3ef",
            "0x000000000000000000000000783c89d1f3b8707ad191c4b86dd44e901b4f6de9",
            "0x000000000000000000000000fa5c0e6982cd399598f9300cc1d080957470431e"
          ],
          "data": "0x00000000000000000000000000000000000000000000000000000000002dc6c0",
          "blockHash": "0x42a0a7d01fcc7c0618af791c00f7f0a47809ca47dfff95cf831b3eeb90194257",
          "blockNumber": "0xb08ff92",
          "transactionHash": "0xbca156971d179c31cb22429cd0bbb1cda76aa0ee82016990ed52f5d8c6fd0a40",
          "transactionIndex": "0x4",
          "logIndex": "0xa",
          "removed": false
        }
      ],
      "logsBloom": "0x00000000000000000000001000000004000000000000000000000000000000000020000000000000000004002000000000000000000000000000000002000000000000000000000000000018000000000000000000000000080000000000000000000000000000000000000000000000000000000000000000000010000000200000000000000000004000000000000000000000000000000000000000000000000000000000000000000000000000000000000000000000000000000000010080000002000000040000000400000001000000000000080000000000000000000000000000000008000000000000000000000000000000000000020000000000",
      "type": "0x2",
      "transactionHash": "0xbca156971d179c31cb22429cd0bbb1cda76aa0ee82016990ed52f5d8c6fd0a40",
      "transactionIndex": "0x4",
      "blockHash": "0x42a0a7d01fcc7c0618af791c00f7f0a47809ca47dfff95cf831b3eeb90194257",
      "blockNumber": "0xb08ff92",
      "gasUsed": "0x307c1",
      "effectiveGasPrice": "0x5f5e100",
      "from": "0x783c89d1f3b8707ad191c4b86dd44e901b4f6de9",
      "to": "0xfa5c0e6982cd399598f9300cc1d080957470431e",
      "contractAddress": null,
      "gasUsedForL1": "0x15",
      "l1BlockNumber": "0x89773c",
      "timeboosted": false
    },
    {
      "status": "0x1",
      "cumulativeGasUsed": "0xb8a2",
      "logs": [
        {
          "address": "0x495c42ea5e1f7d7eddfb458184b44fa78725faf9",
          "topics": [
            "0x8c5be1e5ebec7d5bd14f71427d1e84f3dd0314c0f7b2291e5b200ac8c7c3b925",
            "0x000000000000000000000000df0777621ba83142ddd349eeae122f132f41b61b",
            "0x000000000000000000000000fa5c0e6982cd399598f9300cc1d080957470431e"
          ],
          "data": "0xffffffffffffffffffffffffffffffffffffffffffffffffffffffffffffffff",
          "blockHash": "0xeaf324635d6841ad806196bec36871eb5f5073d09a17eb76f77395b1c7008bda",
          "blockNumber": "0xb08ff99",
          "transactionHash": "0x8a0d6d999eb646783f9e2790709ecc0c6ee55961dce3df62948fcf6472c19e22",
          "transactionIndex": "0x1",
          "logIndex": "0x0",
          "removed": false
        }
      ],
      "logsBloom": "0x00000000000000000000000000080000000000000000000000000000000000000020000000000000000000000000000000200000000000000000000002200000000000000000000000000090000000000000000000000000000000000000000000000000000000000000000000000000000000000000000000000000000000000000000000000000000000000000000000000000000000000000000000000000020000000000000000000000000000000000000000000000000000000000000080000000000000000000000000000000000000000000080000000000000000000010000000000000000000000000000000000000000000000000020000000000",
      "type": "0x2",
      "transactionHash": "0x8a0d6d999eb646783f9e2790709ecc0c6ee55961dce3df62948fcf6472c19e22",
      "transactionIndex": "0x1",
      "blockHash": "0xeaf324635d6841ad806196bec36871eb5f5073d09a17eb76f77395b1c7008bda",
      "blockNumber": "0xb08ff99",
      "gasUsed": "0xb8a2",
      "effectiveGasPrice": "0x5f5e100",
      "from": "0xdf0777621ba83142ddd349eeae122f132f41b61b",
      "to": "0x495c42ea5e1f7d7eddfb458184b44fa78725faf9",
      "contractAddress": null,
      "gasUsedForL1": "0x1a",
      "l1BlockNumber": "0x89773c",
      "timeboosted": false
    },
    {
      "status": "0x1",
      "cumulativeGasUsed": "0x48a41",
      "logs": [
        {
          "address": "0xfa5c0e6982cd399598f9300cc1d080957470431e",
          "topics": [
            "0xfd0a74cd9439908a3aecc74e2d38c760ae56b4df3da24c9723da70b461d3a35d",
            "0x00000000000000000000000000000000000000000000000000000000000770d5",
            "0x000000000000000000000000df0777621ba83142ddd349eeae122f132f41b61b"
          ],
          "data": "0x00000000000000000000000000000000000000000000000000000000000000000000000000000000000000000000000000000000000000000000000000000064",
          "blockHash": "0xa8e073e8a26c6211d2b6167289e30d6795f9bc1501d60718a77177560757c4aa",
          "blockNumber": "0xb08ffa3",
          "transactionHash": "0xebd37f9bb8e78d1e8e5ca6bd908387bbe689e46925f19c48cffc6212d990d79f",
          "transactionIndex": "0x2",
          "logIndex": "0x3",
          "removed": false
        },
        {
          "address": "0x495c42ea5e1f7d7eddfb458184b44fa78725faf9",
          "topics": [
            "0xddf252ad1be2c89b69c2b068fc378daa952ba7f163c4a11628f55a4df523b3ef",
            "0x000000000000000000000000df0777621ba83142ddd349eeae122f132f41b61b",
            "0x000000000000000000000000fa5c0e6982cd399598f9300cc1d080957470431e"
          ],
          "data": "0x00000000000000000000000000000000000000000000000000000000000f4240",
          "blockHash": "0xa8e073e8a26c6211d2b6167289e30d6795f9bc1501d60718a77177560757c4aa",
          "blockNumber": "0xb08ffa3",
          "transactionHash": "0xebd37f9bb8e78d1e8e5ca6bd908387bbe689e46925f19c48cffc6212d990d79f",
          "transactionIndex": "0x2",
          "logIndex": "0x4",
          "removed": false
        }
      ],
      "logsBloom": "0x00000000000000000000000000080004000000000000000000000000000000000020000000000000000004002000000000200000000000000000000002000000000000000000000000000098000000000000000000000000080000000000000000000000000000000000000000000000000000000000000000000010000000200000000000000000000000000000000000000000000000000000000000000000000000000000000000000000000000000000000000000000000000000000000080000002000000040000000400000001000000000000080000000000000000000000000000000008000000000000000000000000000000000000020000000000",
      "type": "0x2",
      "transactionHash": "0xebd37f9bb8e78d1e8e5ca6bd908387bbe689e46925f19c48cffc6212d990d79f",
      "transactionIndex": "0x2",
      "blockHash": "0xa8e073e8a26c6211d2b6167289e30d6795f9bc1501d60718a77177560757c4aa",
      "blockNumber": "0xb08ffa3",
      "gasUsed": "0x2b9ed",
      "effectiveGasPrice": "0x5f5e100",
      "from": "0xdf0777621ba83142ddd349eeae122f132f41b61b",
      "to": "0xfa5c0e6982cd399598f9300cc1d080957470431e",
      "contractAddress": null,
      "gasUsedForL1": "0x15",
      "l1BlockNumber": "0x89773c",
      "timeboosted": false
    },
    {
      "status": "0x1",
      "cumulativeGasUsed": "0x27ee6",
      "logs": [
        {
          "address": "0x495c42ea5e1f7d7eddfb458184b44fa78725faf9",
          "topics": [
            "0x8c5be1e5ebec7d5bd14f71427d1e84f3dd0314c0f7b2291e5b200ac8c7c3b925",
            "0x000000000000000000000000f1c8194d42f50c64685604fea60f23ade0ffba76",
            "0x000000000000000000000000fa5c0e6982cd399598f9300cc1d080957470431e"
          ],
          "data": "0xffffffffffffffffffffffffffffffffffffffffffffffffffffffffffffffff",
          "blockHash": "0x222d4d1542f8cf508557fcb72ed26dac333bf52c7560199349df9fc81fe9f88c",
          "blockNumber": "0xb08ffad",
          "transactionHash": "0xbc7faaa06323905cee9b674b4871864866f5d83fe773c0b33785f16190cac2e3",
          "transactionIndex": "0x2",
          "logIndex": "0x4",
          "removed": false
        }
      ],
      "logsBloom": "0x00000000000000000000000000000000000000000000000000000000000000000020000000000000000000000000000000000000000000000001000002200000000000000000000000000010000000020000000000000000000000000000000040000000000000000000000000000000000000000000000000000000000000000000000000000000000000000000000000000000000000000000000000000000020000000000000000000000000000000000000000000000000000000000000080000000000000000000000000000000000000000000080000000000000000000010000000000000000000000000000000000000000000000000020000000000",
      "type": "0x2",
      "transactionHash": "0xbc7faaa06323905cee9b674b4871864866f5d83fe773c0b33785f16190cac2e3",
      "transactionIndex": "0x2",
      "blockHash": "0x222d4d1542f8cf508557fcb72ed26dac333bf52c7560199349df9fc81fe9f88c",
      "blockNumber": "0xb08ffad",
      "gasUsed": "0xb8a2",
      "effectiveGasPrice": "0x5f5e100",
      "from": "0xf1c8194d42f50c64685604fea60f23ade0ffba76",
      "to": "0x495c42ea5e1f7d7eddfb458184b44fa78725faf9",
      "contractAddress": null,
      "gasUsedForL1": "0x1a",
      "l1BlockNumber": "0x89773c",
      "timeboosted": false
    },
    {
      "status": "0x1",
      "cumulativeGasUsed": "0x4cde7",
      "logs": [
        {
          "address": "0xfa5c0e6982cd399598f9300cc1d080957470431e",
          "topics": [
            "0xfd0a74cd9439908a3aecc74e2d38c760ae56b4df3da24c9723da70b461d3a35d",
            "0x00000000000000000000000000000000000000000000000000000000000770d5",
            "0x000000000000000000000000f1c8194d42f50c64685604fea60f23ade0ffba76"
          ],
          "data": "0x00000000000000000000000000000000000000000000000000000000000000010000000000000000000000000000000000000000000000000000000000000064",
          "blockHash": "0x0e6fbe28a121849f99bdc678589084c5750bd653263c3b12e480dfc6e7f76708",
          "blockNumber": "0xb08ffb5",
          "transactionHash": "0x27ad8ffbf63bb5e58521b346f2848c8250837d3d96f4c26afefff78fe78d3add",
          "transactionIndex": "0x2",
          "logIndex": "0x4",
          "removed": false
        },
        {
          "address": "0x495c42ea5e1f7d7eddfb458184b44fa78725faf9",
          "topics": [
            "0xddf252ad1be2c89b69c2b068fc378daa952ba7f163c4a11628f55a4df523b3ef",
            "0x000000000000000000000000f1c8194d42f50c64685604fea60f23ade0ffba76",
            "0x000000000000000000000000fa5c0e6982cd399598f9300cc1d080957470431e"
          ],
          "data": "0x00000000000000000000000000000000000000000000000000000000002dc6c0",
          "blockHash": "0x0e6fbe28a121849f99bdc678589084c5750bd653263c3b12e480dfc6e7f76708",
          "blockNumber": "0xb08ffb5",
          "transactionHash": "0x27ad8ffbf63bb5e58521b346f2848c8250837d3d96f4c26afefff78fe78d3add",
          "transactionIndex": "0x2",
          "logIndex": "0x5",
          "removed": false
        }
      ],
      "logsBloom": "0x00000000000000000000000000000004000000000000000000000000000000000020000000000000000004002000000000000000000000000001000002000000000000000000000000000018000000020000000000000000080000000000000040000000000000000000000000000000000000000000000000000010000000200000000000000000000000000000000000000000000000000000000000000000000000000000000000000000000000000000000000000000000000000000000080000002000000040000000400000001000000000000080000000000000000000000000000000008000000000000000000000000000000000000020000000000",
      "type": "0x2",
      "transactionHash": "0x27ad8ffbf63bb5e58521b346f2848c8250837d3d96f4c26afefff78fe78d3add",
      "transactionIndex": "0x2",
      "blockHash": "0x0e6fbe28a121849f99bdc678589084c5750bd653263c3b12e480dfc6e7f76708",
      "blockNumber": "0xb08ffb5",
      "gasUsed": "0x307c1",
      "effectiveGasPrice": "0x5f5e100",
      "from": "0xf1c8194d42f50c64685604fea60f23ade0ffba76",
      "to": "0xfa5c0e6982cd399598f9300cc1d080957470431e",
      "contractAddress": null,
      "gasUsedForL1": "0x15",
      "l1BlockNumber": "0x89773c",
      "timeboosted": false
    },
    {
      "status": "0x1",
      "cumulativeGasUsed": "0x2509a",
      "logs": [
        {
          "address": "0x495c42ea5e1f7d7eddfb458184b44fa78725faf9",
          "topics": [
            "0x8c5be1e5ebec7d5bd14f71427d1e84f3dd0314c0f7b2291e5b200ac8c7c3b925",
            "0x000000000000000000000000b1138094397f7f3ef1200c123e1539c6a5ad1738",
            "0x000000000000000000000000fa5c0e6982cd399598f9300cc1d080957470431e"
          ],
          "data": "0xffffffffffffffffffffffffffffffffffffffffffffffffffffffffffffffff",
          "blockHash": "0xc05a76a05ccff58cf92f08708879e038320c89bda00f115ece4f2bc50bfd4d1a",
          "blockNumber": "0xb08ffbc",
          "transactionHash": "0x15a52bdb0b7913f85ba02567fcc78c8aba261cacc7c59f1b6b821bcea87b35b3",
          "transactionIndex": "0x2",
          "logIndex": "0x3",
          "removed": false
        }
      ],
      "logsBloom": "0x00000000000000000000000000000000000000000000000000000000000000000020000000000000000000000000000000000000000000000000000002200000000000000000000000000010000000000000000000000000200000000000000000000000000000000000000000000000000000000000000000000000000000000000000000000000000000000000000000000008000000000000000000000000020000000000000000000000000001000000000000000000000000000000000080000000000000000000000000000000000000000000080000000000000000000010000000000000000000000000000000000000000000000000020000000000",
      "type": "0x2",
      "transactionHash": "0x15a52bdb0b7913f85ba02567fcc78c8aba261cacc7c59f1b6b821bcea87b35b3",
      "transactionIndex": "0x2",
      "blockHash": "0xc05a76a05ccff58cf92f08708879e038320c89bda00f115ece4f2bc50bfd4d1a",
      "blockNumber": "0xb08ffbc",
      "gasUsed": "0xb8a2",
      "effectiveGasPrice": "0x5f5e100",
      "from": "0xb1138094397f7f3ef1200c123e1539c6a5ad1738",
      "to": "0x495c42ea5e1f7d7eddfb458184b44fa78725faf9",
      "contractAddress": null,
      "gasUsedForL1": "0x1a",
      "l1BlockNumber": "0x89773d",
      "timeboosted": false
    },
    {
      "status": "0x1",
      "cumulativeGasUsed": "0x5eeaf",
      "logs": [
        {
          "address": "0xfa5c0e6982cd399598f9300cc1d080957470431e",
          "topics": [
            "0xfd0a74cd9439908a3aecc74e2d38c760ae56b4df3da24c9723da70b461d3a35d",
            "0x00000000000000000000000000000000000000000000000000000000000770d5",
            "0x000000000000000000000000b1138094397f7f3ef1200c123e1539c6a5ad1738"
          ],
          "data": "0x00000000000000000000000000000000000000000000000000000000000000000000000000000000000000000000000000000000000000000000000000000064",
          "blockHash": "0xad740ce640969d235b66af36d4d167422fff0f8e26b4cdef3a851804c4538058",
          "blockNumber": "0xb08ffc5",
          "transactionHash": "0x88e20e800692ed2b058a0b2296831c9717b3d0998d8358b0eb642ae826afcbc4",
          "transactionIndex": "0x3",
          "logIndex": "0x5",
          "removed": false
        },
        {
          "address": "0x495c42ea5e1f7d7eddfb458184b44fa78725faf9",
          "topics": [
            "0xddf252ad1be2c89b69c2b068fc378daa952ba7f163c4a11628f55a4df523b3ef",
            "0x000000000000000000000000b1138094397f7f3ef1200c123e1539c6a5ad1738",
            "0x000000000000000000000000fa5c0e6982cd399598f9300cc1d080957470431e"
          ],
          "data": "0x00000000000000000000000000000000000000000000000000000000000f4240",
          "blockHash": "0xad740ce640969d235b66af36d4d167422fff0f8e26b4cdef3a851804c4538058",
          "blockNumber": "0xb08ffc5",
          "transactionHash": "0x88e20e800692ed2b058a0b2296831c9717b3d0998d8358b0eb642ae826afcbc4",
          "transactionIndex": "0x3",
          "logIndex": "0x6",
          "removed": false
        }
      ],
      "logsBloom": "0x00000000000000000000000000000004000000000000000000000000000000000020000000000000000004002000000000000000000000000000000002000000000000000000000000000018000000000000000000000000280000000000000000000000000000000000000000000000000000000000000000000010000000200000000000000000000000000000000000000008000000000000000000000000000000000000000000000000000001000000000000000000000000000000000080000002000000040000000400000001000000000000080000000000000000000000000000000008000000000000000000000000000000000000020000000000",
      "type": "0x2",
      "transactionHash": "0x88e20e800692ed2b058a0b2296831c9717b3d0998d8358b0eb642ae826afcbc4",
      "transactionIndex": "0x3",
      "blockHash": "0xad740ce640969d235b66af36d4d167422fff0f8e26b4cdef3a851804c4538058",
      "blockNumber": "0xb08ffc5",
      "gasUsed": "0x2b9ed",
      "effectiveGasPrice": "0x5f5e100",
      "from": "0xb1138094397f7f3ef1200c123e1539c6a5ad1738",
      "to": "0xfa5c0e6982cd399598f9300cc1d080957470431e",
      "contractAddress": null,
      "gasUsedForL1": "0x15",
      "l1BlockNumber": "0x89773d",
      "timeboosted": false
    },
    {
      "status": "0x1",
      "cumulativeGasUsed": "0x2c2b1",
      "logs": [
        {
          "address": "0x495c42ea5e1f7d7eddfb458184b44fa78725faf9",
          "topics": [
            "0x8c5be1e5ebec7d5bd14f71427d1e84f3dd0314c0f7b2291e5b200ac8c7c3b925",
            "0x000000000000000000000000e7dab1389f7abdc16044f61cedfcc5086012e0b4",
            "0x000000000000000000000000fa5c0e6982cd399598f9300cc1d080957470431e"
          ],
          "data": "0xffffffffffffffffffffffffffffffffffffffffffffffffffffffffffffffff",
          "blockHash": "0xc6fed80442e0ec12c559e8421e92289027c87ce15c1591be7529a33ba35c3869",
          "blockNumber": "0xb08ffd3",
          "transactionHash": "0xcdf2f9fc62a98d24790ae54d17e608e2119426ffa9d471319b3b37148b9800c4",
          "transactionIndex": "0x2",
          "logIndex": "0x5",
          "removed": false
        }
      ],
      "logsBloom": "0x00000000000000000000000000000000000000000000000000000000000000000020000000000000000000000000000000000000000000000000000002200000000000000000000000000010000000000000008000000000000000000000000000040000000000000000000000000000000000000000000000000000000000000000004000000000000000000000000000000000000000000000000000000000020000000000000000000000000000000000000000000000000000000000000080000000000000000000000000000000000000000000080000000000000000000010000000000000000000000000000000000000000000000000020000000000",
      "type": "0x2",
      "transactionHash": "0xcdf2f9fc62a98d24790ae54d17e608e2119426ffa9d471319b3b37148b9800c4",
      "transactionIndex": "0x2",
      "blockHash": "0xc6fed80442e0ec12c559e8421e92289027c87ce15c1591be7529a33ba35c3869",
      "blockNumber": "0xb08ffd3",
      "gasUsed": "0xb8a2",
      "effectiveGasPrice": "0x5f5e100",
      "from": "0xe7dab1389f7abdc16044f61cedfcc5086012e0b4",
      "to": "0x495c42ea5e1f7d7eddfb458184b44fa78725faf9",
      "contractAddress": null,
      "gasUsedForL1": "0x1a",
      "l1BlockNumber": "0x89773d",
      "timeboosted": false
    },
    {
      "status": "0x1",
      "cumulativeGasUsed": "0x307c1",
      "logs": [
        {
          "address": "0xfa5c0e6982cd399598f9300cc1d080957470431e",
          "topics": [
            "0xfd0a74cd9439908a3aecc74e2d38c760ae56b4df3da24c9723da70b461d3a35d",
            "0x00000000000000000000000000000000000000000000000000000000000770d5",
            "0x000000000000000000000000e7dab1389f7abdc16044f61cedfcc5086012e0b4"
          ],
          "data": "0x00000000000000000000000000000000000000000000000000000000000000010000000000000000000000000000000000000000000000000000000000000064",
          "blockHash": "0xee04972f62370368a24bcd23ad7c082d043b979858e3b03e7b7c0e984e7caec3",
          "blockNumber": "0xb08ffdb",
          "transactionHash": "0x67c1cb3b59f30e4b5879d67baa726322600fe5ffc3beb4f9c45d290757c24b5e",
          "transactionIndex": "0x1",
          "logIndex": "0x0",
          "removed": false
        },
        {
          "address": "0x495c42ea5e1f7d7eddfb458184b44fa78725faf9",
          "topics": [
            "0xddf252ad1be2c89b69c2b068fc378daa952ba7f163c4a11628f55a4df523b3ef",
            "0x000000000000000000000000e7dab1389f7abdc16044f61cedfcc5086012e0b4",
            "0x000000000000000000000000fa5c0e6982cd399598f9300cc1d080957470431e"
          ],
          "data": "0x00000000000000000000000000000000000000000000000000000000002dc6c0",
          "blockHash": "0xee04972f62370368a24bcd23ad7c082d043b979858e3b03e7b7c0e984e7caec3",
          "blockNumber": "0xb08ffdb",
          "transactionHash": "0x67c1cb3b59f30e4b5879d67baa726322600fe5ffc3beb4f9c45d290757c24b5e",
          "transactionIndex": "0x1",
          "logIndex": "0x1",
          "removed": false
        }
      ],
      "logsBloom": "0x00000000000000000000000000000004000000000000000000000000000000000020000000000000000004002000000000000000000000000000000002000000000000000000000000000018000000000000008000000000080000000000000000040000000000000000000000000000000000000000000000000010000000200000004000000000000000000000000000000000000000000000000000000000000000000000000000000000000000000000000000000000000000000000000080000002000000040000000400000001000000000000080000000000000000000000000000000008000000000000000000000000000000000000020000000000",
      "type": "0x2",
      "transactionHash": "0x67c1cb3b59f30e4b5879d67baa726322600fe5ffc3beb4f9c45d290757c24b5e",
      "transactionIndex": "0x1",
      "blockHash": "0xee04972f62370368a24bcd23ad7c082d043b979858e3b03e7b7c0e984e7caec3",
      "blockNumber": "0xb08ffdb",
      "gasUsed": "0x307c1",
      "effectiveGasPrice": "0x5f5e100",
      "from": "0xe7dab1389f7abdc16044f61cedfcc5086012e0b4",
      "to": "0xfa5c0e6982cd399598f9300cc1d080957470431e",
      "contractAddress": null,
      "gasUsedForL1": "0x15",
      "l1BlockNumber": "0x89773d",
      "timeboosted": false
    }
  ],
  "libraries": [],
  "pending": [],
  "returns": {},
  "timestamp": 1755494548,
  "chain": 421614,
  "commit": "9c25031"
}