{
  "transactions": [
    {
      "hash": "0xc2089e4bb1b4f39a6754642c7bf7a3c847c1dd24b2ebaf4cf4654e7b6e955984",
      "transactionType": "CALL",
      "contractName": null,
      "contractAddress": "0x335c3009548f4a392e72b7d062e13fb27338a47a",
      "function": null,
      "arguments": null,
      "transaction": {
        "from": "0x94cf685cc5d26828e2ca4c9c571249fc9b1d16be",
        "to": "0x335c3009548f4a392e72b7d062e13fb27338a47a",
        "gas": "0x6c31",
        "value": "0xb5e620f48000",
        "input": "0x",
        "nonce": "0xb0",
        "chainId": "0x66eee"
      },
      "additionalContracts": [],
      "isFixedGasLimit": false
    },
    {
      "hash": "0x01cfc7ea0fd5e2e9da66f1f26ef835c71c26118716a68df83970036293937800",
      "transactionType": "CALL",
      "contractName": null,
      "contractAddress": "0x495c42ea5e1f7d7eddfb458184b44fa78725faf9",
      "function": "mint(address,uint256)",
      "arguments": [
        "0x335c3009548F4A392E72B7D062E13Fb27338A47A",
        "10000000"
      ],
      "transaction": {
        "from": "0x94cf685cc5d26828e2ca4c9c571249fc9b1d16be",
        "to": "0x495c42ea5e1f7d7eddfb458184b44fa78725faf9",
        "gas": "0xbf11",
        "value": "0x0",
        "input": "0x40c10f19000000000000000000000000335c3009548f4a392e72b7d062e13fb27338a47a0000000000000000000000000000000000000000000000000000000000989680",
        "nonce": "0xb1",
        "chainId": "0x66eee"
      },
      "additionalContracts": [],
      "isFixedGasLimit": false
    },
    {
      "hash": "0x04d7b2018d91e0819cdf661e1e12be9cd10ae975533c8e9b6d09624626c31e95",
      "transactionType": "CALL",
      "contractName": null,
      "contractAddress": "0x783c89d1f3b8707ad191c4b86dd44e901b4f6de9",
      "function": null,
      "arguments": null,
      "transaction": {
        "from": "0x94cf685cc5d26828e2ca4c9c571249fc9b1d16be",
        "to": "0x783c89d1f3b8707ad191c4b86dd44e901b4f6de9",
        "gas": "0x6c31",
        "value": "0xb5e620f48000",
        "input": "0x",
        "nonce": "0xb2",
        "chainId": "0x66eee"
      },
      "additionalContracts": [],
      "isFixedGasLimit": false
    },
    {
      "hash": "0x79d3f3b602ff57324451db9710b540f791c00f1abb0340cbf0ca45e1ad41f275",
      "transactionType": "CALL",
      "contractName": null,
      "contractAddress": "0x495c42ea5e1f7d7eddfb458184b44fa78725faf9",
      "function": "mint(address,uint256)",
      "arguments": [
        "0x783C89d1F3B8707aD191c4B86Dd44E901b4F6De9",
        "10000000"
      ],
      "transaction": {
        "from": "0x94cf685cc5d26828e2ca4c9c571249fc9b1d16be",
        "to": "0x495c42ea5e1f7d7eddfb458184b44fa78725faf9",
        "gas": "0xbf11",
        "value": "0x0",
        "input": "0x40c10f19000000000000000000000000783c89d1f3b8707ad191c4b86dd44e901b4f6de90000000000000000000000000000000000000000000000000000000000989680",
        "nonce": "0xb3",
        "chainId": "0x66eee"
      },
      "additionalContracts": [],
      "isFixedGasLimit": false
    },
    {
      "hash": "0x7acaa9f8d8f357cb332d5daaf9afcfe63e82e7266b0f73cf0ff0c59b35c25cb3",
      "transactionType": "CALL",
      "contractName": null,
      "contractAddress": "0xdf0777621ba83142ddd349eeae122f132f41b61b",
      "function": null,
      "arguments": null,
      "transaction": {
        "from": "0x94cf685cc5d26828e2ca4c9c571249fc9b1d16be",
        "to": "0xdf0777621ba83142ddd349eeae122f132f41b61b",
        "gas": "0x6c31",
        "value": "0xb5e620f48000",
        "input": "0x",
        "nonce": "0xb4",
        "chainId": "0x66eee"
      },
      "additionalContracts": [],
      "isFixedGasLimit": false
    },
    {
      "hash": "0x93960089be96e9d9ef7568e01fff1faf00bd5367a681ada00fc37a990333934e",
      "transactionType": "CALL",
      "contractName": null,
      "contractAddress": "0x495c42ea5e1f7d7eddfb458184b44fa78725faf9",
      "function": "mint(address,uint256)",
      "arguments": [
        "0xdF0777621bA83142ddd349eeAE122f132f41b61B",
        "10000000"
      ],
      "transaction": {
        "from": "0x94cf685cc5d26828e2ca4c9c571249fc9b1d16be",
        "to": "0x495c42ea5e1f7d7eddfb458184b44fa78725faf9",
        "gas": "0xbf11",
        "value": "0x0",
        "input": "0x40c10f19000000000000000000000000df0777621ba83142ddd349eeae122f132f41b61b0000000000000000000000000000000000000000000000000000000000989680",
        "nonce": "0xb5",
        "chainId": "0x66eee"
      },
      "additionalContracts": [],
      "isFixedGasLimit": false
    },
    {
      "hash": "0x25bdfbc3d3c6807b86ac36d34eb245f25bc3a916ce8f6e1dd031f52b027e4baa",
      "transactionType": "CALL",
      "contractName": null,
      "contractAddress": "0xf1c8194d42f50c64685604fea60f23ade0ffba76",
      "function": null,
      "arguments": null,
      "transaction": {
        "from": "0x94cf685cc5d26828e2ca4c9c571249fc9b1d16be",
        "to": "0xf1c8194d42f50c64685604fea60f23ade0ffba76",
        "gas": "0x6c31",
        "value": "0xb5e620f48000",
        "input": "0x",
        "nonce": "0xb6",
        "chainId": "0x66eee"
      },
      "additionalContracts": [],
      "isFixedGasLimit": false
    },
    {
      "hash": "0x313969e747519cb2f6774bc1ea9dc490d0bcfae0e52b023bc251cf6de6ebb299",
      "transactionType": "CALL",
      "contractName": null,
      "contractAddress": "0x495c42ea5e1f7d7eddfb458184b44fa78725faf9",
      "function": "mint(address,uint256)",
      "arguments": [
        "0xF1c8194d42F50C64685604fea60F23Ade0fFBA76",
        "10000000"
      ],
      "transaction": {
        "from": "0x94cf685cc5d26828e2ca4c9c571249fc9b1d16be",
        "to": "0x495c42ea5e1f7d7eddfb458184b44fa78725faf9",
        "gas": "0xbf11",
        "value": "0x0",
        "input": "0x40c10f19000000000000000000000000f1c8194d42f50c64685604fea60f23ade0ffba760000000000000000000000000000000000000000000000000000000000989680",
        "nonce": "0xb7",
        "chainId": "0x66eee"
      },
      "additionalContracts": [],
      "isFixedGasLimit": false
    },
    {
      "hash": "0x6874a976d5bdc52b94b470fe8ef32fa538299dd5e2d4889299c98af44e255d52",
      "transactionType": "CALL",
      "contractName": null,
      "contractAddress": "0xb1138094397f7f3ef1200c123e1539c6a5ad1738",
      "function": null,
      "arguments": null,
      "transaction": {
        "from": "0x94cf685cc5d26828e2ca4c9c571249fc9b1d16be",
        "to": "0xb1138094397f7f3ef1200c123e1539c6a5ad1738",
        "gas": "0x6c31",
        "value": "0xb5e620f48000",
        "input": "0x",
        "nonce": "0xb8",
        "chainId": "0x66eee"
      },
      "additionalContracts": [],
      "isFixedGasLimit": false
    },
    {
      "hash": "0x592d1b1ea9c8a293323c759c471af9cc5f874e8b9d2fe59425a1f58b91bb58b2",
      "transactionType": "CALL",
      "contractName": null,
      "contractAddress": "0x495c42ea5e1f7d7eddfb458184b44fa78725faf9",
      "function": "mint(address,uint256)",
      "arguments": [
        "0xb1138094397f7F3EF1200C123E1539c6a5AD1738",
        "10000000"
      ],
      "transaction": {
        "from": "0x94cf685cc5d26828e2ca4c9c571249fc9b1d16be",
        "to": "0x495c42ea5e1f7d7eddfb458184b44fa78725faf9",
        "gas": "0xbf11",
        "value": "0x0",
        "input": "0x40c10f19000000000000000000000000b1138094397f7f3ef1200c123e1539c6a5ad17380000000000000000000000000000000000000000000000000000000000989680",
        "nonce": "0xb9",
        "chainId": "0x66eee"
      },
      "additionalContracts": [],
      "isFixedGasLimit": false
    },
    {
      "hash": "0x6d61e906950456327f42737009a1d7362200b600f0399f1ecf1829226a331dbc",
      "transactionType": "CALL",
      "contractName": null,
      "contractAddress": "0xe7dab1389f7abdc16044f61cedfcc5086012e0b4",
      "function": null,
      "arguments": null,
      "transaction": {
        "from": "0x94cf685cc5d26828e2ca4c9c571249fc9b1d16be",
        "to": "0xe7dab1389f7abdc16044f61cedfcc5086012e0b4",
        "gas": "0x6c31",
        "value": "0xb5e620f48000",
        "input": "0x",
        "nonce": "0xba",
        "chainId": "0x66eee"
      },
      "additionalContracts": [],
      "isFixedGasLimit": false
    },
    {
      "hash": "0x24276cc653458b9830c32157cfabac7145859fb4c9aea05b11344ba791f98c1c",
      "transactionType": "CALL",
      "contractName": null,
      "contractAddress": "0x495c42ea5e1f7d7eddfb458184b44fa78725faf9",
      "function": "mint(address,uint256)",
      "arguments": [
        "0xE7daB1389F7aBDc16044F61CEdfcC5086012E0B4",
        "10000000"
      ],
      "transaction": {
        "from": "0x94cf685cc5d26828e2ca4c9c571249fc9b1d16be",
        "to": "0x495c42ea5e1f7d7eddfb458184b44fa78725faf9",
        "gas": "0xbf11",
        "value": "0x0",
        "input": "0x40c10f19000000000000000000000000e7dab1389f7abdc16044f61cedfcc5086012e0b40000000000000000000000000000000000000000000000000000000000989680",
        "nonce": "0xbb",
        "chainId": "0x66eee"
      },
      "additionalContracts": [],
      "isFixedGasLimit": false
    },
    {
      "hash": "0x6fb58ba58e033afdf0f7b7143855956a7663be709cd8e6e6103e9ff3bef66e6e",
      "transactionType": "CALL",
      "contractName": null,
      "contractAddress": "0x495c42ea5e1f7d7eddfb458184b44fa78725faf9",
      "function": "approve(address,uint256)",
      "arguments": [
        "0x7Ced52a4c54F2a6269808BED1d4cC0096af52063",
        "115792089237316195423570985008687907853269984665640564039457584007913129639935"
      ],
      "transaction": {
        "from": "0x335c3009548f4a392e72b7d062e13fb27338a47a",
        "to": "0x495c42ea5e1f7d7eddfb458184b44fa78725faf9",
        "gas": "0xf2dd",
        "value": "0x0",
        "input": "0x095ea7b30000000000000000000000007ced52a4c54f2a6269808bed1d4cc0096af52063ffffffffffffffffffffffffffffffffffffffffffffffffffffffffffffffff",
        "nonce": "0xa",
        "chainId": "0x66eee"
      },
      "additionalContracts": [],
      "isFixedGasLimit": false
    },
    {
      "hash": "0xa066f4f8d9caa1f1f52b31d1d35054fc94c4fbca5375ac1476ae7a60ce6941da",
      "transactionType": "CALL",
      "contractName": null,
      "contractAddress": "0x7ced52a4c54f2a6269808bed1d4cc0096af52063",
      "function": "buyTicket(uint8)",
      "arguments": [
        "1"
      ],
      "transaction": {
        "from": "0x335c3009548f4a392e72b7d062e13fb27338a47a",
        "to": "0x7ced52a4c54f2a6269808bed1d4cc0096af52063",
        "gas": "0x60bda",
        "value": "0x0",
        "input": "0x023697f00000000000000000000000000000000000000000000000000000000000000001",
        "nonce": "0xb",
        "chainId": "0x66eee"
      },
      "additionalContracts": [],
      "isFixedGasLimit": false
    },
    {
      "hash": "0x063ca27eee0f6246111653b27c7a9cfe8a94fff0295994c672570fb829dd1f4f",
      "transactionType": "CALL",
      "contractName": null,
      "contractAddress": "0x495c42ea5e1f7d7eddfb458184b44fa78725faf9",
      "function": "approve(address,uint256)",
      "arguments": [
        "0x7Ced52a4c54F2a6269808BED1d4cC0096af52063",
        "115792089237316195423570985008687907853269984665640564039457584007913129639935"
      ],
      "transaction": {
        "from": "0x783c89d1f3b8707ad191c4b86dd44e901b4f6de9",
        "to": "0x495c42ea5e1f7d7eddfb458184b44fa78725faf9",
        "gas": "0xf2dd",
        "value": "0x0",
        "input": "0x095ea7b30000000000000000000000007ced52a4c54f2a6269808bed1d4cc0096af52063ffffffffffffffffffffffffffffffffffffffffffffffffffffffffffffffff",
        "nonce": "0xa",
        "chainId": "0x66eee"
      },
      "additionalContracts": [],
      "isFixedGasLimit": false
    },
    {
      "hash": "0xf54d4d85f379427769622af2e5aa72c1241df6a6952ff6d374a2c66d62d3a5c7",
      "transactionType": "CALL",
      "contractName": null,
      "contractAddress": "0x7ced52a4c54f2a6269808bed1d4cc0096af52063",
      "function": "buyTicket(uint8)",
      "arguments": [
        "1"
      ],
      "transaction": {
        "from": "0x783c89d1f3b8707ad191c4b86dd44e901b4f6de9",
        "to": "0x7ced52a4c54f2a6269808bed1d4cc0096af52063",
        "gas": "0x46e75",
        "value": "0x0",
        "input": "0x023697f00000000000000000000000000000000000000000000000000000000000000001",
        "nonce": "0xb",
        "chainId": "0x66eee"
      },
      "additionalContracts": [],
      "isFixedGasLimit": false
    },
    {
      "hash": "0xc16efa5b2aa4ce41cbb438a7758d93d0b70542a2ff9cc6c58ea6721cef49a6af",
      "transactionType": "CALL",
      "contractName": null,
      "contractAddress": "0x495c42ea5e1f7d7eddfb458184b44fa78725faf9",
      "function": "approve(address,uint256)",
      "arguments": [
        "0x7Ced52a4c54F2a6269808BED1d4cC0096af52063",
        "115792089237316195423570985008687907853269984665640564039457584007913129639935"
      ],
      "transaction": {
        "from": "0xdf0777621ba83142ddd349eeae122f132f41b61b",
        "to": "0x495c42ea5e1f7d7eddfb458184b44fa78725faf9",
        "gas": "0xf2dd",
        "value": "0x0",
        "input": "0x095ea7b30000000000000000000000007ced52a4c54f2a6269808bed1d4cc0096af52063ffffffffffffffffffffffffffffffffffffffffffffffffffffffffffffffff",
        "nonce": "0xa",
        "chainId": "0x66eee"
      },
      "additionalContracts": [],
      "isFixedGasLimit": false
    },
    {
      "hash": "0x4f2d3d6fd71a7d28d7912b01b4dddfd3a831d46472f923217d29483dc3db83de",
      "transactionType": "CALL",
      "contractName": null,
      "contractAddress": "0x7ced52a4c54f2a6269808bed1d4cc0096af52063",
      "function": "buyTicket(uint8)",
      "arguments": [
        "0"
      ],
      "transaction": {
        "from": "0xdf0777621ba83142ddd349eeae122f132f41b61b",
        "to": "0x7ced52a4c54f2a6269808bed1d4cc0096af52063",
        "gas": "0x3c3ee",
        "value": "0x0",
        "input": "0x023697f00000000000000000000000000000000000000000000000000000000000000000",
        "nonce": "0xb",
        "chainId": "0x66eee"
      },
      "additionalContracts": [],
      "isFixedGasLimit": false
    },
    {
      "hash": "0x1fc3686db0d743e62490a63e77d6adc8777e11314328b91e7ce3ef84d9d9af3b",
      "transactionType": "CALL",
      "contractName": null,
      "contractAddress": "0x495c42ea5e1f7d7eddfb458184b44fa78725faf9",
      "function": "approve(address,uint256)",
      "arguments": [
        "0x7Ced52a4c54F2a6269808BED1d4cC0096af52063",
        "115792089237316195423570985008687907853269984665640564039457584007913129639935"
      ],
      "transaction": {
        "from": "0xf1c8194d42f50c64685604fea60f23ade0ffba76",
        "to": "0x495c42ea5e1f7d7eddfb458184b44fa78725faf9",
        "gas": "0xf2dd",
        "value": "0x0",
        "input": "0x095ea7b30000000000000000000000007ced52a4c54f2a6269808bed1d4cc0096af52063ffffffffffffffffffffffffffffffffffffffffffffffffffffffffffffffff",
        "nonce": "0xa",
        "chainId": "0x66eee"
      },
      "additionalContracts": [],
      "isFixedGasLimit": false
    },
    {
      "hash": "0x41c16d83dc03dadbda1c6950af4c95fb521a97b9fe8f49535db4c3ddb6c76747",
      "transactionType": "CALL",
      "contractName": null,
      "contractAddress": "0x7ced52a4c54f2a6269808bed1d4cc0096af52063",
      "function": "buyTicket(uint8)",
      "arguments": [
        "0"
      ],
      "transaction": {
        "from": "0xf1c8194d42f50c64685604fea60f23ade0ffba76",
        "to": "0x7ced52a4c54f2a6269808bed1d4cc0096af52063",
        "gas": "0x3c3ee",
        "value": "0x0",
        "input": "0x023697f00000000000000000000000000000000000000000000000000000000000000000",
        "nonce": "0xb",
        "chainId": "0x66eee"
      },
      "additionalContracts": [],
      "isFixedGasLimit": false
    },
    {
      "hash": "0x618a15eaa4534daf090e578a1d89a2640b24d51eefce4e439bfe4aa265072076",
      "transactionType": "CALL",
      "contractName": null,
      "contractAddress": "0x495c42ea5e1f7d7eddfb458184b44fa78725faf9",
      "function": "approve(address,uint256)",
      "arguments": [
        "0x7Ced52a4c54F2a6269808BED1d4cC0096af52063",
        "115792089237316195423570985008687907853269984665640564039457584007913129639935"
      ],
      "transaction": {
        "from": "0xb1138094397f7f3ef1200c123e1539c6a5ad1738",
        "to": "0x495c42ea5e1f7d7eddfb458184b44fa78725faf9",
        "gas": "0xf2dd",
        "value": "0x0",
        "input": "0x095ea7b30000000000000000000000007ced52a4c54f2a6269808bed1d4cc0096af52063ffffffffffffffffffffffffffffffffffffffffffffffffffffffffffffffff",
        "nonce": "0xa",
        "chainId": "0x66eee"
      },
      "additionalContracts": [],
      "isFixedGasLimit": false
    },
    {
      "hash": "0x4ccdebcf73bba56b94103288628498b0173bc834a63a2c4d5f88eacab987de2f",
      "transactionType": "CALL",
      "contractName": null,
      "contractAddress": "0x7ced52a4c54f2a6269808bed1d4cc0096af52063",
      "function": "buyTicket(uint8)",
      "arguments": [
        "0"
      ],
      "transaction": {
        "from": "0xb1138094397f7f3ef1200c123e1539c6a5ad1738",
        "to": "0x7ced52a4c54f2a6269808bed1d4cc0096af52063",
        "gas": "0x3c3ee",
        "value": "0x0",
        "input": "0x023697f00000000000000000000000000000000000000000000000000000000000000000",
        "nonce": "0xb",
        "chainId": "0x66eee"
      },
      "additionalContracts": [],
      "isFixedGasLimit": false
    },
    {
      "hash": "0x6594777127658a96a7fd6020dac06676ea72720add7864e0dddfdecffc0ef4cb",
      "transactionType": "CALL",
      "contractName": null,
      "contractAddress": "0x495c42ea5e1f7d7eddfb458184b44fa78725faf9",
      "function": "approve(address,uint256)",
      "arguments": [
        "0x7Ced52a4c54F2a6269808BED1d4cC0096af52063",
        "115792089237316195423570985008687907853269984665640564039457584007913129639935"
      ],
      "transaction": {
        "from": "0xe7dab1389f7abdc16044f61cedfcc5086012e0b4",
        "to": "0x495c42ea5e1f7d7eddfb458184b44fa78725faf9",
        "gas": "0xf2dd",
        "value": "0x0",
        "input": "0x095ea7b30000000000000000000000007ced52a4c54f2a6269808bed1d4cc0096af52063ffffffffffffffffffffffffffffffffffffffffffffffffffffffffffffffff",
        "nonce": "0xa",
        "chainId": "0x66eee"
      },
      "additionalContracts": [],
      "isFixedGasLimit": false
    },
    {
      "hash": "0x3ecd7e1b84eecb3a61a897c76ec21b9cfc0efefd8289f95eee9cfd4e6249b543",
      "transactionType": "CALL",
      "contractName": null,
      "contractAddress": "0x7ced52a4c54f2a6269808bed1d4cc0096af52063",
      "function": "buyTicket(uint8)",
      "arguments": [
        "0"
      ],
      "transaction": {
        "from": "0xe7dab1389f7abdc16044f61cedfcc5086012e0b4",
        "to": "0x7ced52a4c54f2a6269808bed1d4cc0096af52063",
        "gas": "0x3c3ee",
        "value": "0x0",
        "input": "0x023697f00000000000000000000000000000000000000000000000000000000000000000",
        "nonce": "0xb",
        "chainId": "0x66eee"
      },
      "additionalContracts": [],
      "isFixedGasLimit": false
    }
  ],
  "receipts": [
    {
      "status": "0x1",
      "cumulativeGasUsed": "0x89a0b",
      "logs": [],
      "logsBloom": "0x00000000000000000000000000000000000000000000000000000000000000000000000000000000000000000000000000000000000000000000000000000000000000000000000000000000000000000000000000000000000000000000000000000000000000000000000000000000000000000000000000000000000000000000000000000000000000000000000000000000000000000000000000000000000000000000000000000000000000000000000000000000000000000000000000000000000000000000000000000000000000000000000000000000000000000000000000000000000000000000000000000000000000000000000000000000",
      "type": "0x2",
      "transactionHash": "0xc2089e4bb1b4f39a6754642c7bf7a3c847c1dd24b2ebaf4cf4654e7b6e955984",
      "transactionIndex": "0x5",
      "blockHash": "0xba9cde4026d330808922a79be4a8fe39beb3ce8eb4402b4f1d263b01b0eb3ead",
      "blockNumber": "0xb273345",
      "gasUsed": "0x5272",
      "effectiveGasPrice": "0x5f5e100",
      "from": "0x94cf685cc5d26828e2ca4c9c571249fc9b1d16be",
      "to": "0x335c3009548f4a392e72b7d062e13fb27338a47a",
      "contractAddress": null,
      "gasUsedForL1": "0x6a",
      "l1BlockNumber": "0x8a1f27",
      "timeboosted": false
    },
    {
      "status": "0x1",
      "cumulativeGasUsed": "0xa8ba0",
      "logs": [
        {
          "address": "0x495c42ea5e1f7d7eddfb458184b44fa78725faf9",
          "topics": [
            "0xddf252ad1be2c89b69c2b068fc378daa952ba7f163c4a11628f55a4df523b3ef",
            "0x0000000000000000000000000000000000000000000000000000000000000000",
            "0x000000000000000000000000335c3009548f4a392e72b7d062e13fb27338a47a"
          ],
          "data": "0x0000000000000000000000000000000000000000000000000000000000989680",
          "blockHash": "0x1e2fbb7c4966cebb5da12843cd536b7d302697afa5c91c2af9e33c11f0786f89",
          "blockNumber": "0xb27334c",
          "transactionHash": "0x01cfc7ea0fd5e2e9da66f1f26ef835c71c26118716a68df83970036293937800",
          "transactionIndex": "0x4",
          "logIndex": "0x6",
          "removed": false
        }
      ],
      "logsBloom": "0x01000000000000000000000000000000000080000000000000000000000000000000000000000000000000000000000000000000000000000000000002000000000000000000000000000008000000000000000000000000000000000000000000000000020000000000000000000800000000000000000000000010000000000000000000000000000000000000000000000000000000000000000000000000000000000000000000000000000000000000000000000000000000000000000000000002000000000000000000000000000000000000090000000000000020000000000000000000000000000000000000000000000000000000020000000000",
      "type": "0x2",
      "transactionHash": "0x01cfc7ea0fd5e2e9da66f1f26ef835c71c26118716a68df83970036293937800",
      "transactionIndex": "0x4",
      "blockHash": "0x1e2fbb7c4966cebb5da12843cd536b7d302697afa5c91c2af9e33c11f0786f89",
      "blockNumber": "0xb27334c",
      "gasUsed": "0x9165",
      "effectiveGasPrice": "0x5f5e100",
      "from": "0x94cf685cc5d26828e2ca4c9c571249fc9b1d16be",
      "to": "0x495c42ea5e1f7d7eddfb458184b44fa78725faf9",
      "contractAddress": null,
      "gasUsedForL1": "0xa2",
      "l1BlockNumber": "0x8a1f29",
      "timeboosted": false
    },
    {
      "status": "0x1",
      "cumulativeGasUsed": "0xabeef",
      "logs": [],
      "logsBloom": "0x00000000000000000000000000000000000000000000000000000000000000000000000000000000000000000000000000000000000000000000000000000000000000000000000000000000000000000000000000000000000000000000000000000000000000000000000000000000000000000000000000000000000000000000000000000000000000000000000000000000000000000000000000000000000000000000000000000000000000000000000000000000000000000000000000000000000000000000000000000000000000000000000000000000000000000000000000000000000000000000000000000000000000000000000000000000",
      "type": "0x2",
      "transactionHash": "0x04d7b2018d91e0819cdf661e1e12be9cd10ae975533c8e9b6d09624626c31e95",
      "transactionIndex": "0x4",
      "blockHash": "0xde01d82e2483086f2f1d01a4fcc731133ca7b6b57c39c0e16764a81c7d36afcf",
      "blockNumber": "0xb273354",
      "gasUsed": "0x5272",
      "effectiveGasPrice": "0x5f5e100",
      "from": "0x94cf685cc5d26828e2ca4c9c571249fc9b1d16be",
      "to": "0x783c89d1f3b8707ad191c4b86dd44e901b4f6de9",
      "contractAddress": null,
      "gasUsedForL1": "0x6a",
      "l1BlockNumber": "0x8a1f29",
      "timeboosted": false
    },
    {
      "status": "0x1",
      "cumulativeGasUsed": "0x86a90",
      "logs": [
        {
          "address": "0x495c42ea5e1f7d7eddfb458184b44fa78725faf9",
          "topics": [
            "0xddf252ad1be2c89b69c2b068fc378daa952ba7f163c4a11628f55a4df523b3ef",
            "0x0000000000000000000000000000000000000000000000000000000000000000",
            "0x000000000000000000000000783c89d1f3b8707ad191c4b86dd44e901b4f6de9"
          ],
          "data": "0x0000000000000000000000000000000000000000000000000000000000989680",
          "blockHash": "0x2643ff0f29a81749c5f6cacd0259c3bf3e1e154960afb6c3eca3f504e053f3c5",
          "blockNumber": "0xb27335b",
          "transactionHash": "0x79d3f3b602ff57324451db9710b540f791c00f1abb0340cbf0ca45e1ad41f275",
          "transactionIndex": "0x6",
          "logIndex": "0xa",
          "removed": false
        }
      ],
      "logsBloom": "0x00000000000000000000001000000000000000000000000000000000000000000000000000000000000000000000000000000000000000000000000002000000000000000000000000000008000000000000000000000000000000000000000000000000020000000000000000000800000000000000000000000010000000000000000000000000004000000000000000000000000000000000000000000000000000000000000000000000000000000000000000000000000000000000010000000002000000000000000000000000000000000000080000000000000020000000000000000000000000000000000000000000000000000000020000000000",
      "type": "0x2",
      "transactionHash": "0x79d3f3b602ff57324451db9710b540f791c00f1abb0340cbf0ca45e1ad41f275",
      "transactionIndex": "0x6",
      "blockHash": "0x2643ff0f29a81749c5f6cacd0259c3bf3e1e154960afb6c3eca3f504e053f3c5",
      "blockNumber": "0xb27335b",
      "gasUsed": "0x9165",
      "effectiveGasPrice": "0x5f5e100",
      "from": "0x94cf685cc5d26828e2ca4c9c571249fc9b1d16be",
      "to": "0x495c42ea5e1f7d7eddfb458184b44fa78725faf9",
      "contractAddress": null,
      "gasUsedForL1": "0xa2",
      "l1BlockNumber": "0x8a1f29",
      "timeboosted": false
    },
    {
      "status": "0x1",
      "cumulativeGasUsed": "0x285aa",
      "logs": [],
      "logsBloom": "0x00000000000000000000000000000000000000000000000000000000000000000000000000000000000000000000000000000000000000000000000000000000000000000000000000000000000000000000000000000000000000000000000000000000000000000000000000000000000000000000000000000000000000000000000000000000000000000000000000000000000000000000000000000000000000000000000000000000000000000000000000000000000000000000000000000000000000000000000000000000000000000000000000000000000000000000000000000000000000000000000000000000000000000000000000000000",
      "type": "0x2",
      "transactionHash": "0x7acaa9f8d8f357cb332d5daaf9afcfe63e82e7266b0f73cf0ff0c59b35c25cb3",
      "transactionIndex": "0x2",
      "blockHash": "0x0e668270eef78b894ce620f40c290a2d964515eccd5db1560204508efa9180ee",
      "blockNumber": "0xb273364",
      "gasUsed": "0x5272",
      "effectiveGasPrice": "0x5f5e100",
      "from": "0x94cf685cc5d26828e2ca4c9c571249fc9b1d16be",
      "to": "0xdf0777621ba83142ddd349eeae122f132f41b61b",
      "contractAddress": null,
      "gasUsedForL1": "0x6a",
      "l1BlockNumber": "0x8a1f29",
      "timeboosted": false
    },
    {
      "status": "0x1",
      "cumulativeGasUsed": "0x38b86",
      "logs": [
        {
          "address": "0x495c42ea5e1f7d7eddfb458184b44fa78725faf9",
          "topics": [
            "0xddf252ad1be2c89b69c2b068fc378daa952ba7f163c4a11628f55a4df523b3ef",
            "0x0000000000000000000000000000000000000000000000000000000000000000",
            "0x000000000000000000000000df0777621ba83142ddd349eeae122f132f41b61b"
          ],
          "data": "0x0000000000000000000000000000000000000000000000000000000000989680",
          "blockHash": "0x3b67b657cc8f65bf5abbc173f44c3b16e41c2716ed92dafadb0380093231627b",
          "blockNumber": "0xb27336b",
          "transactionHash": "0x93960089be96e9d9ef7568e01fff1faf00bd5367a681ada00fc37a990333934e",
          "transactionIndex": "0x2",
          "logIndex": "0x3",
          "removed": false
        }
      ],
      "logsBloom": "0x00000000000000000000000000080000000000000000000000000000000000000000000000000000000000000000000000200000000000000000000002000000000000000000000000000088000000000000000000000000000000000000000000000000020000000000000000000800000000000000000000000010000000000000000000000000000000000000000000000000000000000000000000000000000000000000000000000000000000000000000000000000000000000000000000000002000000000000000000000000000000000000080000000000000020000000000000000000000000000000000000000000000000000000020000000000",
      "type": "0x2",
      "transactionHash": "0x93960089be96e9d9ef7568e01fff1faf00bd5367a681ada00fc37a990333934e",
      "transactionIndex": "0x2",
      "blockHash": "0x3b67b657cc8f65bf5abbc173f44c3b16e41c2716ed92dafadb0380093231627b",
      "blockNumber": "0xb27336b",
      "gasUsed": "0x9165",
      "effectiveGasPrice": "0x5f5e100",
      "from": "0x94cf685cc5d26828e2ca4c9c571249fc9b1d16be",
      "to": "0x495c42ea5e1f7d7eddfb458184b44fa78725faf9",
      "contractAddress": null,
      "gasUsedForL1": "0xa2",
      "l1BlockNumber": "0x8a1f29",
      "timeboosted": false
    },
    {
      "status": "0x1",
      "cumulativeGasUsed": "0x2ea61",
      "logs": [],
      "logsBloom": "0x00000000000000000000000000000000000000000000000000000000000000000000000000000000000000000000000000000000000000000000000000000000000000000000000000000000000000000000000000000000000000000000000000000000000000000000000000000000000000000000000000000000000000000000000000000000000000000000000000000000000000000000000000000000000000000000000000000000000000000000000000000000000000000000000000000000000000000000000000000000000000000000000000000000000000000000000000000000000000000000000000000000000000000000000000000000",
      "type": "0x2",
      "transactionHash": "0x25bdfbc3d3c6807b86ac36d34eb245f25bc3a916ce8f6e1dd031f52b027e4baa",
      "transactionIndex": "0x2",
      "blockHash": "0x7687b51e0f26c2ca9a6efcac5473e81dbe9a4d8cfcdb4bdca236efcd0cf72929",
      "blockNumber": "0xb273373",
      "gasUsed": "0x5272",
      "effectiveGasPrice": "0x5f5e100",
      "from": "0x94cf685cc5d26828e2ca4c9c571249fc9b1d16be",
      "to": "0xf1c8194d42f50c64685604fea60f23ade0ffba76",
      "contractAddress": null,
      "gasUsedForL1": "0x6a",
      "l1BlockNumber": "0x8a1f29",
      "timeboosted": false
    },
    {
      "status": "0x1",
      "cumulativeGasUsed": "0x9165",
      "logs": [
        {
          "address": "0x495c42ea5e1f7d7eddfb458184b44fa78725faf9",
          "topics": [
            "0xddf252ad1be2c89b69c2b068fc378daa952ba7f163c4a11628f55a4df523b3ef",
            "0x0000000000000000000000000000000000000000000000000000000000000000",
            "0x000000000000000000000000f1c8194d42f50c64685604fea60f23ade0ffba76"
          ],
          "data": "0x0000000000000000000000000000000000000000000000000000000000989680",
          "blockHash": "0x0e95c017002f464409a9ad4b49c2d5f8e2bf9e1c2c5e95c703e62647a3c69a1c",
          "blockNumber": "0xb27337a",
          "transactionHash": "0x313969e747519cb2f6774bc1ea9dc490d0bcfae0e52b023bc251cf6de6ebb299",
          "transactionIndex": "0x1",
          "logIndex": "0x0",
          "removed": false
        }
      ],
      "logsBloom": "0x00000000000000000000000000000000000000000000000000000000000000000000000000000000000000000000000000000000000000000001000002000000000000000000000000000008000000020000000000000000000000000000000040000000020000000000000000000800000000000000000000000010000000000000000000000000000000000000000000000000000000000000000000000000000000000000000000000000000000000000000000000000000000000000000000000002000000000000000000000000000000000000080000000000000020000000000000000000000000000000000000000000000000000000020000000000",
      "type": "0x2",
      "transactionHash": "0x313969e747519cb2f6774bc1ea9dc490d0bcfae0e52b023bc251cf6de6ebb299",
      "transactionIndex": "0x1",
      "blockHash": "0x0e95c017002f464409a9ad4b49c2d5f8e2bf9e1c2c5e95c703e62647a3c69a1c",
      "blockNumber": "0xb27337a",
      "gasUsed": "0x9165",
      "effectiveGasPrice": "0x5f5e100",
      "from": "0x94cf685cc5d26828e2ca4c9c571249fc9b1d16be",
      "to": "0x495c42ea5e1f7d7eddfb458184b44fa78725faf9",
      "contractAddress": null,
      "gasUsedForL1": "0xa2",
      "l1BlockNumber": "0x8a1f29",
      "timeboosted": false
    },
    {
      "status": "0x1",
      "cumulativeGasUsed": "0x31dae",
      "logs": [],
      "logsBloom": "0x00000000000000000000000000000000000000000000000000000000000000000000000000000000000000000000000000000000000000000000000000000000000000000000000000000000000000000000000000000000000000000000000000000000000000000000000000000000000000000000000000000000000000000000000000000000000000000000000000000000000000000000000000000000000000000000000000000000000000000000000000000000000000000000000000000000000000000000000000000000000000000000000000000000000000000000000000000000000000000000000000000000000000000000000000000000",
      "type": "0x2",
      "transactionHash": "0x6874a976d5bdc52b94b470fe8ef32fa538299dd5e2d4889299c98af44e255d52",
      "transactionIndex": "0x3",
      "blockHash": "0x595b763b2b0d9f530396548d62de5c52ac9fb3b2d4e661a9709d751fb8ecef13",
      "blockNumber": "0xb273381",
      "gasUsed": "0x5272",
      "effectiveGasPrice": "0x5f5e100",
      "from": "0x94cf685cc5d26828e2ca4c9c571249fc9b1d16be",
      "to": "0xb1138094397f7f3ef1200c123e1539c6a5ad1738",
      "contractAddress": null,
      "gasUsedForL1": "0x6a",
      "l1BlockNumber": "0x8a1f29",
      "timeboosted": false
    },
    {
      "status": "0x1",
      "cumulativeGasUsed": "0x466ec",
      "logs": [
        {
          "address": "0x495c42ea5e1f7d7eddfb458184b44fa78725faf9",
          "topics": [
            "0xddf252ad1be2c89b69c2b068fc378daa952ba7f163c4a11628f55a4df523b3ef",
            "0x0000000000000000000000000000000000000000000000000000000000000000",
            "0x000000000000000000000000b1138094397f7f3ef1200c123e1539c6a5ad1738"
          ],
          "data": "0x0000000000000000000000000000000000000000000000000000000000989680",
          "blockHash": "0x7f81944b92ae71d1a957852897c32df307fb0dd3b4ff13fd1a035ee5a2bbdc07",
          "blockNumber": "0xb273388",
          "transactionHash": "0x592d1b1ea9c8a293323c759c471af9cc5f874e8b9d2fe59425a1f58b91bb58b2",
          "transactionIndex": "0x4",
          "logIndex": "0x5",
          "removed": false
        }
      ],
      "logsBloom": "0x00000000000000000000000000000000000000000000000000000000000000000000000000000000000000000000000000000000000000000000000002000000000000000000000000000008000000000000000000000000200000000000000000000000020000000000000000000800000000000000000000000010000000000000000000000000000000000000000000000008000000000000000000000000000000000000000000000000000001000000000000000000000000000000000000000002000000000000000000000000000000000000080000000000000020000000000000000000000000000000000000000000000000000000020000000000",
      "type": "0x2",
      "transactionHash": "0x592d1b1ea9c8a293323c759c471af9cc5f874e8b9d2fe59425a1f58b91bb58b2",
      "transactionIndex": "0x4",
      "blockHash": "0x7f81944b92ae71d1a957852897c32df307fb0dd3b4ff13fd1a035ee5a2bbdc07",
      "blockNumber": "0xb273388",
      "gasUsed": "0x9165",
      "effectiveGasPrice": "0x5f5e100",
      "from": "0x94cf685cc5d26828e2ca4c9c571249fc9b1d16be",
      "to": "0x495c42ea5e1f7d7eddfb458184b44fa78725faf9",
      "contractAddress": null,
      "gasUsedForL1": "0xa2",
      "l1BlockNumber": "0x8a1f29",
      "timeboosted": false
    },
    {
      "status": "0x1",
      "cumulativeGasUsed": "0x5c81b",
      "logs": [],
      "logsBloom": "0x00000000000000000000000000000000000000000000000000000000000000000000000000000000000000000000000000000000000000000000000000000000000000000000000000000000000000000000000000000000000000000000000000000000000000000000000000000000000000000000000000000000000000000000000000000000000000000000000000000000000000000000000000000000000000000000000000000000000000000000000000000000000000000000000000000000000000000000000000000000000000000000000000000000000000000000000000000000000000000000000000000000000000000000000000000000",
      "type": "0x2",
      "transactionHash": "0x6d61e906950456327f42737009a1d7362200b600f0399f1ecf1829226a331dbc",
      "transactionIndex": "0x3",
      "blockHash": "0xeb6ed079afb1fb04b352f6c3b99bad05e3497a5ed8e70664ddd0ff74827c54ca",
      "blockNumber": "0xb273393",
      "gasUsed": "0x5272",
      "effectiveGasPrice": "0x5f5e100",
      "from": "0x94cf685cc5d26828e2ca4c9c571249fc9b1d16be",
      "to": "0xe7dab1389f7abdc16044f61cedfcc5086012e0b4",
      "contractAddress": null,
      "gasUsedForL1": "0x6a",
      "l1BlockNumber": "0x8a1f29",
      "timeboosted": false
    },
    {
      "status": "0x1",
      "cumulativeGasUsed": "0xd4644",
      "logs": [
        {
          "address": "0x495c42ea5e1f7d7eddfb458184b44fa78725faf9",
          "topics": [
            "0xddf252ad1be2c89b69c2b068fc378daa952ba7f163c4a11628f55a4df523b3ef",
            "0x0000000000000000000000000000000000000000000000000000000000000000",
            "0x000000000000000000000000e7dab1389f7abdc16044f61cedfcc5086012e0b4"
          ],
          "data": "0x0000000000000000000000000000000000000000000000000000000000989680",
          "blockHash": "0x6d5819b9ae015a64fa0db3138a98faa18a2db324fa0071734d8fb083d16cb58c",
          "blockNumber": "0xb27339b",
          "transactionHash": "0x24276cc653458b9830c32157cfabac7145859fb4c9aea05b11344ba791f98c1c",
          "transactionIndex": "0x3",
          "logIndex": "0x3",
          "removed": false
        }
      ],
      "logsBloom": "0x00000000000000000000000000000000000000000000000000000000000000000000000000000000000000000000000000000000000000000000000002000000000000000000000000000008000000000000008000000000000000000000000000040000020000000000000000000800000000000000000000000010000000000000004000000000000000000000000000000000000000000000000000000000000000000000000000000000000000000000000000000000000000000000000000000002000000000000000000000000000000000000080000000000000020000000000000000000000000000000000000000000000000000000020000000000",
      "type": "0x2",
      "transactionHash": "0x24276cc653458b9830c32157cfabac7145859fb4c9aea05b11344ba791f98c1c",
      "transactionIndex": "0x3",
      "blockHash": "0x6d5819b9ae015a64fa0db3138a98faa18a2db324fa0071734d8fb083d16cb58c",
      "blockNumber": "0xb27339b",
      "gasUsed": "0x9165",
      "effectiveGasPrice": "0x5f5e100",
      "from": "0x94cf685cc5d26828e2ca4c9c571249fc9b1d16be",
      "to": "0x495c42ea5e1f7d7eddfb458184b44fa78725faf9",
      "contractAddress": null,
      "gasUsedForL1": "0xa2",
      "l1BlockNumber": "0x8a1f29",
      "timeboosted": false
    },
    {
      "status": "0x1",
      "cumulativeGasUsed": "0x95b60",
      "logs": [
        {
          "address": "0x495c42ea5e1f7d7eddfb458184b44fa78725faf9",
          "topics": [
            "0x8c5be1e5ebec7d5bd14f71427d1e84f3dd0314c0f7b2291e5b200ac8c7c3b925",
            "0x000000000000000000000000335c3009548f4a392e72b7d062e13fb27338a47a",
            "0x0000000000000000000000007ced52a4c54f2a6269808bed1d4cc0096af52063"
          ],
          "data": "0xffffffffffffffffffffffffffffffffffffffffffffffffffffffffffffffff",
          "blockHash": "0x23acab8bb5d56b3317465ff39aa579ef0b63de07a6acba087567e5a8b443a57d",
          "blockNumber": "0xb2733a5",
          "transactionHash": "0x6fb58ba58e033afdf0f7b7143855956a7663be709cd8e6e6103e9ff3bef66e6e",
          "transactionIndex": "0x3",
          "logIndex": "0x2",
          "removed": false
        }
      ],
      "logsBloom": "0x01000000000000000000000000000000002080000000000000000000000000000000000000000000000000000000000000000000000000000000000002200000000000000000000000000000000000000000000000000000000000000000000000000000000000000000040000000000000000000000000000000000000000000000000000000000000000000000000000000000000000000000000000000000020000000100000000000000000000000000000000000000000000000000000000000000000000000000000000000000000000000000090000000000000000000010000000000000000000000000000000000000000000000000020000000000",
      "type": "0x2",
      "transactionHash": "0x6fb58ba58e033afdf0f7b7143855956a7663be709cd8e6e6103e9ff3bef66e6e",
      "transactionIndex": "0x3",
      "blockHash": "0x23acab8bb5d56b3317465ff39aa579ef0b63de07a6acba087567e5a8b443a57d",
      "blockNumber": "0xb2733a5",
      "gasUsed": "0xb92a",
      "effectiveGasPrice": "0x5f5e100",
      "from": "0x335c3009548f4a392e72b7d062e13fb27338a47a",
      "to": "0x495c42ea5e1f7d7eddfb458184b44fa78725faf9",
      "contractAddress": null,
      "gasUsedForL1": "0xa2",
      "l1BlockNumber": "0x8a1f29",
      "timeboosted": false
    },
    {
      "status": "0x1",
      "cumulativeGasUsed": "0x51925",
      "logs": [
        {
          "address": "0x7ced52a4c54f2a6269808bed1d4cc0096af52063",
          "topics": [
            "0xfd0a74cd9439908a3aecc74e2d38c760ae56b4df3da24c9723da70b461d3a35d",
            "0x0000000000000000000000000000000000000000000000000000000000077166",
            "0x000000000000000000000000335c3009548f4a392e72b7d062e13fb27338a47a"
          ],
          "data": "0x00000000000000000000000000000000000000000000000000000000000000010000000000000000000000000000000000000000000000000000000000000064",
          "blockHash": "0xc9bd702f587034ac0921bec0e00d27675b1c2a2388d0663928c5bbe885b2f119",
          "blockNumber": "0xb2733b1",
          "transactionHash": "0xa066f4f8d9caa1f1f52b31d1d35054fc94c4fbca5375ac1476ae7a60ce6941da",
          "transactionIndex": "0x2",
          "logIndex": "0x1",
          "removed": false
        },
        {
          "address": "0x495c42ea5e1f7d7eddfb458184b44fa78725faf9",
          "topics": [
            "0xddf252ad1be2c89b69c2b068fc378daa952ba7f163c4a11628f55a4df523b3ef",
            "0x000000000000000000000000335c3009548f4a392e72b7d062e13fb27338a47a",
            "0x0000000000000000000000007ced52a4c54f2a6269808bed1d4cc0096af52063"
          ],
          "data": "0x0000000000000000000000000000000000000000000000000000000001c9c380",
          "blockHash": "0xc9bd702f587034ac0921bec0e00d27675b1c2a2388d0663928c5bbe885b2f119",
          "blockNumber": "0xb2733b1",
          "transactionHash": "0xa066f4f8d9caa1f1f52b31d1d35054fc94c4fbca5375ac1476ae7a60ce6941da",
          "transactionIndex": "0x2",
          "logIndex": "0x2",
          "removed": false
        }
      ],
      "logsBloom": "0x01000000000000000000000000000000002080000000000000000000000000010000000000000000000004002010000000000000000000000000000002000000000000000000000000000008000000000000000000000000000000000000000000000000000000000000040000000000000000800000000000000010000000000000000000000000000000000000000000000000000000000000000000000000000000000100000000000000000000000000000000000000000000000000000000000002000000040000000000000020000000000000090000000400000000000000000000000010000000000000000000000000000000000000020000000000",
      "type": "0x2",
      "transactionHash": "0xa066f4f8d9caa1f1f52b31d1d35054fc94c4fbca5375ac1476ae7a60ce6941da",
      "transactionIndex": "0x2",
      "blockHash": "0xc9bd702f587034ac0921bec0e00d27675b1c2a2388d0663928c5bbe885b2f119",
      "blockNumber": "0xb2733b1",
      "gasUsed": "0x46124",
      "effectiveGasPrice": "0x5f5e100",
      "from": "0x335c3009548f4a392e72b7d062e13fb27338a47a",
      "to": "0x7ced52a4c54f2a6269808bed1d4cc0096af52063",
      "contractAddress": null,
      "gasUsedForL1": "0x85",
      "l1BlockNumber": "0x8a1f29",
      "timeboosted": false
    },
    {
      "status": "0x1",
      "cumulativeGasUsed": "0x357b0",
      "logs": [
        {
          "address": "0x495c42ea5e1f7d7eddfb458184b44fa78725faf9",
          "topics": [
            "0x8c5be1e5ebec7d5bd14f71427d1e84f3dd0314c0f7b2291e5b200ac8c7c3b925",
            "0x000000000000000000000000783c89d1f3b8707ad191c4b86dd44e901b4f6de9",
            "0x0000000000000000000000007ced52a4c54f2a6269808bed1d4cc0096af52063"
          ],
          "data": "0xffffffffffffffffffffffffffffffffffffffffffffffffffffffffffffffff",
          "blockHash": "0xdf557b5cf36a892fe79175b04face1612dd638fe70b0b69c9a10595aabf11fd7",
          "blockNumber": "0xb2733ba",
          "transactionHash": "0x063ca27eee0f6246111653b27c7a9cfe8a94fff0295994c672570fb829dd1f4f",
          "transactionIndex": "0x3",
          "logIndex": "0x5",
          "removed": false
        }
      ],
      "logsBloom": "0x00000000000000000000001000000000002000000000000000000000000000000000000000000000000000000000000000000000000000000000000002200000000000000000000000000000000000000000000000000000000000000000000000000000000000000000040000000000000000000000000000000000000000000000000000000000004000000000000000000000000000000000000000000000020000000100000000000000000000000000000000000000000000000000010000000000000000000000000000000000000000000000080000000000000000000010000000000000000000000000000000000000000000000000020000000000",
      "type": "0x2",
      "transactionHash": "0x063ca27eee0f6246111653b27c7a9cfe8a94fff0295994c672570fb829dd1f4f",
      "transactionIndex": "0x3",
      "blockHash": "0xdf557b5cf36a892fe79175b04face1612dd638fe70b0b69c9a10595aabf11fd7",
      "blockNumber": "0xb2733ba",
      "gasUsed": "0xb92a",
      "effectiveGasPrice": "0x5f5e100",
      "from": "0x783c89d1f3b8707ad191c4b86dd44e901b4f6de9",
      "to": "0x495c42ea5e1f7d7eddfb458184b44fa78725faf9",
      "contractAddress": null,
      "gasUsedForL1": "0xa2",
      "l1BlockNumber": "0x8a1f29",
      "timeboosted": false
    },
    {
      "status": "0x1",
      "cumulativeGasUsed": "0x4f144",
      "logs": [
        {
          "address": "0x7ced52a4c54f2a6269808bed1d4cc0096af52063",
          "topics": [
            "0xfd0a74cd9439908a3aecc74e2d38c760ae56b4df3da24c9723da70b461d3a35d",
            "0x0000000000000000000000000000000000000000000000000000000000077166",
            "0x000000000000000000000000783c89d1f3b8707ad191c4b86dd44e901b4f6de9"
          ],
          "data": "0x00000000000000000000000000000000000000000000000000000000000000010000000000000000000000000000000000000000000000000000000000000064",
          "blockHash": "0x8c0536ea7236c8b5492d3adf3c66550a66e18855673e705b8bd9b03afa4c1eeb",
          "blockNumber": "0xb2733c6",
          "transactionHash": "0xf54d4d85f379427769622af2e5aa72c1241df6a6952ff6d374a2c66d62d3a5c7",
          "transactionIndex": "0x2",
          "logIndex": "0x1",
          "removed": false
        },
        {
          "address": "0x495c42ea5e1f7d7eddfb458184b44fa78725faf9",
          "topics": [
            "0xddf252ad1be2c89b69c2b068fc378daa952ba7f163c4a11628f55a4df523b3ef",
            "0x000000000000000000000000783c89d1f3b8707ad191c4b86dd44e901b4f6de9",
            "0x0000000000000000000000007ced52a4c54f2a6269808bed1d4cc0096af52063"
          ],
          "data": "0x0000000000000000000000000000000000000000000000000000000001c9c380",
          "blockHash": "0x8c0536ea7236c8b5492d3adf3c66550a66e18855673e705b8bd9b03afa4c1eeb",
          "blockNumber": "0xb2733c6",
          "transactionHash": "0xf54d4d85f379427769622af2e5aa72c1241df6a6952ff6d374a2c66d62d3a5c7",
          "transactionIndex": "0x2",
          "logIndex": "0x2",
          "removed": false
        }
      ],
      "logsBloom": "0x00000000000000000000001000000000002000000000000000000000000000010000000000000000000004002010000000000000000000000000000002000000000000000000000000000008000000000000000000000000000000000000000000000000000000000000040000000000000000800000000000000010000000000000000000000000004000000000000000000000000000000000000000000000000000000100000000000000000000000000000000000000000000000000010000000002000000040000000000000020000000000000080000000400000000000000000000000010000000000000000000000000000000000000020000000000",
      "type": "0x2",
      "transactionHash": "0xf54d4d85f379427769622af2e5aa72c1241df6a6952ff6d374a2c66d62d3a5c7",
      "transactionIndex": "0x2",
      "blockHash": "0x8c0536ea7236c8b5492d3adf3c66550a66e18855673e705b8bd9b03afa4c1eeb",
      "blockNumber": "0xb2733c6",
      "gasUsed": "0x30838",
      "effectiveGasPrice": "0x5f5e100",
      "from": "0x783c89d1f3b8707ad191c4b86dd44e901b4f6de9",
      "to": "0x7ced52a4c54f2a6269808bed1d4cc0096af52063",
      "contractAddress": null,
      "gasUsedForL1": "0x85",
      "l1BlockNumber": "0x8a1f2a",
      "timeboosted": false
    },
    {
      "status": "0x1",
      "cumulativeGasUsed": "0x1e07d",
      "logs": [
        {
          "address": "0x495c42ea5e1f7d7eddfb458184b44fa78725faf9",
          "topics": [
            "0x8c5be1e5ebec7d5bd14f71427d1e84f3dd0314c0f7b2291e5b200ac8c7c3b925",
            "0x000000000000000000000000df0777621ba83142ddd349eeae122f132f41b61b",
            "0x0000000000000000000000007ced52a4c54f2a6269808bed1d4cc0096af52063"
          ],
          "data": "0xffffffffffffffffffffffffffffffffffffffffffffffffffffffffffffffff",
          "blockHash": "0x72d403a7a4dbd8111e285bd2ab1200def1d68956b0b6ce56bd08f74c6a55f788",
          "blockNumber": "0xb2733ce",
          "transactionHash": "0xc16efa5b2aa4ce41cbb438a7758d93d0b70542a2ff9cc6c58ea6721cef49a6af",
          "transactionIndex": "0x2",
          "logIndex": "0x2",
          "removed": false
        }
      ],
      "logsBloom": "0x00000000000000000000000000080000002000000000000000000000000000000000000000000000000000000000000000200000000000000000000002200000000000000000000000000080000000000000000000000000000000000000000000000000000000000000040000000000000000000000000000000000000000000000000000000000000000000000000000000000000000000000000000000000020000000100000000000000000000000000000000000000000000000000000000000000000000000000000000000000000000000000080000000000000000000010000000000000000000000000000000000000000000000000020000000000",
      "type": "0x2",
      "transactionHash": "0xc16efa5b2aa4ce41cbb438a7758d93d0b70542a2ff9cc6c58ea6721cef49a6af",
      "transactionIndex": "0x2",
      "blockHash": "0x72d403a7a4dbd8111e285bd2ab1200def1d68956b0b6ce56bd08f74c6a55f788",
      "blockNumber": "0xb2733ce",
      "gasUsed": "0xb92a",
      "effectiveGasPrice": "0x5f5e100",
      "from": "0xdf0777621ba83142ddd349eeae122f132f41b61b",
      "to": "0x495c42ea5e1f7d7eddfb458184b44fa78725faf9",
      "contractAddress": null,
      "gasUsedForL1": "0xa2",
      "l1BlockNumber": "0x8a1f2a",
      "timeboosted": false
    },
    {
      "status": "0x1",
      "cumulativeGasUsed": "0x324a9",
      "logs": [
        {
          "address": "0x7ced52a4c54f2a6269808bed1d4cc0096af52063",
          "topics": [
            "0xfd0a74cd9439908a3aecc74e2d38c760ae56b4df3da24c9723da70b461d3a35d",
            "0x0000000000000000000000000000000000000000000000000000000000077166",
            "0x000000000000000000000000df0777621ba83142ddd349eeae122f132f41b61b"
          ],
          "data": "0x00000000000000000000000000000000000000000000000000000000000000000000000000000000000000000000000000000000000000000000000000000064",
          "blockHash": "0x2702823909e43e4d1e0c7857ce33441c679ac96adaa764f42227a05e8c6ebce0",
          "blockNumber": "0xb2733d7",
          "transactionHash": "0x4f2d3d6fd71a7d28d7912b01b4dddfd3a831d46472f923217d29483dc3db83de",
          "transactionIndex": "0x2",
          "logIndex": "0x1",
          "removed": false
        },
        {
          "address": "0x495c42ea5e1f7d7eddfb458184b44fa78725faf9",
          "topics": [
            "0xddf252ad1be2c89b69c2b068fc378daa952ba7f163c4a11628f55a4df523b3ef",
            "0x000000000000000000000000df0777621ba83142ddd349eeae122f132f41b61b",
            "0x0000000000000000000000007ced52a4c54f2a6269808bed1d4cc0096af52063"
          ],
          "data": "0x0000000000000000000000000000000000000000000000000000000000989680",
          "blockHash": "0x2702823909e43e4d1e0c7857ce33441c679ac96adaa764f42227a05e8c6ebce0",
          "blockNumber": "0xb2733d7",
          "transactionHash": "0x4f2d3d6fd71a7d28d7912b01b4dddfd3a831d46472f923217d29483dc3db83de",
          "transactionIndex": "0x2",
          "logIndex": "0x2",
          "removed": false
        }
      ],
      "logsBloom": "0x00000000000000000000000000080000002000000000000000000000000000010000000000000000000004002010000000200000000000000000000002000000000000000000000000000088000000000000000000000000000000000000000000000000000000000000040000000000000000800000000000000010000000000000000000000000000000000000000000000000000000000000000000000000000000000100000000000000000000000000000000000000000000000000000000000002000000040000000000000020000000000000080000000400000000000000000000000010000000000000000000000000000000000000020000000000",
      "type": "0x2",
      "transactionHash": "0x4f2d3d6fd71a7d28d7912b01b4dddfd3a831d46472f923217d29483dc3db83de",
      "transactionIndex": "0x2",
      "blockHash": "0x2702823909e43e4d1e0c7857ce33441c679ac96adaa764f42227a05e8c6ebce0",
      "blockNumber": "0xb2733d7",
      "gasUsed": "0x2ba64",
      "effectiveGasPrice": "0x5f5e100",
      "from": "0xdf0777621ba83142ddd349eeae122f132f41b61b",
      "to": "0x7ced52a4c54f2a6269808bed1d4cc0096af52063",
      "contractAddress": null,
      "gasUsedForL1": "0x85",
      "l1BlockNumber": "0x8a1f2a",
      "timeboosted": false
    },
    {
      "status": "0x1",
      "cumulativeGasUsed": "0x50d4a",
      "logs": [
        {
          "address": "0x495c42ea5e1f7d7eddfb458184b44fa78725faf9",
          "topics": [
            "0x8c5be1e5ebec7d5bd14f71427d1e84f3dd0314c0f7b2291e5b200ac8c7c3b925",
            "0x000000000000000000000000f1c8194d42f50c64685604fea60f23ade0ffba76",
            "0x0000000000000000000000007ced52a4c54f2a6269808bed1d4cc0096af52063"
          ],
          "data": "0xffffffffffffffffffffffffffffffffffffffffffffffffffffffffffffffff",
          "blockHash": "0x2f4ad6ba1c504b26733a11472fc5f34b6335d58a8410d6a4b2a63dcd39b2c4ad",
          "blockNumber": "0xb2733e1",
          "transactionHash": "0x1fc3686db0d743e62490a63e77d6adc8777e11314328b91e7ce3ef84d9d9af3b",
          "transactionIndex": "0x3",
          "logIndex": "0x8",
          "removed": false
        }
      ],
      "logsBloom": "0x00000000000000000000000000000000002000000000000000000000000000000000000000000000000000000000000000000000000000000001000002200000000000000000000000000000000000020000000000000000000000000000000040000000000000000000040000000000000000000000000000000000000000000000000000000000000000000000000000000000000000000000000000000000020000000100000000000000000000000000000000000000000000000000000000000000000000000000000000000000000000000000080000000000000000000010000000000000000000000000000000000000000000000000020000000000",
      "type": "0x2",
      "transactionHash": "0x1fc3686db0d743e62490a63e77d6adc8777e11314328b91e7ce3ef84d9d9af3b",
      "transactionIndex": "0x3",
      "blockHash": "0x2f4ad6ba1c504b26733a11472fc5f34b6335d58a8410d6a4b2a63dcd39b2c4ad",
      "blockNumber": "0xb2733e1",
      "gasUsed": "0xb92a",
      "effectiveGasPrice": "0x5f5e100",
      "from": "0xf1c8194d42f50c64685604fea60f23ade0ffba76",
      "to": "0x495c42ea5e1f7d7eddfb458184b44fa78725faf9",
      "contractAddress": null,
      "gasUsedForL1": "0xa2",
      "l1BlockNumber": "0x8a1f2a",
      "timeboosted": false
    },
    {
      "status": "0x1",
      "cumulativeGasUsed": "0x37286",
      "logs": [
        {
          "address": "0x7ced52a4c54f2a6269808bed1d4cc0096af52063",
          "topics": [
            "0xfd0a74cd9439908a3aecc74e2d38c760ae56b4df3da24c9723da70b461d3a35d",
            "0x0000000000000000000000000000000000000000000000000000000000077166",
            "0x000000000000000000000000f1c8194d42f50c64685604fea60f23ade0ffba76"
          ],
          "data": "0x00000000000000000000000000000000000000000000000000000000000000000000000000000000000000000000000000000000000000000000000000000064",
          "blockHash": "0x46ee322c4cbb20369ceeddf48cf794d2df8bbdcadcfe0895b1eaaa340f2d931e",
          "blockNumber": "0xb2733e9",
          "transactionHash": "0x41c16d83dc03dadbda1c6950af4c95fb521a97b9fe8f49535db4c3ddb6c76747",
          "transactionIndex": "0x2",
          "logIndex": "0x1",
          "removed": false
        },
        {
          "address": "0x495c42ea5e1f7d7eddfb458184b44fa78725faf9",
          "topics": [
            "0xddf252ad1be2c89b69c2b068fc378daa952ba7f163c4a11628f55a4df523b3ef",
            "0x000000000000000000000000f1c8194d42f50c64685604fea60f23ade0ffba76",
            "0x0000000000000000000000007ced52a4c54f2a6269808bed1d4cc0096af52063"
          ],
          "data": "0x0000000000000000000000000000000000000000000000000000000000989680",
          "blockHash": "0x46ee322c4cbb20369ceeddf48cf794d2df8bbdcadcfe0895b1eaaa340f2d931e",
          "blockNumber": "0xb2733e9",
          "transactionHash": "0x41c16d83dc03dadbda1c6950af4c95fb521a97b9fe8f49535db4c3ddb6c76747",
          "transactionIndex": "0x2",
          "logIndex": "0x2",
          "removed": false
        }
      ],
      "logsBloom": "0x00000000000000000000000000000000002000000000000000000000000000010000000000000000000004002010000000000000000000000001000002000000000000000000000000000008000000020000000000000000000000000000000040000000000000000000040000000000000000800000000000000010000000000000000000000000000000000000000000000000000000000000000000000000000000000100000000000000000000000000000000000000000000000000000000000002000000040000000000000020000000000000080000000400000000000000000000000010000000000000000000000000000000000000020000000000",
      "type": "0x2",
      "transactionHash": "0x41c16d83dc03dadbda1c6950af4c95fb521a97b9fe8f49535db4c3ddb6c76747",
      "transactionIndex": "0x2",
      "blockHash": "0x46ee322c4cbb20369ceeddf48cf794d2df8bbdcadcfe0895b1eaaa340f2d931e",
      "blockNumber": "0xb2733e9",
      "gasUsed": "0x2ba64",
      "effectiveGasPrice": "0x5f5e100",
      "from": "0xf1c8194d42f50c64685604fea60f23ade0ffba76",
      "to": "0x7ced52a4c54f2a6269808bed1d4cc0096af52063",
      "contractAddress": null,
      "gasUsedForL1": "0x85",
      "l1BlockNumber": "0x8a1f2a",
      "timeboosted": false
    },
    {
      "status": "0x1",
      "cumulativeGasUsed": "0x66e75",
      "logs": [
        {
          "address": "0x495c42ea5e1f7d7eddfb458184b44fa78725faf9",
          "topics": [
            "0x8c5be1e5ebec7d5bd14f71427d1e84f3dd0314c0f7b2291e5b200ac8c7c3b925",
            "0x000000000000000000000000b1138094397f7f3ef1200c123e1539c6a5ad1738",
            "0x0000000000000000000000007ced52a4c54f2a6269808bed1d4cc0096af52063"
          ],
          "data": "0xffffffffffffffffffffffffffffffffffffffffffffffffffffffffffffffff",
          "blockHash": "0xcab235a6ff4f9a8aadf11c9fc0c31bab1efdba6b487d7ce98fc9d66765a7ce0b",
          "blockNumber": "0xb2733f0",
          "transactionHash": "0x618a15eaa4534daf090e578a1d89a2640b24d51eefce4e439bfe4aa265072076",
          "transactionIndex": "0x5",
          "logIndex": "0xc",
          "removed": false
        }
      ],
      "logsBloom": "0x00000000000000000000000000000000002000000000000000000000000000000000000000000000000000000000000000000000000000000000000002200000000000000000000000000000000000000000000000000000200000000000000000000000000000000000040000000000000000000000000000000000000000000000000000000000000000000000000000000008000000000000000000000000020000000100000000000000000001000000000000000000000000000000000000000000000000000000000000000000000000000000080000000000000000000010000000000000000000000000000000000000000000000000020000000000",
      "type": "0x2",
      "transactionHash": "0x618a15eaa4534daf090e578a1d89a2640b24d51eefce4e439bfe4aa265072076",
      "transactionIndex": "0x5",
      "blockHash": "0xcab235a6ff4f9a8aadf11c9fc0c31bab1efdba6b487d7ce98fc9d66765a7ce0b",
      "blockNumber": "0xb2733f0",
      "gasUsed": "0xb92a",
      "effectiveGasPrice": "0x5f5e100",
      "from": "0xb1138094397f7f3ef1200c123e1539c6a5ad1738",
      "to": "0x495c42ea5e1f7d7eddfb458184b44fa78725faf9",
      "contractAddress": null,
      "gasUsedForL1": "0xa2",
      "l1BlockNumber": "0x8a1f2a",
      "timeboosted": false
    },
    {
      "status": "0x1",
      "cumulativeGasUsed": "0x11c120",
      "logs": [
        {
          "address": "0x7ced52a4c54f2a6269808bed1d4cc0096af52063",
          "topics": [
            "0xfd0a74cd9439908a3aecc74e2d38c760ae56b4df3da24c9723da70b461d3a35d",
            "0x0000000000000000000000000000000000000000000000000000000000077166",
            "0x000000000000000000000000b1138094397f7f3ef1200c123e1539c6a5ad1738"
          ],
          "data": "0x00000000000000000000000000000000000000000000000000000000000000000000000000000000000000000000000000000000000000000000000000000064",
          "blockHash": "0x81e02c502f0ee1278eb81340a3ce4d9b1f937647445e213f8129f4c3f969c87c",
          "blockNumber": "0xb2733f8",
          "transactionHash": "0x4ccdebcf73bba56b94103288628498b0173bc834a63a2c4d5f88eacab987de2f",
          "transactionIndex": "0x5",
          "logIndex": "0xe",
          "removed": false
        },
        {
          "address": "0x495c42ea5e1f7d7eddfb458184b44fa78725faf9",
          "topics": [
            "0xddf252ad1be2c89b69c2b068fc378daa952ba7f163c4a11628f55a4df523b3ef",
            "0x000000000000000000000000b1138094397f7f3ef1200c123e1539c6a5ad1738",
            "0x0000000000000000000000007ced52a4c54f2a6269808bed1d4cc0096af52063"
          ],
          "data": "0x0000000000000000000000000000000000000000000000000000000000989680",
          "blockHash": "0x81e02c502f0ee1278eb81340a3ce4d9b1f937647445e213f8129f4c3f969c87c",
          "blockNumber": "0xb2733f8",
          "transactionHash": "0x4ccdebcf73bba56b94103288628498b0173bc834a63a2c4d5f88eacab987de2f",
          "transactionIndex": "0x5",
          "logIndex": "0xf",
          "removed": false
        }
      ],
      "logsBloom": "0x00000000000000000000000000000000002000000000000000000000000000010000000000000000000004002010000000000000000000000000000002000000000000000000000000000008000000000000000000000000200000000000000000000000000000000000040000000000000000800000000000000010000000000000000000000000000000000000000000000008000000000000000000000000000000000100000000000000000001000000000000000000000000000000000000000002000000040000000000000020000000000000080000000400000000000000000000000010000000000000000000000000000000000000020000000000",
      "type": "0x2",
      "transactionHash": "0x4ccdebcf73bba56b94103288628498b0173bc834a63a2c4d5f88eacab987de2f",
      "transactionIndex": "0x5",
      "blockHash": "0x81e02c502f0ee1278eb81340a3ce4d9b1f937647445e213f8129f4c3f969c87c",
      "blockNumber": "0xb2733f8",
      "gasUsed": "0x2ba64",
      "effectiveGasPrice": "0x5f5e100",
      "from": "0xb1138094397f7f3ef1200c123e1539c6a5ad1738",
      "to": "0x7ced52a4c54f2a6269808bed1d4cc0096af52063",
      "contractAddress": null,
      "gasUsedForL1": "0x85",
      "l1BlockNumber": "0x8a1f2a",
      "timeboosted": false
    },
    {
      "status": "0x1",
      "cumulativeGasUsed": "0x977e8",
      "logs": [
        {
          "address": "0x495c42ea5e1f7d7eddfb458184b44fa78725faf9",
          "topics": [
            "0x8c5be1e5ebec7d5bd14f71427d1e84f3dd0314c0f7b2291e5b200ac8c7c3b925",
            "0x000000000000000000000000e7dab1389f7abdc16044f61cedfcc5086012e0b4",
            "0x0000000000000000000000007ced52a4c54f2a6269808bed1d4cc0096af52063"
          ],
          "data": "0xffffffffffffffffffffffffffffffffffffffffffffffffffffffffffffffff",
          "blockHash": "0x7eb4704e6b3b3b7b14c8c7a99d35ffeb0cf36c803242f3554eb33e11bb3fcd5f",
          "blockNumber": "0xb2733fe",
          "transactionHash": "0x6594777127658a96a7fd6020dac06676ea72720add7864e0dddfdecffc0ef4cb",
          "transactionIndex": "0x5",
          "logIndex": "0xf",
          "removed": false
        }
      ],
      "logsBloom": "0x00000000000000000000000000000000002000000000000000000000000000000000000000000000000000000000000000000000000000000000000002200000000000000000000000000000000000000000008000000000000000000000000000040000000000000000040000000000000000000000000000000000000000000000004000000000000000000000000000000000000000000000000000000000020000000100000000000000000000000000000000000000000000000000000000000000000000000000000000000000000000000000080000000000000000000010000000000000000000000000000000000000000000000000020000000000",
      "type": "0x2",
      "transactionHash": "0x6594777127658a96a7fd6020dac06676ea72720add7864e0dddfdecffc0ef4cb",
      "transactionIndex": "0x5",
      "blockHash": "0x7eb4704e6b3b3b7b14c8c7a99d35ffeb0cf36c803242f3554eb33e11bb3fcd5f",
      "blockNumber": "0xb2733fe",
      "gasUsed": "0xb92a",
      "effectiveGasPrice": "0x5f5e100",
      "from": "0xe7dab1389f7abdc16044f61cedfcc5086012e0b4",
      "to": "0x495c42ea5e1f7d7eddfb458184b44fa78725faf9",
      "contractAddress": null,
      "gasUsedForL1": "0xa2",
      "l1BlockNumber": "0x8a1f2b",
      "timeboosted": false
    },
    {
      "status": "0x1",
      "cumulativeGasUsed": "0x2ba64",
      "logs": [
        {
          "address": "0x7ced52a4c54f2a6269808bed1d4cc0096af52063",
          "topics": [
            "0xfd0a74cd9439908a3aecc74e2d38c760ae56b4df3da24c9723da70b461d3a35d",
            "0x0000000000000000000000000000000000000000000000000000000000077166",
            "0x000000000000000000000000e7dab1389f7abdc16044f61cedfcc5086012e0b4"
          ],
          "data": "0x00000000000000000000000000000000000000000000000000000000000000000000000000000000000000000000000000000000000000000000000000000064",
          "blockHash": "0x935fe8ca906ee36dd083865c250e7fa46b7db4a236431d453ac74ca04db3d203",
          "blockNumber": "0xb273408",
          "transactionHash": "0x3ecd7e1b84eecb3a61a897c76ec21b9cfc0efefd8289f95eee9cfd4e6249b543",
          "transactionIndex": "0x1",
          "logIndex": "0x0",
          "removed": false
        },
        {
          "address": "0x495c42ea5e1f7d7eddfb458184b44fa78725faf9",
          "topics": [
            "0xddf252ad1be2c89b69c2b068fc378daa952ba7f163c4a11628f55a4df523b3ef",
            "0x000000000000000000000000e7dab1389f7abdc16044f61cedfcc5086012e0b4",
            "0x0000000000000000000000007ced52a4c54f2a6269808bed1d4cc0096af52063"
          ],
          "data": "0x0000000000000000000000000000000000000000000000000000000000989680",
          "blockHash": "0x935fe8ca906ee36dd083865c250e7fa46b7db4a236431d453ac74ca04db3d203",
          "blockNumber": "0xb273408",
          "transactionHash": "0x3ecd7e1b84eecb3a61a897c76ec21b9cfc0efefd8289f95eee9cfd4e6249b543",
          "transactionIndex": "0x1",
          "logIndex": "0x1",
          "removed": false
        }
      ],
      "logsBloom": "0x00000000000000000000000000000000002000000000000000000000000000010000000000000000000004002010000000000000000000000000000002000000000000000000000000000008000000000000008000000000000000000000000000040000000000000000040000000000000000800000000000000010000000000000004000000000000000000000000000000000000000000000000000000000000000000100000000000000000000000000000000000000000000000000000000000002000000040000000000000020000000000000080000000400000000000000000000000010000000000000000000000000000000000000020000000000",
      "type": "0x2",
      "transactionHash": "0x3ecd7e1b84eecb3a61a897c76ec21b9cfc0efefd8289f95eee9cfd4e6249b543",
      "transactionIndex": "0x1",
      "blockHash": "0x935fe8ca906ee36dd083865c250e7fa46b7db4a236431d453ac74ca04db3d203",
      "blockNumber": "0xb273408",
      "gasUsed": "0x2ba64",
      "effectiveGasPrice": "0x5f5e100",
      "from": "0xe7dab1389f7abdc16044f61cedfcc5086012e0b4",
      "to": "0x7ced52a4c54f2a6269808bed1d4cc0096af52063",
      "contractAddress": null,
      "gasUsedForL1": "0x85",
      "l1BlockNumber": "0x8a1f2b",
      "timeboosted": false
    }
  ],
  "libraries": [],
  "pending": [],
  "returns": {},
  "timestamp": 1756018085,
  "chain": 421614,
  "commit": "201d026"
}