{
  "transactions": [
    {
      "hash": "0x1666745ac8e5f8d164d9b6f196bfc5995e88c2afde32d9638653344c7536edf5",
      "transactionType": "CALL",
      "contractName": null,
      "contractAddress": "0x335c3009548f4a392e72b7d062e13fb27338a47a",
      "function": null,
      "arguments": null,
      "transaction": {
        "from": "0x94cf685cc5d26828e2ca4c9c571249fc9b1d16be",
        "to": "0x335c3009548f4a392e72b7d062e13fb27338a47a",
        "gas": "0x6aa4",
        "value": "0xb5e620f48000",
        "input": "0x",
        "nonce": "0x3e",
        "chainId": "0x66eee"
      },
      "additionalContracts": [],
      "isFixedGasLimit": false
    },
    {
      "hash": "0x9d82fdb15e3a0f0b2e2bfd43d06a16cad2e85baa3182164a7862ce04ab6a929b",
      "transactionType": "CALL",
      "contractName": null,
      "contractAddress": "0x495c42ea5e1f7d7eddfb458184b44fa78725faf9",
      "function": "mint(address,uint256)",
      "arguments": [
        "0x335c3009548F4A392E72B7D062E13Fb27338A47A",
        "10000000"
      ],
      "transaction": {
        "from": "0x94cf685cc5d26828e2ca4c9c571249fc9b1d16be",
        "to": "0x495c42ea5e1f7d7eddfb458184b44fa78725faf9",
        "gas": "0xbe09",
        "value": "0x0",
        "input": "0x40c10f19000000000000000000000000335c3009548f4a392e72b7d062e13fb27338a47a0000000000000000000000000000000000000000000000000000000000989680",
        "nonce": "0x3f",
        "chainId": "0x66eee"
      },
      "additionalContracts": [],
      "isFixedGasLimit": false
    },
    {
      "hash": "0xe3b0b356cc591c59f328b2817eacb5342239e6950315b0ab0fcd76ff1c64899e",
      "transactionType": "CALL",
      "contractName": null,
      "contractAddress": "0x783c89d1f3b8707ad191c4b86dd44e901b4f6de9",
      "function": null,
      "arguments": null,
      "transaction": {
        "from": "0x94cf685cc5d26828e2ca4c9c571249fc9b1d16be",
        "to": "0x783c89d1f3b8707ad191c4b86dd44e901b4f6de9",
        "gas": "0x6aa4",
        "value": "0xb5e620f48000",
        "input": "0x",
        "nonce": "0x40",
        "chainId": "0x66eee"
      },
      "additionalContracts": [],
      "isFixedGasLimit": false
    },
    {
      "hash": "0x5fb042422a9d92696363b76fd0e1805c5ea879c6334dc11788e26ec2498af8f8",
      "transactionType": "CALL",
      "contractName": null,
      "contractAddress": "0x495c42ea5e1f7d7eddfb458184b44fa78725faf9",
      "function": "mint(address,uint256)",
      "arguments": [
        "0x783C89d1F3B8707aD191c4B86Dd44E901b4F6De9",
        "10000000"
      ],
      "transaction": {
        "from": "0x94cf685cc5d26828e2ca4c9c571249fc9b1d16be",
        "to": "0x495c42ea5e1f7d7eddfb458184b44fa78725faf9",
        "gas": "0xbe09",
        "value": "0x0",
        "input": "0x40c10f19000000000000000000000000783c89d1f3b8707ad191c4b86dd44e901b4f6de90000000000000000000000000000000000000000000000000000000000989680",
        "nonce": "0x41",
        "chainId": "0x66eee"
      },
      "additionalContracts": [],
      "isFixedGasLimit": false
    },
    {
      "hash": "0x53371f113767583f64efa8eeac0327fd8ae8fefe1b6e6dcafef174801a392395",
      "transactionType": "CALL",
      "contractName": null,
      "contractAddress": "0xdf0777621ba83142ddd349eeae122f132f41b61b",
      "function": null,
      "arguments": null,
      "transaction": {
        "from": "0x94cf685cc5d26828e2ca4c9c571249fc9b1d16be",
        "to": "0xdf0777621ba83142ddd349eeae122f132f41b61b",
        "gas": "0x6aa4",
        "value": "0xb5e620f48000",
        "input": "0x",
        "nonce": "0x42",
        "chainId": "0x66eee"
      },
      "additionalContracts": [],
      "isFixedGasLimit": false
    },
    {
      "hash": "0xbbc84444fc302fc164081befe35063540403afb0dc88440294275a6e5e0a94ca",
      "transactionType": "CALL",
      "contractName": null,
      "contractAddress": "0x495c42ea5e1f7d7eddfb458184b44fa78725faf9",
      "function": "mint(address,uint256)",
      "arguments": [
        "0xdF0777621bA83142ddd349eeAE122f132f41b61B",
        "10000000"
      ],
      "transaction": {
        "from": "0x94cf685cc5d26828e2ca4c9c571249fc9b1d16be",
        "to": "0x495c42ea5e1f7d7eddfb458184b44fa78725faf9",
        "gas": "0xbe09",
        "value": "0x0",
        "input": "0x40c10f19000000000000000000000000df0777621ba83142ddd349eeae122f132f41b61b0000000000000000000000000000000000000000000000000000000000989680",
        "nonce": "0x43",
        "chainId": "0x66eee"
      },
      "additionalContracts": [],
      "isFixedGasLimit": false
    },
    {
      "hash": "0x9b7d19df02317c4658c95dd1ad3dfd200be9424144d6d1589aa19f52b0df2dc6",
      "transactionType": "CALL",
      "contractName": null,
      "contractAddress": "0xf1c8194d42f50c64685604fea60f23ade0ffba76",
      "function": null,
      "arguments": null,
      "transaction": {
        "from": "0x94cf685cc5d26828e2ca4c9c571249fc9b1d16be",
        "to": "0xf1c8194d42f50c64685604fea60f23ade0ffba76",
        "gas": "0x6aa4",
        "value": "0xb5e620f48000",
        "input": "0x",
        "nonce": "0x44",
        "chainId": "0x66eee"
      },
      "additionalContracts": [],
      "isFixedGasLimit": false
    },
    {
      "hash": "0x1e4db8f7939d362b7f3d04ab5f0e98eb4517787fe7bd75180c0ea3e7600b87a7",
      "transactionType": "CALL",
      "contractName": null,
      "contractAddress": "0x495c42ea5e1f7d7eddfb458184b44fa78725faf9",
      "function": "mint(address,uint256)",
      "arguments": [
        "0xF1c8194d42F50C64685604fea60F23Ade0fFBA76",
        "10000000"
      ],
      "transaction": {
        "from": "0x94cf685cc5d26828e2ca4c9c571249fc9b1d16be",
        "to": "0x495c42ea5e1f7d7eddfb458184b44fa78725faf9",
        "gas": "0xbe09",
        "value": "0x0",
        "input": "0x40c10f19000000000000000000000000f1c8194d42f50c64685604fea60f23ade0ffba760000000000000000000000000000000000000000000000000000000000989680",
        "nonce": "0x45",
        "chainId": "0x66eee"
      },
      "additionalContracts": [],
      "isFixedGasLimit": false
    },
    {
      "hash": "0x1d0bd896649247ca99dd89266fdb7ee19904e0c3322c3e6be715fdbdd857a955",
      "transactionType": "CALL",
      "contractName": null,
      "contractAddress": "0xb1138094397f7f3ef1200c123e1539c6a5ad1738",
      "function": null,
      "arguments": null,
      "transaction": {
        "from": "0x94cf685cc5d26828e2ca4c9c571249fc9b1d16be",
        "to": "0xb1138094397f7f3ef1200c123e1539c6a5ad1738",
        "gas": "0x6aa4",
        "value": "0xb5e620f48000",
        "input": "0x",
        "nonce": "0x46",
        "chainId": "0x66eee"
      },
      "additionalContracts": [],
      "isFixedGasLimit": false
    },
    {
      "hash": "0x6ab11ce5b34738164b03e212313b055e02102667a45dbec514369a6542050614",
      "transactionType": "CALL",
      "contractName": null,
      "contractAddress": "0x495c42ea5e1f7d7eddfb458184b44fa78725faf9",
      "function": "mint(address,uint256)",
      "arguments": [
        "0xb1138094397f7F3EF1200C123E1539c6a5AD1738",
        "10000000"
      ],
      "transaction": {
        "from": "0x94cf685cc5d26828e2ca4c9c571249fc9b1d16be",
        "to": "0x495c42ea5e1f7d7eddfb458184b44fa78725faf9",
        "gas": "0xbe09",
        "value": "0x0",
        "input": "0x40c10f19000000000000000000000000b1138094397f7f3ef1200c123e1539c6a5ad17380000000000000000000000000000000000000000000000000000000000989680",
        "nonce": "0x47",
        "chainId": "0x66eee"
      },
      "additionalContracts": [],
      "isFixedGasLimit": false
    },
    {
      "hash": "0xfd677ef1888d71c9686ae99bf428bdb251406925bcffe9e14fa35c4e63d8a474",
      "transactionType": "CALL",
      "contractName": null,
      "contractAddress": "0xe7dab1389f7abdc16044f61cedfcc5086012e0b4",
      "function": null,
      "arguments": null,
      "transaction": {
        "from": "0x94cf685cc5d26828e2ca4c9c571249fc9b1d16be",
        "to": "0xe7dab1389f7abdc16044f61cedfcc5086012e0b4",
        "gas": "0x6aa4",
        "value": "0xb5e620f48000",
        "input": "0x",
        "nonce": "0x48",
        "chainId": "0x66eee"
      },
      "additionalContracts": [],
      "isFixedGasLimit": false
    },
    {
      "hash": "0xed647c5df5b8ff3fd96427da7a6620e874637fc0bc3019f0a3eb5fc63f6bb6fb",
      "transactionType": "CALL",
      "contractName": null,
      "contractAddress": "0x495c42ea5e1f7d7eddfb458184b44fa78725faf9",
      "function": "mint(address,uint256)",
      "arguments": [
        "0xE7daB1389F7aBDc16044F61CEdfcC5086012E0B4",
        "10000000"
      ],
      "transaction": {
        "from": "0x94cf685cc5d26828e2ca4c9c571249fc9b1d16be",
        "to": "0x495c42ea5e1f7d7eddfb458184b44fa78725faf9",
        "gas": "0xbe09",
        "value": "0x0",
        "input": "0x40c10f19000000000000000000000000e7dab1389f7abdc16044f61cedfcc5086012e0b40000000000000000000000000000000000000000000000000000000000989680",
        "nonce": "0x49",
        "chainId": "0x66eee"
      },
      "additionalContracts": [],
      "isFixedGasLimit": false
    },
    {
      "hash": "0x27e69a41bcf3415c2e2611ad7a9aa308bc8aa676ebc9710ad3d84e09750083f9",
      "transactionType": "CALL",
      "contractName": null,
      "contractAddress": "0x495c42ea5e1f7d7eddfb458184b44fa78725faf9",
      "function": "approve(address,uint256)",
      "arguments": [
        "0xB97241446b4d57679e28B2133D7E994267c76550",
        "115792089237316195423570985008687907853269984665640564039457584007913129639935"
      ],
      "transaction": {
        "from": "0x335c3009548f4a392e72b7d062e13fb27338a47a",
        "to": "0x495c42ea5e1f7d7eddfb458184b44fa78725faf9",
        "gas": "0xf1d7",
        "value": "0x0",
        "input": "0x095ea7b3000000000000000000000000b97241446b4d57679e28b2133d7e994267c76550ffffffffffffffffffffffffffffffffffffffffffffffffffffffffffffffff",
        "nonce": "0x4",
        "chainId": "0x66eee"
      },
      "additionalContracts": [],
      "isFixedGasLimit": false
    },
    {
      "hash": "0xdac69eee9f0f4e7ccf74ae27f6ea38dc8c1bb9cd6be5ddc1f4a83c0c18b4e569",
      "transactionType": "CALL",
      "contractName": null,
      "contractAddress": "0xb97241446b4d57679e28b2133d7e994267c76550",
      "function": "buyTicket(uint8)",
      "arguments": [
        "1"
      ],
      "transaction": {
        "from": "0x335c3009548f4a392e72b7d062e13fb27338a47a",
        "to": "0xb97241446b4d57679e28b2133d7e994267c76550",
        "gas": "0x60bd9",
        "value": "0x0",
        "input": "0x023697f00000000000000000000000000000000000000000000000000000000000000001",
        "nonce": "0x5",
        "chainId": "0x66eee"
      },
      "additionalContracts": [],
      "isFixedGasLimit": false
    },
    {
      "hash": "0x519b55258e69debbf46465e50d8d4ac35c82554adac932b0ad212dccea45048d",
      "transactionType": "CALL",
      "contractName": null,
      "contractAddress": "0x495c42ea5e1f7d7eddfb458184b44fa78725faf9",
      "function": "approve(address,uint256)",
      "arguments": [
        "0xB97241446b4d57679e28B2133D7E994267c76550",
        "115792089237316195423570985008687907853269984665640564039457584007913129639935"
      ],
      "transaction": {
        "from": "0x783c89d1f3b8707ad191c4b86dd44e901b4f6de9",
        "to": "0x495c42ea5e1f7d7eddfb458184b44fa78725faf9",
        "gas": "0xf1d7",
        "value": "0x0",
        "input": "0x095ea7b3000000000000000000000000b97241446b4d57679e28b2133d7e994267c76550ffffffffffffffffffffffffffffffffffffffffffffffffffffffffffffffff",
        "nonce": "0x4",
        "chainId": "0x66eee"
      },
      "additionalContracts": [],
      "isFixedGasLimit": false
    },
    {
      "hash": "0x49f64cea44098d8686a794099ea149b12a149375c9dd46b004a2d99bfa9a1817",
      "transactionType": "CALL",
      "contractName": null,
      "contractAddress": "0xb97241446b4d57679e28b2133d7e994267c76550",
      "function": "buyTicket(uint8)",
      "arguments": [
        "1"
      ],
      "transaction": {
        "from": "0x783c89d1f3b8707ad191c4b86dd44e901b4f6de9",
        "to": "0xb97241446b4d57679e28b2133d7e994267c76550",
        "gas": "0x46e74",
        "value": "0x0",
        "input": "0x023697f00000000000000000000000000000000000000000000000000000000000000001",
        "nonce": "0x5",
        "chainId": "0x66eee"
      },
      "additionalContracts": [],
      "isFixedGasLimit": false
    },
    {
      "hash": "0x1d58e7753326cacdab974a4a27b7a2f1d544f67b436fdeb0fd69cfb9298fae69",
      "transactionType": "CALL",
      "contractName": null,
      "contractAddress": "0x495c42ea5e1f7d7eddfb458184b44fa78725faf9",
      "function": "approve(address,uint256)",
      "arguments": [
        "0xB97241446b4d57679e28B2133D7E994267c76550",
        "115792089237316195423570985008687907853269984665640564039457584007913129639935"
      ],
      "transaction": {
        "from": "0xdf0777621ba83142ddd349eeae122f132f41b61b",
        "to": "0x495c42ea5e1f7d7eddfb458184b44fa78725faf9",
        "gas": "0xf1d7",
        "value": "0x0",
        "input": "0x095ea7b3000000000000000000000000b97241446b4d57679e28b2133d7e994267c76550ffffffffffffffffffffffffffffffffffffffffffffffffffffffffffffffff",
        "nonce": "0x4",
        "chainId": "0x66eee"
      },
      "additionalContracts": [],
      "isFixedGasLimit": false
    },
    {
      "hash": "0xb953b904161f5bc2596f864ec97f80a3c039fab636ef48c04ef7131834ea691e",
      "transactionType": "CALL",
      "contractName": null,
      "contractAddress": "0xb97241446b4d57679e28b2133d7e994267c76550",
      "function": "buyTicket(uint8)",
      "arguments": [
        "0"
      ],
      "transaction": {
        "from": "0xdf0777621ba83142ddd349eeae122f132f41b61b",
        "to": "0xb97241446b4d57679e28b2133d7e994267c76550",
        "gas": "0x3c3ec",
        "value": "0x0",
        "input": "0x023697f00000000000000000000000000000000000000000000000000000000000000000",
        "nonce": "0x5",
        "chainId": "0x66eee"
      },
      "additionalContracts": [],
      "isFixedGasLimit": false
    },
    {
      "hash": "0x1f18ef8dca6958af83671a27f7b678a247c0e115ae4fe0b1b84ebaf233a28c0e",
      "transactionType": "CALL",
      "contractName": null,
      "contractAddress": "0x495c42ea5e1f7d7eddfb458184b44fa78725faf9",
      "function": "approve(address,uint256)",
      "arguments": [
        "0xB97241446b4d57679e28B2133D7E994267c76550",
        "115792089237316195423570985008687907853269984665640564039457584007913129639935"
      ],
      "transaction": {
        "from": "0xf1c8194d42f50c64685604fea60f23ade0ffba76",
        "to": "0x495c42ea5e1f7d7eddfb458184b44fa78725faf9",
        "gas": "0xf1d7",
        "value": "0x0",
        "input": "0x095ea7b3000000000000000000000000b97241446b4d57679e28b2133d7e994267c76550ffffffffffffffffffffffffffffffffffffffffffffffffffffffffffffffff",
        "nonce": "0x4",
        "chainId": "0x66eee"
      },
      "additionalContracts": [],
      "isFixedGasLimit": false
    },
    {
      "hash": "0x0a3e180c78f199f6e555cf517239be2747acb816a532ed5b9e66c54b61090bbd",
      "transactionType": "CALL",
      "contractName": null,
      "contractAddress": "0xb97241446b4d57679e28b2133d7e994267c76550",
      "function": "buyTicket(uint8)",
      "arguments": [
        "0"
      ],
      "transaction": {
        "from": "0xf1c8194d42f50c64685604fea60f23ade0ffba76",
        "to": "0xb97241446b4d57679e28b2133d7e994267c76550",
        "gas": "0x3c3ec",
        "value": "0x0",
        "input": "0x023697f00000000000000000000000000000000000000000000000000000000000000000",
        "nonce": "0x5",
        "chainId": "0x66eee"
      },
      "additionalContracts": [],
      "isFixedGasLimit": false
    },
    {
      "hash": "0x168c43e5f4ef99db3e42dde008835807c7e760be0311f67f2aaa4e6ec2ede013",
      "transactionType": "CALL",
      "contractName": null,
      "contractAddress": "0x495c42ea5e1f7d7eddfb458184b44fa78725faf9",
      "function": "approve(address,uint256)",
      "arguments": [
        "0xB97241446b4d57679e28B2133D7E994267c76550",
        "115792089237316195423570985008687907853269984665640564039457584007913129639935"
      ],
      "transaction": {
        "from": "0xb1138094397f7f3ef1200c123e1539c6a5ad1738",
        "to": "0x495c42ea5e1f7d7eddfb458184b44fa78725faf9",
        "gas": "0xf1d7",
        "value": "0x0",
        "input": "0x095ea7b3000000000000000000000000b97241446b4d57679e28b2133d7e994267c76550ffffffffffffffffffffffffffffffffffffffffffffffffffffffffffffffff",
        "nonce": "0x4",
        "chainId": "0x66eee"
      },
      "additionalContracts": [],
      "isFixedGasLimit": false
    },
    {
      "hash": "0x679a1830f5111bb17efe163ef1fa6bc06e62f0343a8a581bf016680204489144",
      "transactionType": "CALL",
      "contractName": null,
      "contractAddress": "0xb97241446b4d57679e28b2133d7e994267c76550",
      "function": "buyTicket(uint8)",
      "arguments": [
        "0"
      ],
      "transaction": {
        "from": "0xb1138094397f7f3ef1200c123e1539c6a5ad1738",
        "to": "0xb97241446b4d57679e28b2133d7e994267c76550",
        "gas": "0x3c3ec",
        "value": "0x0",
        "input": "0x023697f00000000000000000000000000000000000000000000000000000000000000000",
        "nonce": "0x5",
        "chainId": "0x66eee"
      },
      "additionalContracts": [],
      "isFixedGasLimit": false
    },
    {
      "hash": "0xd60a5153d3323f7ef4297e4a70ed8906b0ea1f7b526774ff9c7bb02d4f944ef3",
      "transactionType": "CALL",
      "contractName": null,
      "contractAddress": "0x495c42ea5e1f7d7eddfb458184b44fa78725faf9",
      "function": "approve(address,uint256)",
      "arguments": [
        "0xB97241446b4d57679e28B2133D7E994267c76550",
        "115792089237316195423570985008687907853269984665640564039457584007913129639935"
      ],
      "transaction": {
        "from": "0xe7dab1389f7abdc16044f61cedfcc5086012e0b4",
        "to": "0x495c42ea5e1f7d7eddfb458184b44fa78725faf9",
        "gas": "0xf1d7",
        "value": "0x0",
        "input": "0x095ea7b3000000000000000000000000b97241446b4d57679e28b2133d7e994267c76550ffffffffffffffffffffffffffffffffffffffffffffffffffffffffffffffff",
        "nonce": "0x4",
        "chainId": "0x66eee"
      },
      "additionalContracts": [],
      "isFixedGasLimit": false
    },
    {
      "hash": "0xad61311ab313f4897fcdb2903494a4646922eb87262e8d6c8ecd60d671df8d24",
      "transactionType": "CALL",
      "contractName": null,
      "contractAddress": "0xb97241446b4d57679e28b2133d7e994267c76550",
      "function": "buyTicket(uint8)",
      "arguments": [
        "0"
      ],
      "transaction": {
        "from": "0xe7dab1389f7abdc16044f61cedfcc5086012e0b4",
        "to": "0xb97241446b4d57679e28b2133d7e994267c76550",
        "gas": "0x3c3ec",
        "value": "0x0",
        "input": "0x023697f00000000000000000000000000000000000000000000000000000000000000000",
        "nonce": "0x5",
        "chainId": "0x66eee"
      },
      "additionalContracts": [],
      "isFixedGasLimit": false
    }
  ],
  "receipts": [
    {
      "status": "0x1",
      "cumulativeGasUsed": "0x19ba2c",
      "logs": [],
      "logsBloom": "0x00000000000000000000000000000000000000000000000000000000000000000000000000000000000000000000000000000000000000000000000000000000000000000000000000000000000000000000000000000000000000000000000000000000000000000000000000000000000000000000000000000000000000000000000000000000000000000000000000000000000000000000000000000000000000000000000000000000000000000000000000000000000000000000000000000000000000000000000000000000000000000000000000000000000000000000000000000000000000000000000000000000000000000000000000000000",
      "type": "0x2",
      "transactionHash": "0x1666745ac8e5f8d164d9b6f196bfc5995e88c2afde32d9638653344c7536edf5",
      "transactionIndex": "0xc",
      "blockHash": "0x612fa9147189bde4c458288394ebb407c39ee691844bc6bba509969bfdfeb1d8",
      "blockNumber": "0xb17657c",
      "gasUsed": "0x5208",
      "effectiveGasPrice": "0x5f5e100",
      "from": "0x94cf685cc5d26828e2ca4c9c571249fc9b1d16be",
      "to": "0x335c3009548f4a392e72b7d062e13fb27338a47a",
      "contractAddress": null,
      "gasUsedForL1": "0x0",
      "l1BlockNumber": "0x89c70c",
      "timeboosted": false
    },
    {
      "status": "0x1",
      "cumulativeGasUsed": "0x90c3",
      "logs": [
        {
          "address": "0x495c42ea5e1f7d7eddfb458184b44fa78725faf9",
          "topics": [
            "0xddf252ad1be2c89b69c2b068fc378daa952ba7f163c4a11628f55a4df523b3ef",
            "0x0000000000000000000000000000000000000000000000000000000000000000",
            "0x000000000000000000000000335c3009548f4a392e72b7d062e13fb27338a47a"
          ],
          "data": "0x0000000000000000000000000000000000000000000000000000000000989680",
          "blockHash": "0x2d7087a4efbefc74829347ba2cf8bb1f310e43d65ef4b7b7862f7f9df2f576a6",
          "blockNumber": "0xb176584",
          "transactionHash": "0x9d82fdb15e3a0f0b2e2bfd43d06a16cad2e85baa3182164a7862ce04ab6a929b",
          "transactionIndex": "0x1",
          "logIndex": "0x0",
          "removed": false
        }
      ],
      "logsBloom": "0x01000000000000000000000000000000000080000000000000000000000000000000000000000000000000000000000000000000000000000000000002000000000000000000000000000008000000000000000000000000000000000000000000000000020000000000000000000800000000000000000000000010000000000000000000000000000000000000000000000000000000000000000000000000000000000000000000000000000000000000000000000000000000000000000000000002000000000000000000000000000000000000090000000000000020000000000000000000000000000000000000000000000000000000020000000000",
      "type": "0x2",
      "transactionHash": "0x9d82fdb15e3a0f0b2e2bfd43d06a16cad2e85baa3182164a7862ce04ab6a929b",
      "transactionIndex": "0x1",
      "blockHash": "0x2d7087a4efbefc74829347ba2cf8bb1f310e43d65ef4b7b7862f7f9df2f576a6",
      "blockNumber": "0xb176584",
      "gasUsed": "0x90c3",
      "effectiveGasPrice": "0x5f5e100",
      "from": "0x94cf685cc5d26828e2ca4c9c571249fc9b1d16be",
      "to": "0x495c42ea5e1f7d7eddfb458184b44fa78725faf9",
      "contractAddress": null,
      "gasUsedForL1": "0x0",
      "l1BlockNumber": "0x89c70c",
      "timeboosted": false
    },
    {
      "status": "0x1",
      "cumulativeGasUsed": "0x2579c",
      "logs": [],
      "logsBloom": "0x00000000000000000000000000000000000000000000000000000000000000000000000000000000000000000000000000000000000000000000000000000000000000000000000000000000000000000000000000000000000000000000000000000000000000000000000000000000000000000000000000000000000000000000000000000000000000000000000000000000000000000000000000000000000000000000000000000000000000000000000000000000000000000000000000000000000000000000000000000000000000000000000000000000000000000000000000000000000000000000000000000000000000000000000000000000",
      "type": "0x2",
      "transactionHash": "0xe3b0b356cc591c59f328b2817eacb5342239e6950315b0ab0fcd76ff1c64899e",
      "transactionIndex": "0x2",
      "blockHash": "0x3157d4f3637eb84c8caa279867cbfab2f4a82595b66e0c4294d24074ec9789d5",
      "blockNumber": "0xb17658d",
      "gasUsed": "0x5208",
      "effectiveGasPrice": "0x5f5e100",
      "from": "0x94cf685cc5d26828e2ca4c9c571249fc9b1d16be",
      "to": "0x783c89d1f3b8707ad191c4b86dd44e901b4f6de9",
      "contractAddress": null,
      "gasUsedForL1": "0x0",
      "l1BlockNumber": "0x89c70c",
      "timeboosted": false
    },
    {
      "status": "0x1",
      "cumulativeGasUsed": "0xd9be4b",
      "logs": [
        {
          "address": "0x495c42ea5e1f7d7eddfb458184b44fa78725faf9",
          "topics": [
            "0xddf252ad1be2c89b69c2b068fc378daa952ba7f163c4a11628f55a4df523b3ef",
            "0x0000000000000000000000000000000000000000000000000000000000000000",
            "0x000000000000000000000000783c89d1f3b8707ad191c4b86dd44e901b4f6de9"
          ],
          "data": "0x0000000000000000000000000000000000000000000000000000000000989680",
          "blockHash": "0x052726a54f843367d494692df33ae09b1bdc12ff5dfd1696fe51f4844db18a06",
          "blockNumber": "0xb176593",
          "transactionHash": "0x5fb042422a9d92696363b76fd0e1805c5ea879c6334dc11788e26ec2498af8f8",
          "transactionIndex": "0x12",
          "logIndex": "0x38",
          "removed": false
        }
      ],
      "logsBloom": "0x00000000000000000000001000000000000000000000000000000000000000000000000000000000000000000000000000000000000000000000000002000000000000000000000000000008000000000000000000000000000000000000000000000000020000000000000000000800000000000000000000000010000000000000000000000000004000000000000000000000000000000000000000000000000000000000000000000000000000000000000000000000000000000000010000000002000000000000000000000000000000000000080000000000000020000000000000000000000000000000000000000000000000000000020000000000",
      "type": "0x2",
      "transactionHash": "0x5fb042422a9d92696363b76fd0e1805c5ea879c6334dc11788e26ec2498af8f8",
      "transactionIndex": "0x12",
      "blockHash": "0x052726a54f843367d494692df33ae09b1bdc12ff5dfd1696fe51f4844db18a06",
      "blockNumber": "0xb176593",
      "gasUsed": "0x90c3",
      "effectiveGasPrice": "0x5f5e100",
      "from": "0x94cf685cc5d26828e2ca4c9c571249fc9b1d16be",
      "to": "0x495c42ea5e1f7d7eddfb458184b44fa78725faf9",
      "contractAddress": null,
      "gasUsedForL1": "0x0",
      "l1BlockNumber": "0x89c70c",
      "timeboosted": false
    },
    {
      "status": "0x1",
      "cumulativeGasUsed": "0x7fa057",
      "logs": [],
      "logsBloom": "0x00000000000000000000000000000000000000000000000000000000000000000000000000000000000000000000000000000000000000000000000000000000000000000000000000000000000000000000000000000000000000000000000000000000000000000000000000000000000000000000000000000000000000000000000000000000000000000000000000000000000000000000000000000000000000000000000000000000000000000000000000000000000000000000000000000000000000000000000000000000000000000000000000000000000000000000000000000000000000000000000000000000000000000000000000000000",
      "type": "0x2",
      "transactionHash": "0x53371f113767583f64efa8eeac0327fd8ae8fefe1b6e6dcafef174801a392395",
      "transactionIndex": "0x8",
      "blockHash": "0xadc5ace1d010faf9bbe5a904cb3ea3f90add54b03697756c0de341a227b2d04e",
      "blockNumber": "0xb176596",
      "gasUsed": "0x5208",
      "effectiveGasPrice": "0x5f5e100",
      "from": "0x94cf685cc5d26828e2ca4c9c571249fc9b1d16be",
      "to": "0xdf0777621ba83142ddd349eeae122f132f41b61b",
      "contractAddress": null,
      "gasUsedForL1": "0x0",
      "l1BlockNumber": "0x89c70d",
      "timeboosted": false
    },
    {
      "status": "0x1",
      "cumulativeGasUsed": "0x4943f",
      "logs": [
        {
          "address": "0x495c42ea5e1f7d7eddfb458184b44fa78725faf9",
          "topics": [
            "0xddf252ad1be2c89b69c2b068fc378daa952ba7f163c4a11628f55a4df523b3ef",
            "0x0000000000000000000000000000000000000000000000000000000000000000",
            "0x000000000000000000000000df0777621ba83142ddd349eeae122f132f41b61b"
          ],
          "data": "0x0000000000000000000000000000000000000000000000000000000000989680",
          "blockHash": "0xfb94ba1e378279e9943ccf0a4f8488208b491256567659c315908eebff16a665",
          "blockNumber": "0xb17659c",
          "transactionHash": "0xbbc84444fc302fc164081befe35063540403afb0dc88440294275a6e5e0a94ca",
          "transactionIndex": "0x4",
          "logIndex": "0x6",
          "removed": false
        }
      ],
      "logsBloom": "0x00000000000000000000000000080000000000000000000000000000000000000000000000000000000000000000000000200000000000000000000002000000000000000000000000000088000000000000000000000000000000000000000000000000020000000000000000000800000000000000000000000010000000000000000000000000000000000000000000000000000000000000000000000000000000000000000000000000000000000000000000000000000000000000000000000002000000000000000000000000000000000000080000000000000020000000000000000000000000000000000000000000000000000000020000000000",
      "type": "0x2",
      "transactionHash": "0xbbc84444fc302fc164081befe35063540403afb0dc88440294275a6e5e0a94ca",
      "transactionIndex": "0x4",
      "blockHash": "0xfb94ba1e378279e9943ccf0a4f8488208b491256567659c315908eebff16a665",
      "blockNumber": "0xb17659c",
      "gasUsed": "0x90c3",
      "effectiveGasPrice": "0x5f5e100",
      "from": "0x94cf685cc5d26828e2ca4c9c571249fc9b1d16be",
      "to": "0x495c42ea5e1f7d7eddfb458184b44fa78725faf9",
      "contractAddress": null,
      "gasUsedForL1": "0x0",
      "l1BlockNumber": "0x89c70d",
      "timeboosted": false
    },
    {
      "status": "0x1",
      "cumulativeGasUsed": "0x222f09",
      "logs": [],
      "logsBloom": "0x00000000000000000000000000000000000000000000000000000000000000000000000000000000000000000000000000000000000000000000000000000000000000000000000000000000000000000000000000000000000000000000000000000000000000000000000000000000000000000000000000000000000000000000000000000000000000000000000000000000000000000000000000000000000000000000000000000000000000000000000000000000000000000000000000000000000000000000000000000000000000000000000000000000000000000000000000000000000000000000000000000000000000000000000000000000",
      "type": "0x2",
      "transactionHash": "0x9b7d19df02317c4658c95dd1ad3dfd200be9424144d6d1589aa19f52b0df2dc6",
      "transactionIndex": "0x2",
      "blockHash": "0xa679ebf9414bbfe0923d590e9aa4dfea6892a10ddbc6ba94c0d32df08ffaf377",
      "blockNumber": "0xb1765a3",
      "gasUsed": "0x5208",
      "effectiveGasPrice": "0x5f5e100",
      "from": "0x94cf685cc5d26828e2ca4c9c571249fc9b1d16be",
      "to": "0xf1c8194d42f50c64685604fea60f23ade0ffba76",
      "contractAddress": null,
      "gasUsedForL1": "0x0",
      "l1BlockNumber": "0x89c70d",
      "timeboosted": false
    },
    {
      "status": "0x1",
      "cumulativeGasUsed": "0x106ce",
      "logs": [
        {
          "address": "0x495c42ea5e1f7d7eddfb458184b44fa78725faf9",
          "topics": [
            "0xddf252ad1be2c89b69c2b068fc378daa952ba7f163c4a11628f55a4df523b3ef",
            "0x0000000000000000000000000000000000000000000000000000000000000000",
            "0x000000000000000000000000f1c8194d42f50c64685604fea60f23ade0ffba76"
          ],
          "data": "0x0000000000000000000000000000000000000000000000000000000000989680",
          "blockHash": "0xd4cd8de105258d5b3a009b99239ba8839ae5cabe6b73eaf422c80df5846c6e53",
          "blockNumber": "0xb1765aa",
          "transactionHash": "0x1e4db8f7939d362b7f3d04ab5f0e98eb4517787fe7bd75180c0ea3e7600b87a7",
          "transactionIndex": "0x2",
          "logIndex": "0x1",
          "removed": false
        }
      ],
      "logsBloom": "0x00000000000000000000000000000000000000000000000000000000000000000000000000000000000000000000000000000000000000000001000002000000000000000000000000000008000000020000000000000000000000000000000040000000020000000000000000000800000000000000000000000010000000000000000000000000000000000000000000000000000000000000000000000000000000000000000000000000000000000000000000000000000000000000000000000002000000000000000000000000000000000000080000000000000020000000000000000000000000000000000000000000000000000000020000000000",
      "type": "0x2",
      "transactionHash": "0x1e4db8f7939d362b7f3d04ab5f0e98eb4517787fe7bd75180c0ea3e7600b87a7",
      "transactionIndex": "0x2",
      "blockHash": "0xd4cd8de105258d5b3a009b99239ba8839ae5cabe6b73eaf422c80df5846c6e53",
      "blockNumber": "0xb1765aa",
      "gasUsed": "0x90c3",
      "effectiveGasPrice": "0x5f5e100",
      "from": "0x94cf685cc5d26828e2ca4c9c571249fc9b1d16be",
      "to": "0x495c42ea5e1f7d7eddfb458184b44fa78725faf9",
      "contractAddress": null,
      "gasUsedForL1": "0x0",
      "l1BlockNumber": "0x89c70d",
      "timeboosted": false
    },
    {
      "status": "0x1",
      "cumulativeGasUsed": "0x22218",
      "logs": [],
      "logsBloom": "0x00000000000000000000000000000000000000000000000000000000000000000000000000000000000000000000000000000000000000000000000000000000000000000000000000000000000000000000000000000000000000000000000000000000000000000000000000000000000000000000000000000000000000000000000000000000000000000000000000000000000000000000000000000000000000000000000000000000000000000000000000000000000000000000000000000000000000000000000000000000000000000000000000000000000000000000000000000000000000000000000000000000000000000000000000000000",
      "type": "0x2",
      "transactionHash": "0x1d0bd896649247ca99dd89266fdb7ee19904e0c3322c3e6be715fdbdd857a955",
      "transactionIndex": "0x2",
      "blockHash": "0x66519d178c9aee30f56ddc129c4407aaae6570a5fb088d144ebdfe7cd1c27de7",
      "blockNumber": "0xb1765b0",
      "gasUsed": "0x5208",
      "effectiveGasPrice": "0x5f5e100",
      "from": "0x94cf685cc5d26828e2ca4c9c571249fc9b1d16be",
      "to": "0xb1138094397f7f3ef1200c123e1539c6a5ad1738",
      "contractAddress": null,
      "gasUsedForL1": "0x0",
      "l1BlockNumber": "0x89c70d",
      "timeboosted": false
    },
    {
      "status": "0x1",
      "cumulativeGasUsed": "0x20758",
      "logs": [
        {
          "address": "0x495c42ea5e1f7d7eddfb458184b44fa78725faf9",
          "topics": [
            "0xddf252ad1be2c89b69c2b068fc378daa952ba7f163c4a11628f55a4df523b3ef",
            "0x0000000000000000000000000000000000000000000000000000000000000000",
            "0x000000000000000000000000b1138094397f7f3ef1200c123e1539c6a5ad1738"
          ],
          "data": "0x0000000000000000000000000000000000000000000000000000000000989680",
          "blockHash": "0x9fcc2ed121ce47482ddd8eaaac1a76d22930868dfaa5223a9abc9e445330c0c1",
          "blockNumber": "0xb1765b6",
          "transactionHash": "0x6ab11ce5b34738164b03e212313b055e02102667a45dbec514369a6542050614",
          "transactionIndex": "0x2",
          "logIndex": "0x1",
          "removed": false
        }
      ],
      "logsBloom": "0x00000000000000000000000000000000000000000000000000000000000000000000000000000000000000000000000000000000000000000000000002000000000000000000000000000008000000000000000000000000200000000000000000000000020000000000000000000800000000000000000000000010000000000000000000000000000000000000000000000008000000000000000000000000000000000000000000000000000001000000000000000000000000000000000000000002000000000000000000000000000000000000080000000000000020000000000000000000000000000000000000000000000000000000020000000000",
      "type": "0x2",
      "transactionHash": "0x6ab11ce5b34738164b03e212313b055e02102667a45dbec514369a6542050614",
      "transactionIndex": "0x2",
      "blockHash": "0x9fcc2ed121ce47482ddd8eaaac1a76d22930868dfaa5223a9abc9e445330c0c1",
      "blockNumber": "0xb1765b6",
      "gasUsed": "0x90c3",
      "effectiveGasPrice": "0x5f5e100",
      "from": "0x94cf685cc5d26828e2ca4c9c571249fc9b1d16be",
      "to": "0x495c42ea5e1f7d7eddfb458184b44fa78725faf9",
      "contractAddress": null,
      "gasUsedForL1": "0x0",
      "l1BlockNumber": "0x89c70d",
      "timeboosted": false
    },
    {
      "status": "0x1",
      "cumulativeGasUsed": "0x13e77",
      "logs": [],
      "logsBloom": "0x00000000000000000000000000000000000000000000000000000000000000000000000000000000000000000000000000000000000000000000000000000000000000000000000000000000000000000000000000000000000000000000000000000000000000000000000000000000000000000000000000000000000000000000000000000000000000000000000000000000000000000000000000000000000000000000000000000000000000000000000000000000000000000000000000000000000000000000000000000000000000000000000000000000000000000000000000000000000000000000000000000000000000000000000000000000",
      "type": "0x2",
      "transactionHash": "0xfd677ef1888d71c9686ae99bf428bdb251406925bcffe9e14fa35c4e63d8a474",
      "transactionIndex": "0x3",
      "blockHash": "0xbabd56869473668d4e728199ed3d715ce3c7215a2d3e562018b7ab47eafa736d",
      "blockNumber": "0xb1765bd",
      "gasUsed": "0x5208",
      "effectiveGasPrice": "0x5f5e100",
      "from": "0x94cf685cc5d26828e2ca4c9c571249fc9b1d16be",
      "to": "0xe7dab1389f7abdc16044f61cedfcc5086012e0b4",
      "contractAddress": null,
      "gasUsedForL1": "0x0",
      "l1BlockNumber": "0x89c70d",
      "timeboosted": false
    },
    {
      "status": "0x1",
      "cumulativeGasUsed": "0x243de",
      "logs": [
        {
          "address": "0x495c42ea5e1f7d7eddfb458184b44fa78725faf9",
          "topics": [
            "0xddf252ad1be2c89b69c2b068fc378daa952ba7f163c4a11628f55a4df523b3ef",
            "0x0000000000000000000000000000000000000000000000000000000000000000",
            "0x000000000000000000000000e7dab1389f7abdc16044f61cedfcc5086012e0b4"
          ],
          "data": "0x0000000000000000000000000000000000000000000000000000000000989680",
          "blockHash": "0xaf7c94e8a8450b5caa198c6e64d58dfa71ae9ad56929d447c1261248d70ac5d2",
          "blockNumber": "0xb1765c4",
          "transactionHash": "0xed647c5df5b8ff3fd96427da7a6620e874637fc0bc3019f0a3eb5fc63f6bb6fb",
          "transactionIndex": "0x2",
          "logIndex": "0x3",
          "removed": false
        }
      ],
      "logsBloom": "0x00000000000000000000000000000000000000000000000000000000000000000000000000000000000000000000000000000000000000000000000002000000000000000000000000000008000000000000008000000000000000000000000000040000020000000000000000000800000000000000000000000010000000000000004000000000000000000000000000000000000000000000000000000000000000000000000000000000000000000000000000000000000000000000000000000002000000000000000000000000000000000000080000000000000020000000000000000000000000000000000000000000000000000000020000000000",
      "type": "0x2",
      "transactionHash": "0xed647c5df5b8ff3fd96427da7a6620e874637fc0bc3019f0a3eb5fc63f6bb6fb",
      "transactionIndex": "0x2",
      "blockHash": "0xaf7c94e8a8450b5caa198c6e64d58dfa71ae9ad56929d447c1261248d70ac5d2",
      "blockNumber": "0xb1765c4",
      "gasUsed": "0x90c3",
      "effectiveGasPrice": "0x5f5e100",
      "from": "0x94cf685cc5d26828e2ca4c9c571249fc9b1d16be",
      "to": "0x495c42ea5e1f7d7eddfb458184b44fa78725faf9",
      "contractAddress": null,
      "gasUsedForL1": "0x0",
      "l1BlockNumber": "0x89c70d",
      "timeboosted": false
    },
    {
      "status": "0x1",
      "cumulativeGasUsed": "0x767ca",
      "logs": [
        {
          "address": "0x495c42ea5e1f7d7eddfb458184b44fa78725faf9",
          "topics": [
            "0x8c5be1e5ebec7d5bd14f71427d1e84f3dd0314c0f7b2291e5b200ac8c7c3b925",
            "0x000000000000000000000000335c3009548f4a392e72b7d062e13fb27338a47a",
            "0x000000000000000000000000b97241446b4d57679e28b2133d7e994267c76550"
          ],
          "data": "0xffffffffffffffffffffffffffffffffffffffffffffffffffffffffffffffff",
          "blockHash": "0x7da8d101b750a5867d0467414dbd8995b68c2128e3c70632e6f7ef0afbb9fba3",
          "blockNumber": "0xb1765cb",
          "transactionHash": "0x27e69a41bcf3415c2e2611ad7a9aa308bc8aa676ebc9710ad3d84e09750083f9",
          "transactionIndex": "0x2",
          "logIndex": "0x1",
          "removed": false
        }
      ],
      "logsBloom": "0x01000000000000000000000000000000000080000000000000000000000000000000000000000000000000000002000000000000000000000000000002200000000000000000000000000000000000000000000000000000000000000000000000000000000000000000000000000000000000002000000000000000000000000000000000000000000000000000000000000000000000000000000000000000020000000000000000000000000000000000000000000000000000000000000000000000000000000000000000000000000000000000090000000000000002000010000000000000000000000000000000000000000000000000020000000000",
      "type": "0x2",
      "transactionHash": "0x27e69a41bcf3415c2e2611ad7a9aa308bc8aa676ebc9710ad3d84e09750083f9",
      "transactionIndex": "0x2",
      "blockHash": "0x7da8d101b750a5867d0467414dbd8995b68c2128e3c70632e6f7ef0afbb9fba3",
      "blockNumber": "0xb1765cb",
      "gasUsed": "0xb888",
      "effectiveGasPrice": "0x5f5e100",
      "from": "0x335c3009548f4a392e72b7d062e13fb27338a47a",
      "to": "0x495c42ea5e1f7d7eddfb458184b44fa78725faf9",
      "contractAddress": null,
      "gasUsedForL1": "0x0",
      "l1BlockNumber": "0x89c70e",
      "timeboosted": false
    },
    {
      "status": "0x1",
      "cumulativeGasUsed": "0x851b3",
      "logs": [
        {
          "address": "0xb97241446b4d57679e28b2133d7e994267c76550",
          "topics": [
            "0xfd0a74cd9439908a3aecc74e2d38c760ae56b4df3da24c9723da70b461d3a35d",
            "0x0000000000000000000000000000000000000000000000000000000000077119",
            "0x000000000000000000000000335c3009548f4a392e72b7d062e13fb27338a47a"
          ],
          "data": "0x00000000000000000000000000000000000000000000000000000000000000010000000000000000000000000000000000000000000000000000000000000064",
          "blockHash": "0x799acc0209b2262204618f3035a407e5861ce071380f12188e863590a693c403",
          "blockNumber": "0xb1765d2",
          "transactionHash": "0xdac69eee9f0f4e7ccf74ae27f6ea38dc8c1bb9cd6be5ddc1f4a83c0c18b4e569",
          "transactionIndex": "0x4",
          "logIndex": "0x7",
          "removed": false
        },
        {
          "address": "0x495c42ea5e1f7d7eddfb458184b44fa78725faf9",
          "topics": [
            "0xddf252ad1be2c89b69c2b068fc378daa952ba7f163c4a11628f55a4df523b3ef",
            "0x000000000000000000000000335c3009548f4a392e72b7d062e13fb27338a47a",
            "0x000000000000000000000000b97241446b4d57679e28b2133d7e994267c76550"
          ],
          "data": "0x00000000000000000000000000000000000000000000000000000000002dc6c0",
          "blockHash": "0x799acc0209b2262204618f3035a407e5861ce071380f12188e863590a693c403",
          "blockNumber": "0xb1765d2",
          "transactionHash": "0xdac69eee9f0f4e7ccf74ae27f6ea38dc8c1bb9cd6be5ddc1f4a83c0c18b4e569",
          "transactionIndex": "0x4",
          "logIndex": "0x8",
          "removed": false
        }
      ],
      "logsBloom": "0x01000000000000000000008000000000000080000000000000000000000000000400000000000000000004002002000000000000000000020000000002000000000000000000000000000008000000000000000000000000000000000000000000000000000000000000000000000000000000002000000000000010000000000000000000000000000080000000000000000000000000000000000000000000000000000000000000000000000000000000000000000000000000000000000000000002000000040080000000000000000000000000090000000000000002000000000000000000000001000000000000000000000000000000020000000000",
      "type": "0x2",
      "transactionHash": "0xdac69eee9f0f4e7ccf74ae27f6ea38dc8c1bb9cd6be5ddc1f4a83c0c18b4e569",
      "transactionIndex": "0x4",
      "blockHash": "0x799acc0209b2262204618f3035a407e5861ce071380f12188e863590a693c403",
      "blockNumber": "0xb1765d2",
      "gasUsed": "0x4609e",
      "effectiveGasPrice": "0x5f5e100",
      "from": "0x335c3009548f4a392e72b7d062e13fb27338a47a",
      "to": "0xb97241446b4d57679e28b2133d7e994267c76550",
      "contractAddress": null,
      "gasUsedForL1": "0x0",
      "l1BlockNumber": "0x89c70e",
      "timeboosted": false
    },
    {
      "status": "0x1",
      "cumulativeGasUsed": "0x14d225",
      "logs": [
        {
          "address": "0x495c42ea5e1f7d7eddfb458184b44fa78725faf9",
          "topics": [
            "0x8c5be1e5ebec7d5bd14f71427d1e84f3dd0314c0f7b2291e5b200ac8c7c3b925",
            "0x000000000000000000000000783c89d1f3b8707ad191c4b86dd44e901b4f6de9",
            "0x000000000000000000000000b97241446b4d57679e28b2133d7e994267c76550"
          ],
          "data": "0xffffffffffffffffffffffffffffffffffffffffffffffffffffffffffffffff",
          "blockHash": "0x26abe5bd5767932f02d5a9841a12b91ef3a9f997bdc6d8b7a21befc2d09d4e9f",
          "blockNumber": "0xb1765d9",
          "transactionHash": "0x519b55258e69debbf46465e50d8d4ac35c82554adac932b0ad212dccea45048d",
          "transactionIndex": "0x8",
          "logIndex": "0xf",
          "removed": false
        }
      ],
      "logsBloom": "0x00000000000000000000001000000000000000000000000000000000000000000000000000000000000000000002000000000000000000000000000002200000000000000000000000000000000000000000000000000000000000000000000000000000000000000000000000000000000000002000000000000000000000000000000000000000004000000000000000000000000000000000000000000000020000000000000000000000000000000000000000000000000000000000010000000000000000000000000000000000000000000000080000000000000002000010000000000000000000000000000000000000000000000000020000000000",
      "type": "0x2",
      "transactionHash": "0x519b55258e69debbf46465e50d8d4ac35c82554adac932b0ad212dccea45048d",
      "transactionIndex": "0x8",
      "blockHash": "0x26abe5bd5767932f02d5a9841a12b91ef3a9f997bdc6d8b7a21befc2d09d4e9f",
      "blockNumber": "0xb1765d9",
      "gasUsed": "0xb888",
      "effectiveGasPrice": "0x5f5e100",
      "from": "0x783c89d1f3b8707ad191c4b86dd44e901b4f6de9",
      "to": "0x495c42ea5e1f7d7eddfb458184b44fa78725faf9",
      "contractAddress": null,
      "gasUsedForL1": "0x0",
      "l1BlockNumber": "0x89c70e",
      "timeboosted": false
    },
    {
      "status": "0x1",
      "cumulativeGasUsed": "0x55eea",
      "logs": [
        {
          "address": "0xb97241446b4d57679e28b2133d7e994267c76550",
          "topics": [
            "0xfd0a74cd9439908a3aecc74e2d38c760ae56b4df3da24c9723da70b461d3a35d",
            "0x0000000000000000000000000000000000000000000000000000000000077119",
            "0x000000000000000000000000783c89d1f3b8707ad191c4b86dd44e901b4f6de9"
          ],
          "data": "0x00000000000000000000000000000000000000000000000000000000000000010000000000000000000000000000000000000000000000000000000000000064",
          "blockHash": "0x37afbd4ef7d2e3121c8b1840ae789b4e6a1cc4af939448accb1f587b83c89fbd",
          "blockNumber": "0xb1765e1",
          "transactionHash": "0x49f64cea44098d8686a794099ea149b12a149375c9dd46b004a2d99bfa9a1817",
          "transactionIndex": "0x3",
          "logIndex": "0x2",
          "removed": false
        },
        {
          "address": "0x495c42ea5e1f7d7eddfb458184b44fa78725faf9",
          "topics": [
            "0xddf252ad1be2c89b69c2b068fc378daa952ba7f163c4a11628f55a4df523b3ef",
            "0x000000000000000000000000783c89d1f3b8707ad191c4b86dd44e901b4f6de9",
            "0x000000000000000000000000b97241446b4d57679e28b2133d7e994267c76550"
          ],
          "data": "0x00000000000000000000000000000000000000000000000000000000002dc6c0",
          "blockHash": "0x37afbd4ef7d2e3121c8b1840ae789b4e6a1cc4af939448accb1f587b83c89fbd",
          "blockNumber": "0xb1765e1",
          "transactionHash": "0x49f64cea44098d8686a794099ea149b12a149375c9dd46b004a2d99bfa9a1817",
          "transactionIndex": "0x3",
          "logIndex": "0x3",
          "removed": false
        }
      ],
      "logsBloom": "0x00000000000000000000009000000000000000000000000000000000000000000400000000000000000004002002000000000000000000020000000002000000000000000000000000000008000000000000000000000000000000000000000000000000000000000000000000000000000000002000000000000010000000000000000000000000004080000000000000000000000000000000000000000000000000000000000000000000000000000000000000000000000000000000010000000002000000040080000000000000000000000000080000000000000002000000000000000000000001000000000000000000000000000000020000000000",
      "type": "0x2",
      "transactionHash": "0x49f64cea44098d8686a794099ea149b12a149375c9dd46b004a2d99bfa9a1817",
      "transactionIndex": "0x3",
      "blockHash": "0x37afbd4ef7d2e3121c8b1840ae789b4e6a1cc4af939448accb1f587b83c89fbd",
      "blockNumber": "0xb1765e1",
      "gasUsed": "0x307b2",
      "effectiveGasPrice": "0x5f5e100",
      "from": "0x783c89d1f3b8707ad191c4b86dd44e901b4f6de9",
      "to": "0xb97241446b4d57679e28b2133d7e994267c76550",
      "contractAddress": null,
      "gasUsedForL1": "0x0",
      "l1BlockNumber": "0x89c70e",
      "timeboosted": false
    },
    {
      "status": "0x1",
      "cumulativeGasUsed": "0x275e9",
      "logs": [
        {
          "address": "0x495c42ea5e1f7d7eddfb458184b44fa78725faf9",
          "topics": [
            "0x8c5be1e5ebec7d5bd14f71427d1e84f3dd0314c0f7b2291e5b200ac8c7c3b925",
            "0x000000000000000000000000df0777621ba83142ddd349eeae122f132f41b61b",
            "0x000000000000000000000000b97241446b4d57679e28b2133d7e994267c76550"
          ],
          "data": "0xffffffffffffffffffffffffffffffffffffffffffffffffffffffffffffffff",
          "blockHash": "0xf3dd52d126bdc8fd7b62df8d2381edeebffaefa38f46ec5510dc0748637e013f",
          "blockNumber": "0xb1765e8",
          "transactionHash": "0x1d58e7753326cacdab974a4a27b7a2f1d544f67b436fdeb0fd69cfb9298fae69",
          "transactionIndex": "0x2",
          "logIndex": "0x3",
          "removed": false
        }
      ],
      "logsBloom": "0x00000000000000000000000000080000000000000000000000000000000000000000000000000000000000000002000000200000000000000000000002200000000000000000000000000080000000000000000000000000000000000000000000000000000000000000000000000000000000002000000000000000000000000000000000000000000000000000000000000000000000000000000000000000020000000000000000000000000000000000000000000000000000000000000000000000000000000000000000000000000000000000080000000000000002000010000000000000000000000000000000000000000000000000020000000000",
      "type": "0x2",
      "transactionHash": "0x1d58e7753326cacdab974a4a27b7a2f1d544f67b436fdeb0fd69cfb9298fae69",
      "transactionIndex": "0x2",
      "blockHash": "0xf3dd52d126bdc8fd7b62df8d2381edeebffaefa38f46ec5510dc0748637e013f",
      "blockNumber": "0xb1765e8",
      "gasUsed": "0xb888",
      "effectiveGasPrice": "0x5f5e100",
      "from": "0xdf0777621ba83142ddd349eeae122f132f41b61b",
      "to": "0x495c42ea5e1f7d7eddfb458184b44fa78725faf9",
      "contractAddress": null,
      "gasUsedForL1": "0x0",
      "l1BlockNumber": "0x89c70e",
      "timeboosted": false
    },
    {
      "status": "0x1",
      "cumulativeGasUsed": "0x1a1a96",
      "logs": [
        {
          "address": "0xb97241446b4d57679e28b2133d7e994267c76550",
          "topics": [
            "0xfd0a74cd9439908a3aecc74e2d38c760ae56b4df3da24c9723da70b461d3a35d",
            "0x0000000000000000000000000000000000000000000000000000000000077119",
            "0x000000000000000000000000df0777621ba83142ddd349eeae122f132f41b61b"
          ],
          "data": "0x00000000000000000000000000000000000000000000000000000000000000000000000000000000000000000000000000000000000000000000000000000064",
          "blockHash": "0xd18e74acc573615a8aa98273bf3976f4df7ff628ea2219e5871384f8d03e2313",
          "blockNumber": "0xb1765ee",
          "transactionHash": "0xb953b904161f5bc2596f864ec97f80a3c039fab636ef48c04ef7131834ea691e",
          "transactionIndex": "0x8",
          "logIndex": "0x22",
          "removed": false
        },
        {
          "address": "0x495c42ea5e1f7d7eddfb458184b44fa78725faf9",
          "topics": [
            "0xddf252ad1be2c89b69c2b068fc378daa952ba7f163c4a11628f55a4df523b3ef",
            "0x000000000000000000000000df0777621ba83142ddd349eeae122f132f41b61b",
            "0x000000000000000000000000b97241446b4d57679e28b2133d7e994267c76550"
          ],
          "data": "0x00000000000000000000000000000000000000000000000000000000000f4240",
          "blockHash": "0xd18e74acc573615a8aa98273bf3976f4df7ff628ea2219e5871384f8d03e2313",
          "blockNumber": "0xb1765ee",
          "transactionHash": "0xb953b904161f5bc2596f864ec97f80a3c039fab636ef48c04ef7131834ea691e",
          "transactionIndex": "0x8",
          "logIndex": "0x23",
          "removed": false
        }
      ],
      "logsBloom": "0x00000000000000000000008000080000000000000000000000000000000000000400000000000000000004002002000000200000000000020000000002000000000000000000000000000088000000000000000000000000000000000000000000000000000000000000000000000000000000002000000000000010000000000000000000000000000080000000000000000000000000000000000000000000000000000000000000000000000000000000000000000000000000000000000000000002000000040080000000000000000000000000080000000000000002000000000000000000000001000000000000000000000000000000020000000000",
      "type": "0x2",
      "transactionHash": "0xb953b904161f5bc2596f864ec97f80a3c039fab636ef48c04ef7131834ea691e",
      "transactionIndex": "0x8",
      "blockHash": "0xd18e74acc573615a8aa98273bf3976f4df7ff628ea2219e5871384f8d03e2313",
      "blockNumber": "0xb1765ee",
      "gasUsed": "0x2b9de",
      "effectiveGasPrice": "0x5f5e100",
      "from": "0xdf0777621ba83142ddd349eeae122f132f41b61b",
      "to": "0xb97241446b4d57679e28b2133d7e994267c76550",
      "contractAddress": null,
      "gasUsedForL1": "0x0",
      "l1BlockNumber": "0x89c70e",
      "timeboosted": false
    },
    {
      "status": "0x1",
      "cumulativeGasUsed": "0xb888",
      "logs": [
        {
          "address": "0x495c42ea5e1f7d7eddfb458184b44fa78725faf9",
          "topics": [
            "0x8c5be1e5ebec7d5bd14f71427d1e84f3dd0314c0f7b2291e5b200ac8c7c3b925",
            "0x000000000000000000000000f1c8194d42f50c64685604fea60f23ade0ffba76",
            "0x000000000000000000000000b97241446b4d57679e28b2133d7e994267c76550"
          ],
          "data": "0xffffffffffffffffffffffffffffffffffffffffffffffffffffffffffffffff",
          "blockHash": "0xa2fba63a5c08c768012d16a6e64db263dd4d7be789dceb8bf252e6bd947d1732",
          "blockNumber": "0xb1765f5",
          "transactionHash": "0x1f18ef8dca6958af83671a27f7b678a247c0e115ae4fe0b1b84ebaf233a28c0e",
          "transactionIndex": "0x1",
          "logIndex": "0x0",
          "removed": false
        }
      ],
      "logsBloom": "0x00000000000000000000000000000000000000000000000000000000000000000000000000000000000000000002000000000000000000000001000002200000000000000000000000000000000000020000000000000000000000000000000040000000000000000000000000000000000000002000000000000000000000000000000000000000000000000000000000000000000000000000000000000000020000000000000000000000000000000000000000000000000000000000000000000000000000000000000000000000000000000000080000000000000002000010000000000000000000000000000000000000000000000000020000000000",
      "type": "0x2",
      "transactionHash": "0x1f18ef8dca6958af83671a27f7b678a247c0e115ae4fe0b1b84ebaf233a28c0e",
      "transactionIndex": "0x1",
      "blockHash": "0xa2fba63a5c08c768012d16a6e64db263dd4d7be789dceb8bf252e6bd947d1732",
      "blockNumber": "0xb1765f5",
      "gasUsed": "0xb888",
      "effectiveGasPrice": "0x5f5e100",
      "from": "0xf1c8194d42f50c64685604fea60f23ade0ffba76",
      "to": "0x495c42ea5e1f7d7eddfb458184b44fa78725faf9",
      "contractAddress": null,
      "gasUsedForL1": "0x0",
      "l1BlockNumber": "0x89c70e",
      "timeboosted": false
    },
    {
      "status": "0x1",
      "cumulativeGasUsed": "0x477bd",
      "logs": [
        {
          "address": "0xb97241446b4d57679e28b2133d7e994267c76550",
          "topics": [
            "0xfd0a74cd9439908a3aecc74e2d38c760ae56b4df3da24c9723da70b461d3a35d",
            "0x0000000000000000000000000000000000000000000000000000000000077119",
            "0x000000000000000000000000f1c8194d42f50c64685604fea60f23ade0ffba76"
          ],
          "data": "0x00000000000000000000000000000000000000000000000000000000000000000000000000000000000000000000000000000000000000000000000000000064",
          "blockHash": "0xa1a90361adb9f1ce6767724f848c79f76a91e94ecb9a86d6d3d8761f691a0083",
          "blockNumber": "0xb1765fc",
          "transactionHash": "0x0a3e180c78f199f6e555cf517239be2747acb816a532ed5b9e66c54b61090bbd",
          "transactionIndex": "0x2",
          "logIndex": "0x4",
          "removed": false
        },
        {
          "address": "0x495c42ea5e1f7d7eddfb458184b44fa78725faf9",
          "topics": [
            "0xddf252ad1be2c89b69c2b068fc378daa952ba7f163c4a11628f55a4df523b3ef",
            "0x000000000000000000000000f1c8194d42f50c64685604fea60f23ade0ffba76",
            "0x000000000000000000000000b97241446b4d57679e28b2133d7e994267c76550"
          ],
          "data": "0x00000000000000000000000000000000000000000000000000000000000f4240",
          "blockHash": "0xa1a90361adb9f1ce6767724f848c79f76a91e94ecb9a86d6d3d8761f691a0083",
          "blockNumber": "0xb1765fc",
          "transactionHash": "0x0a3e180c78f199f6e555cf517239be2747acb816a532ed5b9e66c54b61090bbd",
          "transactionIndex": "0x2",
          "logIndex": "0x5",
          "removed": false
        }
      ],
      "logsBloom": "0x00000000000000000000008000000000000000000000000000000000000000000400000000000000000004002002000000000000000000020001000002000000000000000000000000000008000000020000000000000000000000000000000040000000000000000000000000000000000000002000000000000010000000000000000000000000000080000000000000000000000000000000000000000000000000000000000000000000000000000000000000000000000000000000000000000002000000040080000000000000000000000000080000000000000002000000000000000000000001000000000000000000000000000000020000000000",
      "type": "0x2",
      "transactionHash": "0x0a3e180c78f199f6e555cf517239be2747acb816a532ed5b9e66c54b61090bbd",
      "transactionIndex": "0x2",
      "blockHash": "0xa1a90361adb9f1ce6767724f848c79f76a91e94ecb9a86d6d3d8761f691a0083",
      "blockNumber": "0xb1765fc",
      "gasUsed": "0x2b9de",
      "effectiveGasPrice": "0x5f5e100",
      "from": "0xf1c8194d42f50c64685604fea60f23ade0ffba76",
      "to": "0xb97241446b4d57679e28b2133d7e994267c76550",
      "contractAddress": null,
      "gasUsedForL1": "0x0",
      "l1BlockNumber": "0x89c70e",
      "timeboosted": false
    },
    {
      "status": "0x1",
      "cumulativeGasUsed": "0x2760d",
      "logs": [
        {
          "address": "0x495c42ea5e1f7d7eddfb458184b44fa78725faf9",
          "topics": [
            "0x8c5be1e5ebec7d5bd14f71427d1e84f3dd0314c0f7b2291e5b200ac8c7c3b925",
            "0x000000000000000000000000b1138094397f7f3ef1200c123e1539c6a5ad1738",
            "0x000000000000000000000000b97241446b4d57679e28b2133d7e994267c76550"
          ],
          "data": "0xffffffffffffffffffffffffffffffffffffffffffffffffffffffffffffffff",
          "blockHash": "0xc6390707a139d7e94f06b417e387798c49f225df5e283dcfe631691524e5db40",
          "blockNumber": "0xb176603",
          "transactionHash": "0x168c43e5f4ef99db3e42dde008835807c7e760be0311f67f2aaa4e6ec2ede013",
          "transactionIndex": "0x2",
          "logIndex": "0x3",
          "removed": false
        }
      ],
      "logsBloom": "0x00000000000000000000000000000000000000000000000000000000000000000000000000000000000000000002000000000000000000000000000002200000000000000000000000000000000000000000000000000000200000000000000000000000000000000000000000000000000000002000000000000000000000000000000000000000000000000000000000000008000000000000000000000000020000000000000000000000000001000000000000000000000000000000000000000000000000000000000000000000000000000000080000000000000002000010000000000000000000000000000000000000000000000000020000000000",
      "type": "0x2",
      "transactionHash": "0x168c43e5f4ef99db3e42dde008835807c7e760be0311f67f2aaa4e6ec2ede013",
      "transactionIndex": "0x2",
      "blockHash": "0xc6390707a139d7e94f06b417e387798c49f225df5e283dcfe631691524e5db40",
      "blockNumber": "0xb176603",
      "gasUsed": "0xb888",
      "effectiveGasPrice": "0x5f5e100",
      "from": "0xb1138094397f7f3ef1200c123e1539c6a5ad1738",
      "to": "0x495c42ea5e1f7d7eddfb458184b44fa78725faf9",
      "contractAddress": null,
      "gasUsedForL1": "0x0",
      "l1BlockNumber": "0x89c710",
      "timeboosted": false
    },
    {
      "status": "0x1",
      "cumulativeGasUsed": "0x63e76",
      "logs": [
        {
          "address": "0xb97241446b4d57679e28b2133d7e994267c76550",
          "topics": [
            "0xfd0a74cd9439908a3aecc74e2d38c760ae56b4df3da24c9723da70b461d3a35d",
            "0x0000000000000000000000000000000000000000000000000000000000077119",
            "0x000000000000000000000000b1138094397f7f3ef1200c123e1539c6a5ad1738"
          ],
          "data": "0x00000000000000000000000000000000000000000000000000000000000000000000000000000000000000000000000000000000000000000000000000000064",
          "blockHash": "0x7cac98630328cdc4f331be65e56ba82a9b02b1eb1d047d642b3299deb9763fa7",
          "blockNumber": "0xb17660a",
          "transactionHash": "0x679a1830f5111bb17efe163ef1fa6bc06e62f0343a8a581bf016680204489144",
          "transactionIndex": "0x3",
          "logIndex": "0x8",
          "removed": false
        },
        {
          "address": "0x495c42ea5e1f7d7eddfb458184b44fa78725faf9",
          "topics": [
            "0xddf252ad1be2c89b69c2b068fc378daa952ba7f163c4a11628f55a4df523b3ef",
            "0x000000000000000000000000b1138094397f7f3ef1200c123e1539c6a5ad1738",
            "0x000000000000000000000000b97241446b4d57679e28b2133d7e994267c76550"
          ],
          "data": "0x00000000000000000000000000000000000000000000000000000000000f4240",
          "blockHash": "0x7cac98630328cdc4f331be65e56ba82a9b02b1eb1d047d642b3299deb9763fa7",
          "blockNumber": "0xb17660a",
          "transactionHash": "0x679a1830f5111bb17efe163ef1fa6bc06e62f0343a8a581bf016680204489144",
          "transactionIndex": "0x3",
          "logIndex": "0x9",
          "removed": false
        }
      ],
      "logsBloom": "0x00000000000000000000008000000000000000000000000000000000000000000400000000000000000004002002000000000000000000020000000002000000000000000000000000000008000000000000000000000000200000000000000000000000000000000000000000000000000000002000000000000010000000000000000000000000000080000000000000000008000000000000000000000000000000000000000000000000000001000000000000000000000000000000000000000002000000040080000000000000000000000000080000000000000002000000000000000000000001000000000000000000000000000000020000000000",
      "type": "0x2",
      "transactionHash": "0x679a1830f5111bb17efe163ef1fa6bc06e62f0343a8a581bf016680204489144",
      "transactionIndex": "0x3",
      "blockHash": "0x7cac98630328cdc4f331be65e56ba82a9b02b1eb1d047d642b3299deb9763fa7",
      "blockNumber": "0xb17660a",
      "gasUsed": "0x2b9de",
      "effectiveGasPrice": "0x5f5e100",
      "from": "0xb1138094397f7f3ef1200c123e1539c6a5ad1738",
      "to": "0xb97241446b4d57679e28b2133d7e994267c76550",
      "contractAddress": null,
      "gasUsedForL1": "0x0",
      "l1BlockNumber": "0x89c710",
      "timeboosted": false
    },
    {
      "status": "0x1",
      "cumulativeGasUsed": "0x13e517",
      "logs": [
        {
          "address": "0x495c42ea5e1f7d7eddfb458184b44fa78725faf9",
          "topics": [
            "0x8c5be1e5ebec7d5bd14f71427d1e84f3dd0314c0f7b2291e5b200ac8c7c3b925",
            "0x000000000000000000000000e7dab1389f7abdc16044f61cedfcc5086012e0b4",
            "0x000000000000000000000000b97241446b4d57679e28b2133d7e994267c76550"
          ],
          "data": "0xffffffffffffffffffffffffffffffffffffffffffffffffffffffffffffffff",
          "blockHash": "0x1f22eda0a543f366a8d91ecf80f5f123d70bf416047d166958bfe3e7cc516b35",
          "blockNumber": "0xb17660f",
          "transactionHash": "0xd60a5153d3323f7ef4297e4a70ed8906b0ea1f7b526774ff9c7bb02d4f944ef3",
          "transactionIndex": "0xc",
          "logIndex": "0x1c",
          "removed": false
        }
      ],
      "logsBloom": "0x00000000000000000000000000000000000000000000000000000000000000000000000000000000000000000002000000000000000000000000000002200000000000000000000000000000000000000000008000000000000000000000000000040000000000000000000000000000000000002000000000000000000000000000004000000000000000000000000000000000000000000000000000000000020000000000000000000000000000000000000000000000000000000000000000000000000000000000000000000000000000000000080000000000000002000010000000000000000000000000000000000000000000000000020000000000",
      "type": "0x2",
      "transactionHash": "0xd60a5153d3323f7ef4297e4a70ed8906b0ea1f7b526774ff9c7bb02d4f944ef3",
      "transactionIndex": "0xc",
      "blockHash": "0x1f22eda0a543f366a8d91ecf80f5f123d70bf416047d166958bfe3e7cc516b35",
      "blockNumber": "0xb17660f",
      "gasUsed": "0xb888",
      "effectiveGasPrice": "0x5f5e100",
      "from": "0xe7dab1389f7abdc16044f61cedfcc5086012e0b4",
      "to": "0x495c42ea5e1f7d7eddfb458184b44fa78725faf9",
      "contractAddress": null,
      "gasUsedForL1": "0x0",
      "l1BlockNumber": "0x89c710",
      "timeboosted": false
    },
    {
      "status": "0x1",
      "cumulativeGasUsed": "0x58ce5",
      "logs": [
        {
          "address": "0xb97241446b4d57679e28b2133d7e994267c76550",
          "topics": [
            "0xfd0a74cd9439908a3aecc74e2d38c760ae56b4df3da24c9723da70b461d3a35d",
            "0x0000000000000000000000000000000000000000000000000000000000077119",
            "0x000000000000000000000000e7dab1389f7abdc16044f61cedfcc5086012e0b4"
          ],
          "data": "0x00000000000000000000000000000000000000000000000000000000000000000000000000000000000000000000000000000000000000000000000000000064",
          "blockHash": "0x034cfa19ae1e615908668bb0b40489bab90a9a0f5186ad8022fe32feaa2be0b7",
          "blockNumber": "0xb176618",
          "transactionHash": "0xad61311ab313f4897fcdb2903494a4646922eb87262e8d6c8ecd60d671df8d24",
          "transactionIndex": "0x3",
          "logIndex": "0x4",
          "removed": false
        },
        {
          "address": "0x495c42ea5e1f7d7eddfb458184b44fa78725faf9",
          "topics": [
            "0xddf252ad1be2c89b69c2b068fc378daa952ba7f163c4a11628f55a4df523b3ef",
            "0x000000000000000000000000e7dab1389f7abdc16044f61cedfcc5086012e0b4",
            "0x000000000000000000000000b97241446b4d57679e28b2133d7e994267c76550"
          ],
          "data": "0x00000000000000000000000000000000000000000000000000000000000f4240",
          "blockHash": "0x034cfa19ae1e615908668bb0b40489bab90a9a0f5186ad8022fe32feaa2be0b7",
          "blockNumber": "0xb176618",
          "transactionHash": "0xad61311ab313f4897fcdb2903494a4646922eb87262e8d6c8ecd60d671df8d24",
          "transactionIndex": "0x3",
          "logIndex": "0x5",
          "removed": false
        }
      ],
      "logsBloom": "0x00000000000000000000008000000000000000000000000000000000000000000400000000000000000004002002000000000000000000020000000002000000000000000000000000000008000000000000008000000000000000000000000000040000000000000000000000000000000000002000000000000010000000000000004000000000000080000000000000000000000000000000000000000000000000000000000000000000000000000000000000000000000000000000000000000002000000040080000000000000000000000000080000000000000002000000000000000000000001000000000000000000000000000000020000000000",
      "type": "0x2",
      "transactionHash": "0xad61311ab313f4897fcdb2903494a4646922eb87262e8d6c8ecd60d671df8d24",
      "transactionIndex": "0x3",
      "blockHash": "0x034cfa19ae1e615908668bb0b40489bab90a9a0f5186ad8022fe32feaa2be0b7",
      "blockNumber": "0xb176618",
      "gasUsed": "0x2b9de",
      "effectiveGasPrice": "0x5f5e100",
      "from": "0xe7dab1389f7abdc16044f61cedfcc5086012e0b4",
      "to": "0xb97241446b4d57679e28b2133d7e994267c76550",
      "contractAddress": null,
      "gasUsedForL1": "0x0",
      "l1BlockNumber": "0x89c710",
      "timeboosted": false
    }
  ],
  "libraries": [],
  "pending": [],
  "returns": {},
  "timestamp": 1755741514,
  "chain": 421614,
  "commit": "f81e8f9"
}