{
  "transactions": [
    {
      "hash": "0x45142ecef0ca29153d04e6388b6ca45013c1663b45f546d3c4a002018f419109",
      "transactionType": "CALL",
      "contractName": null,
      "contractAddress": "0x335c3009548f4a392e72b7d062e13fb27338a47a",
      "function": null,
      "arguments": null,
      "transaction": {
        "from": "0x94cf685cc5d26828e2ca4c9c571249fc9b1d16be",
        "to": "0x335c3009548f4a392e72b7d062e13fb27338a47a",
        "gas": "0x6bf4",
        "value": "0xb5e620f48000",
        "input": "0x",
        "nonce": "0x2b",
        "chainId": "0x66eee"
      },
      "additionalContracts": [],
      "isFixedGasLimit": false
    },
    {
      "hash": "0xc13f5142c42f93aca7c094f28ff1e93c9e4e0c691e9dcb8b9ff51d84c339360f",
      "transactionType": "CALL",
      "contractName": null,
      "contractAddress": "0x495c42ea5e1f7d7eddfb458184b44fa78725faf9",
      "function": "mint(address,uint256)",
      "arguments": [
        "0x335c3009548F4A392E72B7D062E13Fb27338A47A",
        "10000000"
      ],
      "transaction": {
        "from": "0x94cf685cc5d26828e2ca4c9c571249fc9b1d16be",
        "to": "0x495c42ea5e1f7d7eddfb458184b44fa78725faf9",
        "gas": "0xbeb9",
        "value": "0x0",
        "input": "0x40c10f19000000000000000000000000335c3009548f4a392e72b7d062e13fb27338a47a0000000000000000000000000000000000000000000000000000000000989680",
        "nonce": "0x2c",
        "chainId": "0x66eee"
      },
      "additionalContracts": [],
      "isFixedGasLimit": false
    },
    {
      "hash": "0xaf310e4a351449c97b17af66b0da5c28d1d1f4ebf4af019c9419cd1f1065c0bf",
      "transactionType": "CALL",
      "contractName": null,
      "contractAddress": "0x783c89d1f3b8707ad191c4b86dd44e901b4f6de9",
      "function": null,
      "arguments": null,
      "transaction": {
        "from": "0x94cf685cc5d26828e2ca4c9c571249fc9b1d16be",
        "to": "0x783c89d1f3b8707ad191c4b86dd44e901b4f6de9",
        "gas": "0x6bf4",
        "value": "0xb5e620f48000",
        "input": "0x",
        "nonce": "0x2d",
        "chainId": "0x66eee"
      },
      "additionalContracts": [],
      "isFixedGasLimit": false
    },
    {
      "hash": "0x5afed976bfe6df326c926f97a7676a0e30b39695a43dd6ea254a2e41db68a7c6",
      "transactionType": "CALL",
      "contractName": null,
      "contractAddress": "0x495c42ea5e1f7d7eddfb458184b44fa78725faf9",
      "function": "mint(address,uint256)",
      "arguments": [
        "0x783C89d1F3B8707aD191c4B86Dd44E901b4F6De9",
        "10000000"
      ],
      "transaction": {
        "from": "0x94cf685cc5d26828e2ca4c9c571249fc9b1d16be",
        "to": "0x495c42ea5e1f7d7eddfb458184b44fa78725faf9",
        "gas": "0xbeb9",
        "value": "0x0",
        "input": "0x40c10f19000000000000000000000000783c89d1f3b8707ad191c4b86dd44e901b4f6de90000000000000000000000000000000000000000000000000000000000989680",
        "nonce": "0x2e",
        "chainId": "0x66eee"
      },
      "additionalContracts": [],
      "isFixedGasLimit": false
    },
    {
      "hash": "0xcba9eabe03d4a0ee83831be60a40f284ec9f12b6c064ad358878361f511701b6",
      "transactionType": "CALL",
      "contractName": null,
      "contractAddress": "0xdf0777621ba83142ddd349eeae122f132f41b61b",
      "function": null,
      "arguments": null,
      "transaction": {
        "from": "0x94cf685cc5d26828e2ca4c9c571249fc9b1d16be",
        "to": "0xdf0777621ba83142ddd349eeae122f132f41b61b",
        "gas": "0x6bf4",
        "value": "0xb5e620f48000",
        "input": "0x",
        "nonce": "0x2f",
        "chainId": "0x66eee"
      },
      "additionalContracts": [],
      "isFixedGasLimit": false
    },
    {
      "hash": "0xd1500f9d018b36df10bab74a0fc0f7208663f0731eba19277a288e3f7b6159b4",
      "transactionType": "CALL",
      "contractName": null,
      "contractAddress": "0x495c42ea5e1f7d7eddfb458184b44fa78725faf9",
      "function": "mint(address,uint256)",
      "arguments": [
        "0xdF0777621bA83142ddd349eeAE122f132f41b61B",
        "10000000"
      ],
      "transaction": {
        "from": "0x94cf685cc5d26828e2ca4c9c571249fc9b1d16be",
        "to": "0x495c42ea5e1f7d7eddfb458184b44fa78725faf9",
        "gas": "0xbeb9",
        "value": "0x0",
        "input": "0x40c10f19000000000000000000000000df0777621ba83142ddd349eeae122f132f41b61b0000000000000000000000000000000000000000000000000000000000989680",
        "nonce": "0x30",
        "chainId": "0x66eee"
      },
      "additionalContracts": [],
      "isFixedGasLimit": false
    },
    {
      "hash": "0xf733946f6079b20677fea7ff5f9a15cf22381118f79207761a81d4e47c02e85d",
      "transactionType": "CALL",
      "contractName": null,
      "contractAddress": "0xf1c8194d42f50c64685604fea60f23ade0ffba76",
      "function": null,
      "arguments": null,
      "transaction": {
        "from": "0x94cf685cc5d26828e2ca4c9c571249fc9b1d16be",
        "to": "0xf1c8194d42f50c64685604fea60f23ade0ffba76",
        "gas": "0x6bf4",
        "value": "0xb5e620f48000",
        "input": "0x",
        "nonce": "0x31",
        "chainId": "0x66eee"
      },
      "additionalContracts": [],
      "isFixedGasLimit": false
    },
    {
      "hash": "0xad00a76c128c920cc81f03d7a4e1b5547760a1f4cd9fe44229de5c240ba06fc5",
      "transactionType": "CALL",
      "contractName": null,
      "contractAddress": "0x495c42ea5e1f7d7eddfb458184b44fa78725faf9",
      "function": "mint(address,uint256)",
      "arguments": [
        "0xF1c8194d42F50C64685604fea60F23Ade0fFBA76",
        "10000000"
      ],
      "transaction": {
        "from": "0x94cf685cc5d26828e2ca4c9c571249fc9b1d16be",
        "to": "0x495c42ea5e1f7d7eddfb458184b44fa78725faf9",
        "gas": "0xbeb9",
        "value": "0x0",
        "input": "0x40c10f19000000000000000000000000f1c8194d42f50c64685604fea60f23ade0ffba760000000000000000000000000000000000000000000000000000000000989680",
        "nonce": "0x32",
        "chainId": "0x66eee"
      },
      "additionalContracts": [],
      "isFixedGasLimit": false
    },
    {
      "hash": "0x9ea8e0ea75f2fe4b462cd5d5270d56ee8e9894d7aeaba5fbbff1a5c915d81291",
      "transactionType": "CALL",
      "contractName": null,
      "contractAddress": "0xb1138094397f7f3ef1200c123e1539c6a5ad1738",
      "function": null,
      "arguments": null,
      "transaction": {
        "from": "0x94cf685cc5d26828e2ca4c9c571249fc9b1d16be",
        "to": "0xb1138094397f7f3ef1200c123e1539c6a5ad1738",
        "gas": "0x6bf4",
        "value": "0xb5e620f48000",
        "input": "0x",
        "nonce": "0x33",
        "chainId": "0x66eee"
      },
      "additionalContracts": [],
      "isFixedGasLimit": false
    },
    {
      "hash": "0xdb4b4d57fe2a2f5f5fff4f0965bc4f942ccc6c6317402ee80373023654bc4512",
      "transactionType": "CALL",
      "contractName": null,
      "contractAddress": "0x495c42ea5e1f7d7eddfb458184b44fa78725faf9",
      "function": "mint(address,uint256)",
      "arguments": [
        "0xb1138094397f7F3EF1200C123E1539c6a5AD1738",
        "10000000"
      ],
      "transaction": {
        "from": "0x94cf685cc5d26828e2ca4c9c571249fc9b1d16be",
        "to": "0x495c42ea5e1f7d7eddfb458184b44fa78725faf9",
        "gas": "0xbeb9",
        "value": "0x0",
        "input": "0x40c10f19000000000000000000000000b1138094397f7f3ef1200c123e1539c6a5ad17380000000000000000000000000000000000000000000000000000000000989680",
        "nonce": "0x34",
        "chainId": "0x66eee"
      },
      "additionalContracts": [],
      "isFixedGasLimit": false
    },
    {
      "hash": "0xb1ef299a0c7a17038cf7a66e1dc7cf32e74c86ea114f1feb8366290d1dd744ae",
      "transactionType": "CALL",
      "contractName": null,
      "contractAddress": "0xe7dab1389f7abdc16044f61cedfcc5086012e0b4",
      "function": null,
      "arguments": null,
      "transaction": {
        "from": "0x94cf685cc5d26828e2ca4c9c571249fc9b1d16be",
        "to": "0xe7dab1389f7abdc16044f61cedfcc5086012e0b4",
        "gas": "0x6bf4",
        "value": "0xb5e620f48000",
        "input": "0x",
        "nonce": "0x35",
        "chainId": "0x66eee"
      },
      "additionalContracts": [],
      "isFixedGasLimit": false
    },
    {
      "hash": "0x39575ef2d4295b8601828b9303c918dc277c9d8c18cd0092387fff8a55ca03a6",
      "transactionType": "CALL",
      "contractName": null,
      "contractAddress": "0x495c42ea5e1f7d7eddfb458184b44fa78725faf9",
      "function": "mint(address,uint256)",
      "arguments": [
        "0xE7daB1389F7aBDc16044F61CEdfcC5086012E0B4",
        "10000000"
      ],
      "transaction": {
        "from": "0x94cf685cc5d26828e2ca4c9c571249fc9b1d16be",
        "to": "0x495c42ea5e1f7d7eddfb458184b44fa78725faf9",
        "gas": "0xbeb9",
        "value": "0x0",
        "input": "0x40c10f19000000000000000000000000e7dab1389f7abdc16044f61cedfcc5086012e0b40000000000000000000000000000000000000000000000000000000000989680",
        "nonce": "0x36",
        "chainId": "0x66eee"
      },
      "additionalContracts": [],
      "isFixedGasLimit": false
    },
    {
      "hash": "0x85bfcbcdfd5042a0e3fa08c776e2efd66f5e3104177cb0a90ab2dbc8f413ab5a",
      "transactionType": "CALL",
      "contractName": null,
      "contractAddress": "0x495c42ea5e1f7d7eddfb458184b44fa78725faf9",
      "function": "approve(address,uint256)",
      "arguments": [
        "0xfA5c0E6982cd399598F9300cC1d080957470431e",
        "115792089237316195423570985008687907853269984665640564039457584007913129639935"
      ],
      "transaction": {
        "from": "0x335c3009548f4a392e72b7d062e13fb27338a47a",
        "to": "0x495c42ea5e1f7d7eddfb458184b44fa78725faf9",
        "gas": "0x8d46",
        "value": "0x0",
        "input": "0x095ea7b3000000000000000000000000fa5c0e6982cd399598f9300cc1d080957470431effffffffffffffffffffffffffffffffffffffffffffffffffffffffffffffff",
        "nonce": "0x2",
        "chainId": "0x66eee"
      },
      "additionalContracts": [],
      "isFixedGasLimit": false
    },
    {
      "hash": "0xbb2bbe10058c8fb1036f59f4fd63249fc3688eca0a56438a9a915d569055bb5c",
      "transactionType": "CALL",
      "contractName": null,
      "contractAddress": "0xfa5c0e6982cd399598f9300cc1d080957470431e",
      "function": "buyTicket(uint8)",
      "arguments": [
        "1"
      ],
      "transaction": {
        "from": "0x335c3009548f4a392e72b7d062e13fb27338a47a",
        "to": "0xfa5c0e6982cd399598f9300cc1d080957470431e",
        "gas": "0x45a2a",
        "value": "0x0",
        "input": "0x023697f00000000000000000000000000000000000000000000000000000000000000001",
        "nonce": "0x3",
        "chainId": "0x66eee"
      },
      "additionalContracts": [],
      "isFixedGasLimit": false
    },
    {
      "hash": "0x8d0de67cd8f4d34e592fefb1457c53301396758c10af049dde3c83c059d86040",
      "transactionType": "CALL",
      "contractName": null,
      "contractAddress": "0x495c42ea5e1f7d7eddfb458184b44fa78725faf9",
      "function": "approve(address,uint256)",
      "arguments": [
        "0xfA5c0E6982cd399598F9300cC1d080957470431e",
        "115792089237316195423570985008687907853269984665640564039457584007913129639935"
      ],
      "transaction": {
        "from": "0x783c89d1f3b8707ad191c4b86dd44e901b4f6de9",
        "to": "0x495c42ea5e1f7d7eddfb458184b44fa78725faf9",
        "gas": "0x8d46",
        "value": "0x0",
        "input": "0x095ea7b3000000000000000000000000fa5c0e6982cd399598f9300cc1d080957470431effffffffffffffffffffffffffffffffffffffffffffffffffffffffffffffff",
        "nonce": "0x2",
        "chainId": "0x66eee"
      },
      "additionalContracts": [],
      "isFixedGasLimit": false
    },
    {
      "hash": "0x12bd7334af0ec3922f92c8ec6a5ed14db3ab684614c6991f02d8137e33567b41",
      "transactionType": "CALL",
      "contractName": null,
      "contractAddress": "0xfa5c0e6982cd399598f9300cc1d080957470431e",
      "function": "buyTicket(uint8)",
      "arguments": [
        "1"
      ],
      "transaction": {
        "from": "0x783c89d1f3b8707ad191c4b86dd44e901b4f6de9",
        "to": "0xfa5c0e6982cd399598f9300cc1d080957470431e",
        "gas": "0x45a2a",
        "value": "0x0",
        "input": "0x023697f00000000000000000000000000000000000000000000000000000000000000001",
        "nonce": "0x3",
        "chainId": "0x66eee"
      },
      "additionalContracts": [],
      "isFixedGasLimit": false
    },
    {
      "hash": "0x5e3f1ed610a36d4028388d7ef86e0a00813a6fe6ce99930204f3652895a1261b",
      "transactionType": "CALL",
      "contractName": null,
      "contractAddress": "0x495c42ea5e1f7d7eddfb458184b44fa78725faf9",
      "function": "approve(address,uint256)",
      "arguments": [
        "0xfA5c0E6982cd399598F9300cC1d080957470431e",
        "115792089237316195423570985008687907853269984665640564039457584007913129639935"
      ],
      "transaction": {
        "from": "0xdf0777621ba83142ddd349eeae122f132f41b61b",
        "to": "0x495c42ea5e1f7d7eddfb458184b44fa78725faf9",
        "gas": "0x8d46",
        "value": "0x0",
        "input": "0x095ea7b3000000000000000000000000fa5c0e6982cd399598f9300cc1d080957470431effffffffffffffffffffffffffffffffffffffffffffffffffffffffffffffff",
        "nonce": "0x2",
        "chainId": "0x66eee"
      },
      "additionalContracts": [],
      "isFixedGasLimit": false
    },
    {
      "hash": "0x7a7e3321f12e94c61de98c6411659b1cef3242d0cc004ce5963ac48e3a8df4a0",
      "transactionType": "CALL",
      "contractName": null,
      "contractAddress": "0xfa5c0e6982cd399598f9300cc1d080957470431e",
      "function": "buyTicket(uint8)",
      "arguments": [
        "0"
      ],
      "transaction": {
        "from": "0xdf0777621ba83142ddd349eeae122f132f41b61b",
        "to": "0xfa5c0e6982cd399598f9300cc1d080957470431e",
        "gas": "0x3f3c9",
        "value": "0x0",
        "input": "0x023697f00000000000000000000000000000000000000000000000000000000000000000",
        "nonce": "0x3",
        "chainId": "0x66eee"
      },
      "additionalContracts": [],
      "isFixedGasLimit": false
    },
    {
      "hash": "0xe1ba25e09f3303a25ca4ec6585412beab4ffd9a7d7c16f1904a2451c156f0cab",
      "transactionType": "CALL",
      "contractName": null,
      "contractAddress": "0x495c42ea5e1f7d7eddfb458184b44fa78725faf9",
      "function": "approve(address,uint256)",
      "arguments": [
        "0xfA5c0E6982cd399598F9300cC1d080957470431e",
        "115792089237316195423570985008687907853269984665640564039457584007913129639935"
      ],
      "transaction": {
        "from": "0xf1c8194d42f50c64685604fea60f23ade0ffba76",
        "to": "0x495c42ea5e1f7d7eddfb458184b44fa78725faf9",
        "gas": "0x8d46",
        "value": "0x0",
        "input": "0x095ea7b3000000000000000000000000fa5c0e6982cd399598f9300cc1d080957470431effffffffffffffffffffffffffffffffffffffffffffffffffffffffffffffff",
        "nonce": "0x2",
        "chainId": "0x66eee"
      },
      "additionalContracts": [],
      "isFixedGasLimit": false
    },
    {
      "hash": "0xabd8a6c8e665a9773facabf1a232cc405198f1378e2bc981c37417611c0a9f93",
      "transactionType": "CALL",
      "contractName": null,
      "contractAddress": "0xfa5c0e6982cd399598f9300cc1d080957470431e",
      "function": "buyTicket(uint8)",
      "arguments": [
        "0"
      ],
      "transaction": {
        "from": "0xf1c8194d42f50c64685604fea60f23ade0ffba76",
        "to": "0xfa5c0e6982cd399598f9300cc1d080957470431e",
        "gas": "0x3f3c9",
        "value": "0x0",
        "input": "0x023697f00000000000000000000000000000000000000000000000000000000000000000",
        "nonce": "0x3",
        "chainId": "0x66eee"
      },
      "additionalContracts": [],
      "isFixedGasLimit": false
    },
    {
      "hash": "0xbbc9938f8ab5343d8a489d9796f99be64287ad06eb6cc4c85cffd69c5b336693",
      "transactionType": "CALL",
      "contractName": null,
      "contractAddress": "0x495c42ea5e1f7d7eddfb458184b44fa78725faf9",
      "function": "approve(address,uint256)",
      "arguments": [
        "0xfA5c0E6982cd399598F9300cC1d080957470431e",
        "115792089237316195423570985008687907853269984665640564039457584007913129639935"
      ],
      "transaction": {
        "from": "0xb1138094397f7f3ef1200c123e1539c6a5ad1738",
        "to": "0x495c42ea5e1f7d7eddfb458184b44fa78725faf9",
        "gas": "0x8d46",
        "value": "0x0",
        "input": "0x095ea7b3000000000000000000000000fa5c0e6982cd399598f9300cc1d080957470431effffffffffffffffffffffffffffffffffffffffffffffffffffffffffffffff",
        "nonce": "0x2",
        "chainId": "0x66eee"
      },
      "additionalContracts": [],
      "isFixedGasLimit": false
    },
    {
      "hash": "0xa713766e6c951203e18685450eb3c6412dd1bbb23d11e0e043e371cca36131c1",
      "transactionType": "CALL",
      "contractName": null,
      "contractAddress": "0xfa5c0e6982cd399598f9300cc1d080957470431e",
      "function": "buyTicket(uint8)",
      "arguments": [
        "0"
      ],
      "transaction": {
        "from": "0xb1138094397f7f3ef1200c123e1539c6a5ad1738",
        "to": "0xfa5c0e6982cd399598f9300cc1d080957470431e",
        "gas": "0x3f3c9",
        "value": "0x0",
        "input": "0x023697f00000000000000000000000000000000000000000000000000000000000000000",
        "nonce": "0x3",
        "chainId": "0x66eee"
      },
      "additionalContracts": [],
      "isFixedGasLimit": false
    },
    {
      "hash": "0x07a2d9d1f5ae4a7652e1ef92728f91cfdbad4b49e87dc0f3c40c09f2a6b2e150",
      "transactionType": "CALL",
      "contractName": null,
      "contractAddress": "0x495c42ea5e1f7d7eddfb458184b44fa78725faf9",
      "function": "approve(address,uint256)",
      "arguments": [
        "0xfA5c0E6982cd399598F9300cC1d080957470431e",
        "115792089237316195423570985008687907853269984665640564039457584007913129639935"
      ],
      "transaction": {
        "from": "0xe7dab1389f7abdc16044f61cedfcc5086012e0b4",
        "to": "0x495c42ea5e1f7d7eddfb458184b44fa78725faf9",
        "gas": "0x8d46",
        "value": "0x0",
        "input": "0x095ea7b3000000000000000000000000fa5c0e6982cd399598f9300cc1d080957470431effffffffffffffffffffffffffffffffffffffffffffffffffffffffffffffff",
        "nonce": "0x2",
        "chainId": "0x66eee"
      },
      "additionalContracts": [],
      "isFixedGasLimit": false
    },
    {
      "hash": "0x35f136f7e5c8987d172bc991c679170c501e3866446dc5063c2867194a761f6a",
      "transactionType": "CALL",
      "contractName": null,
      "contractAddress": "0xfa5c0e6982cd399598f9300cc1d080957470431e",
      "function": "buyTicket(uint8)",
      "arguments": [
        "0"
      ],
      "transaction": {
        "from": "0xe7dab1389f7abdc16044f61cedfcc5086012e0b4",
        "to": "0xfa5c0e6982cd399598f9300cc1d080957470431e",
        "gas": "0x3f3c9",
        "value": "0x0",
        "input": "0x023697f00000000000000000000000000000000000000000000000000000000000000000",
        "nonce": "0x3",
        "chainId": "0x66eee"
      },
      "additionalContracts": [],
      "isFixedGasLimit": false
    }
  ],
  "receipts": [
    {
      "status": "0x1",
      "cumulativeGasUsed": "0x524f",
      "logs": [],
      "logsBloom": "0x00000000000000000000000000000000000000000000000000000000000000000000000000000000000000000000000000000000000000000000000000000000000000000000000000000000000000000000000000000000000000000000000000000000000000000000000000000000000000000000000000000000000000000000000000000000000000000000000000000000000000000000000000000000000000000000000000000000000000000000000000000000000000000000000000000000000000000000000000000000000000000000000000000000000000000000000000000000000000000000000000000000000000000000000000000000",
      "type": "0x2",
      "transactionHash": "0x45142ecef0ca29153d04e6388b6ca45013c1663b45f546d3c4a002018f419109",
      "transactionIndex": "0x1",
      "blockHash": "0x5a63a9493053e498ac073ea64c4671f8b185b639e4cecb360d6214a423fe276d",
      "blockNumber": "0xb0981e7",
      "gasUsed": "0x524f",
      "effectiveGasPrice": "0x5f5e100",
      "from": "0x94cf685cc5d26828e2ca4c9c571249fc9b1d16be",
      "to": "0x335c3009548f4a392e72b7d062e13fb27338a47a",
      "contractAddress": null,
      "gasUsedForL1": "0x47",
      "l1BlockNumber": "0x8979fc",
      "timeboosted": false
    },
    {
      "status": "0x1",
      "cumulativeGasUsed": "0xae67c",
      "logs": [
        {
          "address": "0x495c42ea5e1f7d7eddfb458184b44fa78725faf9",
          "topics": [
            "0xddf252ad1be2c89b69c2b068fc378daa952ba7f163c4a11628f55a4df523b3ef",
            "0x0000000000000000000000000000000000000000000000000000000000000000",
            "0x000000000000000000000000335c3009548f4a392e72b7d062e13fb27338a47a"
          ],
          "data": "0x0000000000000000000000000000000000000000000000000000000000989680",
          "blockHash": "0xedd962077bdd4f9cf866c996c436a1393a524c77f8cdab19cda0e119040226a7",
          "blockNumber": "0xb0981ee",
          "transactionHash": "0xc13f5142c42f93aca7c094f28ff1e93c9e4e0c691e9dcb8b9ff51d84c339360f",
          "transactionIndex": "0x2",
          "logIndex": "0x1",
          "removed": false
        }
      ],
      "logsBloom": "0x01000000000000000000000000000000000080000000000000000000000000000000000000000000000000000000000000000000000000000000000002000000000000000000000000000008000000000000000000000000000000000000000000000000020000000000000000000800000000000000000000000010000000000000000000000000000000000000000000000000000000000000000000000000000000000000000000000000000000000000000000000000000000000000000000000002000000000000000000000000000000000000090000000000000020000000000000000000000000000000000000000000000000000000020000000000",
      "type": "0x2",
      "transactionHash": "0xc13f5142c42f93aca7c094f28ff1e93c9e4e0c691e9dcb8b9ff51d84c339360f",
      "transactionIndex": "0x2",
      "blockHash": "0xedd962077bdd4f9cf866c996c436a1393a524c77f8cdab19cda0e119040226a7",
      "blockNumber": "0xb0981ee",
      "gasUsed": "0x9130",
      "effectiveGasPrice": "0x5f5e100",
      "from": "0x94cf685cc5d26828e2ca4c9c571249fc9b1d16be",
      "to": "0x495c42ea5e1f7d7eddfb458184b44fa78725faf9",
      "contractAddress": null,
      "gasUsedForL1": "0x6d",
      "l1BlockNumber": "0x8979fc",
      "timeboosted": false
    },
    {
      "status": "0x1",
      "cumulativeGasUsed": "0x2194e",
      "logs": [],
      "logsBloom": "0x00000000000000000000000000000000000000000000000000000000000000000000000000000000000000000000000000000000000000000000000000000000000000000000000000000000000000000000000000000000000000000000000000000000000000000000000000000000000000000000000000000000000000000000000000000000000000000000000000000000000000000000000000000000000000000000000000000000000000000000000000000000000000000000000000000000000000000000000000000000000000000000000000000000000000000000000000000000000000000000000000000000000000000000000000000000",
      "type": "0x2",
      "transactionHash": "0xaf310e4a351449c97b17af66b0da5c28d1d1f4ebf4af019c9419cd1f1065c0bf",
      "transactionIndex": "0x2",
      "blockHash": "0x53d01d7265fa89320cda4583184a7308bf2d2ec60aafc0f22e83567f9c673489",
      "blockNumber": "0xb0981f6",
      "gasUsed": "0x524f",
      "effectiveGasPrice": "0x5f5e100",
      "from": "0x94cf685cc5d26828e2ca4c9c571249fc9b1d16be",
      "to": "0x783c89d1f3b8707ad191c4b86dd44e901b4f6de9",
      "contractAddress": null,
      "gasUsedForL1": "0x47",
      "l1BlockNumber": "0x8979fd",
      "timeboosted": false
    },
    {
      "status": "0x1",
      "cumulativeGasUsed": "0x257a5",
      "logs": [
        {
          "address": "0x495c42ea5e1f7d7eddfb458184b44fa78725faf9",
          "topics": [
            "0xddf252ad1be2c89b69c2b068fc378daa952ba7f163c4a11628f55a4df523b3ef",
            "0x0000000000000000000000000000000000000000000000000000000000000000",
            "0x000000000000000000000000783c89d1f3b8707ad191c4b86dd44e901b4f6de9"
          ],
          "data": "0x0000000000000000000000000000000000000000000000000000000000989680",
          "blockHash": "0x8abe119b82773df5a49c3155d6056d69b9077ad09531de40afce07af0224c680",
          "blockNumber": "0xb0981fe",
          "transactionHash": "0x5afed976bfe6df326c926f97a7676a0e30b39695a43dd6ea254a2e41db68a7c6",
          "transactionIndex": "0x2",
          "logIndex": "0x4",
          "removed": false
        }
      ],
      "logsBloom": "0x00000000000000000000001000000000000000000000000000000000000000000000000000000000000000000000000000000000000000000000000002000000000000000000000000000008000000000000000000000000000000000000000000000000020000000000000000000800000000000000000000000010000000000000000000000000004000000000000000000000000000000000000000000000000000000000000000000000000000000000000000000000000000000000010000000002000000000000000000000000000000000000080000000000000020000000000000000000000000000000000000000000000000000000020000000000",
      "type": "0x2",
      "transactionHash": "0x5afed976bfe6df326c926f97a7676a0e30b39695a43dd6ea254a2e41db68a7c6",
      "transactionIndex": "0x2",
      "blockHash": "0x8abe119b82773df5a49c3155d6056d69b9077ad09531de40afce07af0224c680",
      "blockNumber": "0xb0981fe",
      "gasUsed": "0x9130",
      "effectiveGasPrice": "0x5f5e100",
      "from": "0x94cf685cc5d26828e2ca4c9c571249fc9b1d16be",
      "to": "0x495c42ea5e1f7d7eddfb458184b44fa78725faf9",
      "contractAddress": null,
      "gasUsedForL1": "0x6d",
      "l1BlockNumber": "0x8979fd",
      "timeboosted": false
    },
    {
      "status": "0x1",
      "cumulativeGasUsed": "0x24016",
      "logs": [],
      "logsBloom": "0x00000000000000000000000000000000000000000000000000000000000000000000000000000000000000000000000000000000000000000000000000000000000000000000000000000000000000000000000000000000000000000000000000000000000000000000000000000000000000000000000000000000000000000000000000000000000000000000000000000000000000000000000000000000000000000000000000000000000000000000000000000000000000000000000000000000000000000000000000000000000000000000000000000000000000000000000000000000000000000000000000000000000000000000000000000000",
      "type": "0x2",
      "transactionHash": "0xcba9eabe03d4a0ee83831be60a40f284ec9f12b6c064ad358878361f511701b6",
      "transactionIndex": "0x2",
      "blockHash": "0x3393b9000b5b4b499f140c3ab14de1ec99510034aa722fb97799ef56c156227c",
      "blockNumber": "0xb098205",
      "gasUsed": "0x524f",
      "effectiveGasPrice": "0x5f5e100",
      "from": "0x94cf685cc5d26828e2ca4c9c571249fc9b1d16be",
      "to": "0xdf0777621ba83142ddd349eeae122f132f41b61b",
      "contractAddress": null,
      "gasUsedForL1": "0x47",
      "l1BlockNumber": "0x8979fd",
      "timeboosted": false
    },
    {
      "status": "0x1",
      "cumulativeGasUsed": "0x9130",
      "logs": [
        {
          "address": "0x495c42ea5e1f7d7eddfb458184b44fa78725faf9",
          "topics": [
            "0xddf252ad1be2c89b69c2b068fc378daa952ba7f163c4a11628f55a4df523b3ef",
            "0x0000000000000000000000000000000000000000000000000000000000000000",
            "0x000000000000000000000000df0777621ba83142ddd349eeae122f132f41b61b"
          ],
          "data": "0x0000000000000000000000000000000000000000000000000000000000989680",
          "blockHash": "0xe00aec7b6317d6a56911234b42d1835fccf3db48afaba4c1dd68e568b7b9694d",
          "blockNumber": "0xb09820c",
          "transactionHash": "0xd1500f9d018b36df10bab74a0fc0f7208663f0731eba19277a288e3f7b6159b4",
          "transactionIndex": "0x1",
          "logIndex": "0x0",
          "removed": false
        }
      ],
      "logsBloom": "0x00000000000000000000000000080000000000000000000000000000000000000000000000000000000000000000000000200000000000000000000002000000000000000000000000000088000000000000000000000000000000000000000000000000020000000000000000000800000000000000000000000010000000000000000000000000000000000000000000000000000000000000000000000000000000000000000000000000000000000000000000000000000000000000000000000002000000000000000000000000000000000000080000000000000020000000000000000000000000000000000000000000000000000000020000000000",
      "type": "0x2",
      "transactionHash": "0xd1500f9d018b36df10bab74a0fc0f7208663f0731eba19277a288e3f7b6159b4",
      "transactionIndex": "0x1",
      "blockHash": "0xe00aec7b6317d6a56911234b42d1835fccf3db48afaba4c1dd68e568b7b9694d",
      "blockNumber": "0xb09820c",
      "gasUsed": "0x9130",
      "effectiveGasPrice": "0x5f5e100",
      "from": "0x94cf685cc5d26828e2ca4c9c571249fc9b1d16be",
      "to": "0x495c42ea5e1f7d7eddfb458184b44fa78725faf9",
      "contractAddress": null,
      "gasUsedForL1": "0x6d",
      "l1BlockNumber": "0x8979fd",
      "timeboosted": false
    },
    {
      "status": "0x1",
      "cumulativeGasUsed": "0x524f",
      "logs": [],
      "logsBloom": "0x00000000000000000000000000000000000000000000000000000000000000000000000000000000000000000000000000000000000000000000000000000000000000000000000000000000000000000000000000000000000000000000000000000000000000000000000000000000000000000000000000000000000000000000000000000000000000000000000000000000000000000000000000000000000000000000000000000000000000000000000000000000000000000000000000000000000000000000000000000000000000000000000000000000000000000000000000000000000000000000000000000000000000000000000000000000",
      "type": "0x2",
      "transactionHash": "0xf733946f6079b20677fea7ff5f9a15cf22381118f79207761a81d4e47c02e85d",
      "transactionIndex": "0x1",
      "blockHash": "0xddef621391dcc5ba7c0c118f7d892becfc9e787f24b174beb65e0ebd8d993ecb",
      "blockNumber": "0xb098213",
      "gasUsed": "0x524f",
      "effectiveGasPrice": "0x5f5e100",
      "from": "0x94cf685cc5d26828e2ca4c9c571249fc9b1d16be",
      "to": "0xf1c8194d42f50c64685604fea60f23ade0ffba76",
      "contractAddress": null,
      "gasUsedForL1": "0x47",
      "l1BlockNumber": "0x8979fd",
      "timeboosted": false
    },
    {
      "status": "0x1",
      "cumulativeGasUsed": "0xbcfde",
      "logs": [
        {
          "address": "0x495c42ea5e1f7d7eddfb458184b44fa78725faf9",
          "topics": [
            "0xddf252ad1be2c89b69c2b068fc378daa952ba7f163c4a11628f55a4df523b3ef",
            "0x0000000000000000000000000000000000000000000000000000000000000000",
            "0x000000000000000000000000f1c8194d42f50c64685604fea60f23ade0ffba76"
          ],
          "data": "0x0000000000000000000000000000000000000000000000000000000000989680",
          "blockHash": "0x3c0b9b7628bb892c8cea6bff9a3d9e900fd3861dcf403753ee4e835bde1ae4fe",
          "blockNumber": "0xb09821b",
          "transactionHash": "0xad00a76c128c920cc81f03d7a4e1b5547760a1f4cd9fe44229de5c240ba06fc5",
          "transactionIndex": "0x7",
          "logIndex": "0x18",
          "removed": false
        }
      ],
      "logsBloom": "0x00000000000000000000000000000000000000000000000000000000000000000000000000000000000000000000000000000000000000000001000002000000000000000000000000000008000000020000000000000000000000000000000040000000020000000000000000000800000000000000000000000010000000000000000000000000000000000000000000000000000000000000000000000000000000000000000000000000000000000000000000000000000000000000000000000002000000000000000000000000000000000000080000000000000020000000000000000000000000000000000000000000000000000000020000000000",
      "type": "0x2",
      "transactionHash": "0xad00a76c128c920cc81f03d7a4e1b5547760a1f4cd9fe44229de5c240ba06fc5",
      "transactionIndex": "0x7",
      "blockHash": "0x3c0b9b7628bb892c8cea6bff9a3d9e900fd3861dcf403753ee4e835bde1ae4fe",
      "blockNumber": "0xb09821b",
      "gasUsed": "0x9130",
      "effectiveGasPrice": "0x5f5e100",
      "from": "0x94cf685cc5d26828e2ca4c9c571249fc9b1d16be",
      "to": "0x495c42ea5e1f7d7eddfb458184b44fa78725faf9",
      "contractAddress": null,
      "gasUsedForL1": "0x6d",
      "l1BlockNumber": "0x8979fd",
      "timeboosted": false
    },
    {
      "status": "0x1",
      "cumulativeGasUsed": "0x43c62",
      "logs": [],
      "logsBloom": "0x00000000000000000000000000000000000000000000000000000000000000000000000000000000000000000000000000000000000000000000000000000000000000000000000000000000000000000000000000000000000000000000000000000000000000000000000000000000000000000000000000000000000000000000000000000000000000000000000000000000000000000000000000000000000000000000000000000000000000000000000000000000000000000000000000000000000000000000000000000000000000000000000000000000000000000000000000000000000000000000000000000000000000000000000000000000",
      "type": "0x2",
      "transactionHash": "0x9ea8e0ea75f2fe4b462cd5d5270d56ee8e9894d7aeaba5fbbff1a5c915d81291",
      "transactionIndex": "0x3",
      "blockHash": "0x67701809ce6df11d48fe04721276dfb6a26718ba83e5a5b19f7a9793cda0594b",
      "blockNumber": "0xb098226",
      "gasUsed": "0x524f",
      "effectiveGasPrice": "0x5f5e100",
      "from": "0x94cf685cc5d26828e2ca4c9c571249fc9b1d16be",
      "to": "0xb1138094397f7f3ef1200c123e1539c6a5ad1738",
      "contractAddress": null,
      "gasUsedForL1": "0x47",
      "l1BlockNumber": "0x8979fd",
      "timeboosted": false
    },
    {
      "status": "0x1",
      "cumulativeGasUsed": "0xb8e7a",
      "logs": [
        {
          "address": "0x495c42ea5e1f7d7eddfb458184b44fa78725faf9",
          "topics": [
            "0xddf252ad1be2c89b69c2b068fc378daa952ba7f163c4a11628f55a4df523b3ef",
            "0x0000000000000000000000000000000000000000000000000000000000000000",
            "0x000000000000000000000000b1138094397f7f3ef1200c123e1539c6a5ad1738"
          ],
          "data": "0x0000000000000000000000000000000000000000000000000000000000989680",
          "blockHash": "0xf0b891e12184bb14e3738f48dd07d01e427b61a30a5f3f28c53194bafde0d1fa",
          "blockNumber": "0xb09822e",
          "transactionHash": "0xdb4b4d57fe2a2f5f5fff4f0965bc4f942ccc6c6317402ee80373023654bc4512",
          "transactionIndex": "0x7",
          "logIndex": "0x12",
          "removed": false
        }
      ],
      "logsBloom": "0x00000000000000000000000000000000000000000000000000000000000000000000000000000000000000000000000000000000000000000000000002000000000000000000000000000008000000000000000000000000200000000000000000000000020000000000000000000800000000000000000000000010000000000000000000000000000000000000000000000008000000000000000000000000000000000000000000000000000001000000000000000000000000000000000000000002000000000000000000000000000000000000080000000000000020000000000000000000000000000000000000000000000000000000020000000000",
      "type": "0x2",
      "transactionHash": "0xdb4b4d57fe2a2f5f5fff4f0965bc4f942ccc6c6317402ee80373023654bc4512",
      "transactionIndex": "0x7",
      "blockHash": "0xf0b891e12184bb14e3738f48dd07d01e427b61a30a5f3f28c53194bafde0d1fa",
      "blockNumber": "0xb09822e",
      "gasUsed": "0x9130",
      "effectiveGasPrice": "0x5f5e100",
      "from": "0x94cf685cc5d26828e2ca4c9c571249fc9b1d16be",
      "to": "0x495c42ea5e1f7d7eddfb458184b44fa78725faf9",
      "contractAddress": null,
      "gasUsedForL1": "0x6d",
      "l1BlockNumber": "0x8979fd",
      "timeboosted": false
    },
    {
      "status": "0x1",
      "cumulativeGasUsed": "0x524f",
      "logs": [],
      "logsBloom": "0x00000000000000000000000000000000000000000000000000000000000000000000000000000000000000000000000000000000000000000000000000000000000000000000000000000000000000000000000000000000000000000000000000000000000000000000000000000000000000000000000000000000000000000000000000000000000000000000000000000000000000000000000000000000000000000000000000000000000000000000000000000000000000000000000000000000000000000000000000000000000000000000000000000000000000000000000000000000000000000000000000000000000000000000000000000000",
      "type": "0x2",
      "transactionHash": "0xb1ef299a0c7a17038cf7a66e1dc7cf32e74c86ea114f1feb8366290d1dd744ae",
      "transactionIndex": "0x1",
      "blockHash": "0xb4334af2fa3a04c9b26ab8c9072858a0aa804517a98519ec0754e470963a1d58",
      "blockNumber": "0xb098236",
      "gasUsed": "0x524f",
      "effectiveGasPrice": "0x5f5e100",
      "from": "0x94cf685cc5d26828e2ca4c9c571249fc9b1d16be",
      "to": "0xe7dab1389f7abdc16044f61cedfcc5086012e0b4",
      "contractAddress": null,
      "gasUsedForL1": "0x47",
      "l1BlockNumber": "0x8979fe",
      "timeboosted": false
    },
    {
      "status": "0x1",
      "cumulativeGasUsed": "0x44a77",
      "logs": [
        {
          "address": "0x495c42ea5e1f7d7eddfb458184b44fa78725faf9",
          "topics": [
            "0xddf252ad1be2c89b69c2b068fc378daa952ba7f163c4a11628f55a4df523b3ef",
            "0x0000000000000000000000000000000000000000000000000000000000000000",
            "0x000000000000000000000000e7dab1389f7abdc16044f61cedfcc5086012e0b4"
          ],
          "data": "0x0000000000000000000000000000000000000000000000000000000000989680",
          "blockHash": "0xf882723842305cf4beefa610f5a930b4789f3e39c865410c61d5fbadf9a08c30",
          "blockNumber": "0xb09823e",
          "transactionHash": "0x39575ef2d4295b8601828b9303c918dc277c9d8c18cd0092387fff8a55ca03a6",
          "transactionIndex": "0x3",
          "logIndex": "0x7",
          "removed": false
        }
      ],
      "logsBloom": "0x00000000000000000000000000000000000000000000000000000000000000000000000000000000000000000000000000000000000000000000000002000000000000000000000000000008000000000000008000000000000000000000000000040000020000000000000000000800000000000000000000000010000000000000004000000000000000000000000000000000000000000000000000000000000000000000000000000000000000000000000000000000000000000000000000000002000000000000000000000000000000000000080000000000000020000000000000000000000000000000000000000000000000000000020000000000",
      "type": "0x2",
      "transactionHash": "0x39575ef2d4295b8601828b9303c918dc277c9d8c18cd0092387fff8a55ca03a6",
      "transactionIndex": "0x3",
      "blockHash": "0xf882723842305cf4beefa610f5a930b4789f3e39c865410c61d5fbadf9a08c30",
      "blockNumber": "0xb09823e",
      "gasUsed": "0x9130",
      "effectiveGasPrice": "0x5f5e100",
      "from": "0x94cf685cc5d26828e2ca4c9c571249fc9b1d16be",
      "to": "0x495c42ea5e1f7d7eddfb458184b44fa78725faf9",
      "contractAddress": null,
      "gasUsedForL1": "0x6d",
      "l1BlockNumber": "0x8979fe",
      "timeboosted": false
    },
    {
      "status": "0x1",
      "cumulativeGasUsed": "0x7093e",
      "logs": [
        {
          "address": "0x495c42ea5e1f7d7eddfb458184b44fa78725faf9",
          "topics": [
            "0x8c5be1e5ebec7d5bd14f71427d1e84f3dd0314c0f7b2291e5b200ac8c7c3b925",
            "0x000000000000000000000000335c3009548f4a392e72b7d062e13fb27338a47a",
            "0x000000000000000000000000fa5c0e6982cd399598f9300cc1d080957470431e"
          ],
          "data": "0xffffffffffffffffffffffffffffffffffffffffffffffffffffffffffffffff",
          "blockHash": "0x791fd0855c097dd42f098dbc258f1b7ec952c08448afffa43c9b0a22c96da3c8",
          "blockNumber": "0xb098246",
          "transactionHash": "0x85bfcbcdfd5042a0e3fa08c776e2efd66f5e3104177cb0a90ab2dbc8f413ab5a",
          "transactionIndex": "0x5",
          "logIndex": "0xa",
          "removed": false
        }
      ],
      "logsBloom": "0x01000000000000000000000000000000000080000000000000000000000000000020000000000000000000000000000000000000000000000000000002200000000000000000000000000010000000000000000000000000000000000000000000000000000000000000000000000000000000000000000000000000000000000000000000000000000000000000000000000000000000000000000000000000020000000000000000000000000000000000000000000000000000000000000080000000000000000000000000000000000000000000090000000000000000000010000000000000000000000000000000000000000000000000020000000000",
      "type": "0x2",
      "transactionHash": "0x85bfcbcdfd5042a0e3fa08c776e2efd66f5e3104177cb0a90ab2dbc8f413ab5a",
      "transactionIndex": "0x5",
      "blockHash": "0x791fd0855c097dd42f098dbc258f1b7ec952c08448afffa43c9b0a22c96da3c8",
      "blockNumber": "0xb098246",
      "gasUsed": "0x6b39",
      "effectiveGasPrice": "0x5f5e100",
      "from": "0x335c3009548f4a392e72b7d062e13fb27338a47a",
      "to": "0x495c42ea5e1f7d7eddfb458184b44fa78725faf9",
      "contractAddress": null,
      "gasUsedForL1": "0x6d",
      "l1BlockNumber": "0x8979fe",
      "timeboosted": false
    },
    {
      "status": "0x1",
      "cumulativeGasUsed": "0x33fe1",
      "logs": [
        {
          "address": "0xfa5c0e6982cd399598f9300cc1d080957470431e",
          "topics": [
            "0xfd0a74cd9439908a3aecc74e2d38c760ae56b4df3da24c9723da70b461d3a35d",
            "0x00000000000000000000000000000000000000000000000000000000000770d7",
            "0x000000000000000000000000335c3009548f4a392e72b7d062e13fb27338a47a"
          ],
          "data": "0x00000000000000000000000000000000000000000000000000000000000000010000000000000000000000000000000000000000000000000000000000000064",
          "blockHash": "0xc2229bf90481fb87a4afffd725e407d41d389e13af40ec55e2e890fa22e1724a",
          "blockNumber": "0xb098251",
          "transactionHash": "0xbb2bbe10058c8fb1036f59f4fd63249fc3688eca0a56438a9a915d569055bb5c",
          "transactionIndex": "0x1",
          "logIndex": "0x0",
          "removed": false
        },
        {
          "address": "0x495c42ea5e1f7d7eddfb458184b44fa78725faf9",
          "topics": [
            "0xddf252ad1be2c89b69c2b068fc378daa952ba7f163c4a11628f55a4df523b3ef",
            "0x000000000000000000000000335c3009548f4a392e72b7d062e13fb27338a47a",
            "0x000000000000000000000000fa5c0e6982cd399598f9300cc1d080957470431e"
          ],
          "data": "0x00000000000000000000000000000000000000000000000000000000002dc6c0",
          "blockHash": "0xc2229bf90481fb87a4afffd725e407d41d389e13af40ec55e2e890fa22e1724a",
          "blockNumber": "0xb098251",
          "transactionHash": "0xbb2bbe10058c8fb1036f59f4fd63249fc3688eca0a56438a9a915d569055bb5c",
          "transactionIndex": "0x1",
          "logIndex": "0x1",
          "removed": false
        }
      ],
      "logsBloom": "0x01000000000000000000000400000004000080000000000000000000000000000020000000000000000004102000000000000000000000000000000002000000000000000000000000000018000000000000000000000000080000000000000000200000000000000000000000000000000000000000000000000010000000000000000000000000000000000000000000000000000000000000000000000000000000000000000000000000000000000000000000000000000000000000000080000002000000040000000000000000000000000000090000000000000000000000000000000008000000000000000000000000000000000000020000000000",
      "type": "0x2",
      "transactionHash": "0xbb2bbe10058c8fb1036f59f4fd63249fc3688eca0a56438a9a915d569055bb5c",
      "transactionIndex": "0x1",
      "blockHash": "0xc2229bf90481fb87a4afffd725e407d41d389e13af40ec55e2e890fa22e1724a",
      "blockNumber": "0xb098251",
      "gasUsed": "0x33fe1",
      "effectiveGasPrice": "0x5f5e100",
      "from": "0x335c3009548f4a392e72b7d062e13fb27338a47a",
      "to": "0xfa5c0e6982cd399598f9300cc1d080957470431e",
      "contractAddress": null,
      "gasUsedForL1": "0x59",
      "l1BlockNumber": "0x8979fe",
      "timeboosted": false
    },
    {
      "status": "0x1",
      "cumulativeGasUsed": "0xab81a",
      "logs": [
        {
          "address": "0x495c42ea5e1f7d7eddfb458184b44fa78725faf9",
          "topics": [
            "0x8c5be1e5ebec7d5bd14f71427d1e84f3dd0314c0f7b2291e5b200ac8c7c3b925",
            "0x000000000000000000000000783c89d1f3b8707ad191c4b86dd44e901b4f6de9",
            "0x000000000000000000000000fa5c0e6982cd399598f9300cc1d080957470431e"
          ],
          "data": "0xffffffffffffffffffffffffffffffffffffffffffffffffffffffffffffffff",
          "blockHash": "0x378e2ddc4d5a87482fbd54118e73b1d61a2faaa9a0107cff64fc2e1203b19fca",
          "blockNumber": "0xb09825a",
          "transactionHash": "0x8d0de67cd8f4d34e592fefb1457c53301396758c10af049dde3c83c059d86040",
          "transactionIndex": "0x4",
          "logIndex": "0x7",
          "removed": false
        }
      ],
      "logsBloom": "0x00000000000000000000001000000000000000000000000000000000000000000020000000000000000000000000000000000000000000000000000002200000000000000000000000000010000000000000000000000000000000000000000000000000000000000000000000000000000000000000000000000000000000000000000000000000004000000000000000000000000000000000000000000000020000000000000000000000000000000000000000000000000000000000010080000000000000000000000000000000000000000000080000000000000000000010000000000000000000000000000000000000000000000000020000000000",
      "type": "0x2",
      "transactionHash": "0x8d0de67cd8f4d34e592fefb1457c53301396758c10af049dde3c83c059d86040",
      "transactionIndex": "0x4",
      "blockHash": "0x378e2ddc4d5a87482fbd54118e73b1d61a2faaa9a0107cff64fc2e1203b19fca",
      "blockNumber": "0xb09825a",
      "gasUsed": "0x6b39",
      "effectiveGasPrice": "0x5f5e100",
      "from": "0x783c89d1f3b8707ad191c4b86dd44e901b4f6de9",
      "to": "0x495c42ea5e1f7d7eddfb458184b44fa78725faf9",
      "contractAddress": null,
      "gasUsedForL1": "0x6d",
      "l1BlockNumber": "0x8979fe",
      "timeboosted": false
    },
    {
      "status": "0x1",
      "cumulativeGasUsed": "0x43e0f",
      "logs": [
        {
          "address": "0xfa5c0e6982cd399598f9300cc1d080957470431e",
          "topics": [
            "0xfd0a74cd9439908a3aecc74e2d38c760ae56b4df3da24c9723da70b461d3a35d",
            "0x00000000000000000000000000000000000000000000000000000000000770d7",
            "0x000000000000000000000000783c89d1f3b8707ad191c4b86dd44e901b4f6de9"
          ],
          "data": "0x00000000000000000000000000000000000000000000000000000000000000010000000000000000000000000000000000000000000000000000000000000064",
          "blockHash": "0x67fd17c56d48d03a18a86db36be3504c8c0365eb8896782e3dbca999eb5977e7",
          "blockNumber": "0xb098261",
          "transactionHash": "0x12bd7334af0ec3922f92c8ec6a5ed14db3ab684614c6991f02d8137e33567b41",
          "transactionIndex": "0x2",
          "logIndex": "0x4",
          "removed": false
        },
        {
          "address": "0x495c42ea5e1f7d7eddfb458184b44fa78725faf9",
          "topics": [
            "0xddf252ad1be2c89b69c2b068fc378daa952ba7f163c4a11628f55a4df523b3ef",
            "0x000000000000000000000000783c89d1f3b8707ad191c4b86dd44e901b4f6de9",
            "0x000000000000000000000000fa5c0e6982cd399598f9300cc1d080957470431e"
          ],
          "data": "0x00000000000000000000000000000000000000000000000000000000002dc6c0",
          "blockHash": "0x67fd17c56d48d03a18a86db36be3504c8c0365eb8896782e3dbca999eb5977e7",
          "blockNumber": "0xb098261",
          "transactionHash": "0x12bd7334af0ec3922f92c8ec6a5ed14db3ab684614c6991f02d8137e33567b41",
          "transactionIndex": "0x2",
          "logIndex": "0x5",
          "removed": false
        }
      ],
      "logsBloom": "0x00000000000000000000001400000004000000000000000000000000000000000020000000000000000004102000000000000000000000000000000002000000000000000000000000000018000000000000000000000000080000000000000000200000000000000000000000000000000000000000000000000010000000000000000000000000004000000000000000000000000000000000000000000000000000000000000000000000000000000000000000000000000000000000010080000002000000040000000000000000000000000000080000000000000000000000000000000008000000000000000000000000000000000000020000000000",
      "type": "0x2",
      "transactionHash": "0x12bd7334af0ec3922f92c8ec6a5ed14db3ab684614c6991f02d8137e33567b41",
      "transactionIndex": "0x2",
      "blockHash": "0x67fd17c56d48d03a18a86db36be3504c8c0365eb8896782e3dbca999eb5977e7",
      "blockNumber": "0xb098261",
      "gasUsed": "0x2777d",
      "effectiveGasPrice": "0x5f5e100",
      "from": "0x783c89d1f3b8707ad191c4b86dd44e901b4f6de9",
      "to": "0xfa5c0e6982cd399598f9300cc1d080957470431e",
      "contractAddress": null,
      "gasUsedForL1": "0x59",
      "l1BlockNumber": "0x8979fe",
      "timeboosted": false
    },
    {
      "status": "0x1",
      "cumulativeGasUsed": "0x6b39",
      "logs": [
        {
          "address": "0x495c42ea5e1f7d7eddfb458184b44fa78725faf9",
          "topics": [
            "0x8c5be1e5ebec7d5bd14f71427d1e84f3dd0314c0f7b2291e5b200ac8c7c3b925",
            "0x000000000000000000000000df0777621ba83142ddd349eeae122f132f41b61b",
            "0x000000000000000000000000fa5c0e6982cd399598f9300cc1d080957470431e"
          ],
          "data": "0xffffffffffffffffffffffffffffffffffffffffffffffffffffffffffffffff",
          "blockHash": "0x99e7f8e569cb32f69ceb874446a8a360c57e161e1f23e09d626fa48df463cd2e",
          "blockNumber": "0xb09826a",
          "transactionHash": "0x5e3f1ed610a36d4028388d7ef86e0a00813a6fe6ce99930204f3652895a1261b",
          "transactionIndex": "0x1",
          "logIndex": "0x0",
          "removed": false
        }
      ],
      "logsBloom": "0x00000000000000000000000000080000000000000000000000000000000000000020000000000000000000000000000000200000000000000000000002200000000000000000000000000090000000000000000000000000000000000000000000000000000000000000000000000000000000000000000000000000000000000000000000000000000000000000000000000000000000000000000000000000020000000000000000000000000000000000000000000000000000000000000080000000000000000000000000000000000000000000080000000000000000000010000000000000000000000000000000000000000000000000020000000000",
      "type": "0x2",
      "transactionHash": "0x5e3f1ed610a36d4028388d7ef86e0a00813a6fe6ce99930204f3652895a1261b",
      "transactionIndex": "0x1",
      "blockHash": "0x99e7f8e569cb32f69ceb874446a8a360c57e161e1f23e09d626fa48df463cd2e",
      "blockNumber": "0xb09826a",
      "gasUsed": "0x6b39",
      "effectiveGasPrice": "0x5f5e100",
      "from": "0xdf0777621ba83142ddd349eeae122f132f41b61b",
      "to": "0x495c42ea5e1f7d7eddfb458184b44fa78725faf9",
      "contractAddress": null,
      "gasUsedForL1": "0x6d",
      "l1BlockNumber": "0x8979fe",
      "timeboosted": false
    },
    {
      "status": "0x1",
      "cumulativeGasUsed": "0x3fddd",
      "logs": [
        {
          "address": "0xfa5c0e6982cd399598f9300cc1d080957470431e",
          "topics": [
            "0xfd0a74cd9439908a3aecc74e2d38c760ae56b4df3da24c9723da70b461d3a35d",
            "0x00000000000000000000000000000000000000000000000000000000000770d7",
            "0x000000000000000000000000df0777621ba83142ddd349eeae122f132f41b61b"
          ],
          "data": "0x00000000000000000000000000000000000000000000000000000000000000000000000000000000000000000000000000000000000000000000000000000064",
          "blockHash": "0xbc7a610996925527dd681fe95a221862c5bf453045413ea091e988913b234457",
          "blockNumber": "0xb098271",
          "transactionHash": "0x7a7e3321f12e94c61de98c6411659b1cef3242d0cc004ce5963ac48e3a8df4a0",
          "transactionIndex": "0x2",
          "logIndex": "0x2",
          "removed": false
        },
        {
          "address": "0x495c42ea5e1f7d7eddfb458184b44fa78725faf9",
          "topics": [
            "0xddf252ad1be2c89b69c2b068fc378daa952ba7f163c4a11628f55a4df523b3ef",
            "0x000000000000000000000000df0777621ba83142ddd349eeae122f132f41b61b",
            "0x000000000000000000000000fa5c0e6982cd399598f9300cc1d080957470431e"
          ],
          "data": "0x00000000000000000000000000000000000000000000000000000000000f4240",
          "blockHash": "0xbc7a610996925527dd681fe95a221862c5bf453045413ea091e988913b234457",
          "blockNumber": "0xb098271",
          "transactionHash": "0x7a7e3321f12e94c61de98c6411659b1cef3242d0cc004ce5963ac48e3a8df4a0",
          "transactionIndex": "0x2",
          "logIndex": "0x3",
          "removed": false
        }
      ],
      "logsBloom": "0x00000000000000000000000400080004000000000000000000000000000000000020000000000000000004102000000000200000000000000000000002000000000000000000000000000098000000000000000000000000080000000000000000200000000000000000000000000000000000000000000000000010000000000000000000000000000000000000000000000000000000000000000000000000000000000000000000000000000000000000000000000000000000000000000080000002000000040000000000000000000000000000080000000000000000000000000000000008000000000000000000000000000000000000020000000000",
      "type": "0x2",
      "transactionHash": "0x7a7e3321f12e94c61de98c6411659b1cef3242d0cc004ce5963ac48e3a8df4a0",
      "transactionIndex": "0x2",
      "blockHash": "0xbc7a610996925527dd681fe95a221862c5bf453045413ea091e988913b234457",
      "blockNumber": "0xb098271",
      "gasUsed": "0x229a9",
      "effectiveGasPrice": "0x5f5e100",
      "from": "0xdf0777621ba83142ddd349eeae122f132f41b61b",
      "to": "0xfa5c0e6982cd399598f9300cc1d080957470431e",
      "contractAddress": null,
      "gasUsedForL1": "0x59",
      "l1BlockNumber": "0x8979ff",
      "timeboosted": false
    },
    {
      "status": "0x1",
      "cumulativeGasUsed": "0xcdd34",
      "logs": [
        {
          "address": "0x495c42ea5e1f7d7eddfb458184b44fa78725faf9",
          "topics": [
            "0x8c5be1e5ebec7d5bd14f71427d1e84f3dd0314c0f7b2291e5b200ac8c7c3b925",
            "0x000000000000000000000000f1c8194d42f50c64685604fea60f23ade0ffba76",
            "0x000000000000000000000000fa5c0e6982cd399598f9300cc1d080957470431e"
          ],
          "data": "0xffffffffffffffffffffffffffffffffffffffffffffffffffffffffffffffff",
          "blockHash": "0x7410eaa3320e9af0161cc3d92f8f1f80a377e4e430ebbca62fad36eb31d3422f",
          "blockNumber": "0xb098279",
          "transactionHash": "0xe1ba25e09f3303a25ca4ec6585412beab4ffd9a7d7c16f1904a2451c156f0cab",
          "transactionIndex": "0x8",
          "logIndex": "0x13",
          "removed": false
        }
      ],
      "logsBloom": "0x00000000000000000000000000000000000000000000000000000000000000000020000000000000000000000000000000000000000000000001000002200000000000000000000000000010000000020000000000000000000000000000000040000000000000000000000000000000000000000000000000000000000000000000000000000000000000000000000000000000000000000000000000000000020000000000000000000000000000000000000000000000000000000000000080000000000000000000000000000000000000000000080000000000000000000010000000000000000000000000000000000000000000000000020000000000",
      "type": "0x2",
      "transactionHash": "0xe1ba25e09f3303a25ca4ec6585412beab4ffd9a7d7c16f1904a2451c156f0cab",
      "transactionIndex": "0x8",
      "blockHash": "0x7410eaa3320e9af0161cc3d92f8f1f80a377e4e430ebbca62fad36eb31d3422f",
      "blockNumber": "0xb098279",
      "gasUsed": "0x6b39",
      "effectiveGasPrice": "0x5f5e100",
      "from": "0xf1c8194d42f50c64685604fea60f23ade0ffba76",
      "to": "0x495c42ea5e1f7d7eddfb458184b44fa78725faf9",
      "contractAddress": null,
      "gasUsedForL1": "0x6d",
      "l1BlockNumber": "0x8979ff",
      "timeboosted": false
    },
    {
      "status": "0x1",
      "cumulativeGasUsed": "0xb2e77",
      "logs": [
        {
          "address": "0xfa5c0e6982cd399598f9300cc1d080957470431e",
          "topics": [
            "0xfd0a74cd9439908a3aecc74e2d38c760ae56b4df3da24c9723da70b461d3a35d",
            "0x00000000000000000000000000000000000000000000000000000000000770d7",
            "0x000000000000000000000000f1c8194d42f50c64685604fea60f23ade0ffba76"
          ],
          "data": "0x00000000000000000000000000000000000000000000000000000000000000000000000000000000000000000000000000000000000000000000000000000064",
          "blockHash": "0x6387e5e311b0b0720acb9ebd3f6124423a633f1965add5a1539a08def4a58932",
          "blockNumber": "0xb098280",
          "transactionHash": "0xabd8a6c8e665a9773facabf1a232cc405198f1378e2bc981c37417611c0a9f93",
          "transactionIndex": "0x3",
          "logIndex": "0x6",
          "removed": false
        },
        {
          "address": "0x495c42ea5e1f7d7eddfb458184b44fa78725faf9",
          "topics": [
            "0xddf252ad1be2c89b69c2b068fc378daa952ba7f163c4a11628f55a4df523b3ef",
            "0x000000000000000000000000f1c8194d42f50c64685604fea60f23ade0ffba76",
            "0x000000000000000000000000fa5c0e6982cd399598f9300cc1d080957470431e"
          ],
          "data": "0x00000000000000000000000000000000000000000000000000000000000f4240",
          "blockHash": "0x6387e5e311b0b0720acb9ebd3f6124423a633f1965add5a1539a08def4a58932",
          "blockNumber": "0xb098280",
          "transactionHash": "0xabd8a6c8e665a9773facabf1a232cc405198f1378e2bc981c37417611c0a9f93",
          "transactionIndex": "0x3",
          "logIndex": "0x7",
          "removed": false
        }
      ],
      "logsBloom": "0x00000000000000000000000400000004000000000000000000000000000000000020000000000000000004102000000000000000000000000001000002000000000000000000000000000018000000020000000000000000080000000000000040200000000000000000000000000000000000000000000000000010000000000000000000000000000000000000000000000000000000000000000000000000000000000000000000000000000000000000000000000000000000000000000080000002000000040000000000000000000000000000080000000000000000000000000000000008000000000000000000000000000000000000020000000000",
      "type": "0x2",
      "transactionHash": "0xabd8a6c8e665a9773facabf1a232cc405198f1378e2bc981c37417611c0a9f93",
      "transactionIndex": "0x3",
      "blockHash": "0x6387e5e311b0b0720acb9ebd3f6124423a633f1965add5a1539a08def4a58932",
      "blockNumber": "0xb098280",
      "gasUsed": "0x229a9",
      "effectiveGasPrice": "0x5f5e100",
      "from": "0xf1c8194d42f50c64685604fea60f23ade0ffba76",
      "to": "0xfa5c0e6982cd399598f9300cc1d080957470431e",
      "contractAddress": null,
      "gasUsedForL1": "0x59",
      "l1BlockNumber": "0x8979ff",
      "timeboosted": false
    },
    {
      "status": "0x1",
      "cumulativeGasUsed": "0x6b39",
      "logs": [
        {
          "address": "0x495c42ea5e1f7d7eddfb458184b44fa78725faf9",
          "topics": [
            "0x8c5be1e5ebec7d5bd14f71427d1e84f3dd0314c0f7b2291e5b200ac8c7c3b925",
            "0x000000000000000000000000b1138094397f7f3ef1200c123e1539c6a5ad1738",
            "0x000000000000000000000000fa5c0e6982cd399598f9300cc1d080957470431e"
          ],
          "data": "0xffffffffffffffffffffffffffffffffffffffffffffffffffffffffffffffff",
          "blockHash": "0xae1c69d4cfa7a9d5fe5851d6febe833855a2b68d232893bf986037bcf9f41adb",
          "blockNumber": "0xb098287",
          "transactionHash": "0xbbc9938f8ab5343d8a489d9796f99be64287ad06eb6cc4c85cffd69c5b336693",
          "transactionIndex": "0x1",
          "logIndex": "0x0",
          "removed": false
        }
      ],
      "logsBloom": "0x00000000000000000000000000000000000000000000000000000000000000000020000000000000000000000000000000000000000000000000000002200000000000000000000000000010000000000000000000000000200000000000000000000000000000000000000000000000000000000000000000000000000000000000000000000000000000000000000000000008000000000000000000000000020000000000000000000000000001000000000000000000000000000000000080000000000000000000000000000000000000000000080000000000000000000010000000000000000000000000000000000000000000000000020000000000",
      "type": "0x2",
      "transactionHash": "0xbbc9938f8ab5343d8a489d9796f99be64287ad06eb6cc4c85cffd69c5b336693",
      "transactionIndex": "0x1",
      "blockHash": "0xae1c69d4cfa7a9d5fe5851d6febe833855a2b68d232893bf986037bcf9f41adb",
      "blockNumber": "0xb098287",
      "gasUsed": "0x6b39",
      "effectiveGasPrice": "0x5f5e100",
      "from": "0xb1138094397f7f3ef1200c123e1539c6a5ad1738",
      "to": "0x495c42ea5e1f7d7eddfb458184b44fa78725faf9",
      "contractAddress": null,
      "gasUsedForL1": "0x6d",
      "l1BlockNumber": "0x8979ff",
      "timeboosted": false
    },
    {
      "status": "0x1",
      "cumulativeGasUsed": "0x41d79",
      "logs": [
        {
          "address": "0xfa5c0e6982cd399598f9300cc1d080957470431e",
          "topics": [
            "0xfd0a74cd9439908a3aecc74e2d38c760ae56b4df3da24c9723da70b461d3a35d",
            "0x00000000000000000000000000000000000000000000000000000000000770d7",
            "0x000000000000000000000000b1138094397f7f3ef1200c123e1539c6a5ad1738"
          ],
          "data": "0x00000000000000000000000000000000000000000000000000000000000000000000000000000000000000000000000000000000000000000000000000000064",
          "blockHash": "0xc664074d266f7946fbc36c75c3f6e220bca3fe4415755692db65f7ad03e60775",
          "blockNumber": "0xb098290",
          "transactionHash": "0xa713766e6c951203e18685450eb3c6412dd1bbb23d11e0e043e371cca36131c1",
          "transactionIndex": "0x2",
          "logIndex": "0x3",
          "removed": false
        },
        {
          "address": "0x495c42ea5e1f7d7eddfb458184b44fa78725faf9",
          "topics": [
            "0xddf252ad1be2c89b69c2b068fc378daa952ba7f163c4a11628f55a4df523b3ef",
            "0x000000000000000000000000b1138094397f7f3ef1200c123e1539c6a5ad1738",
            "0x000000000000000000000000fa5c0e6982cd399598f9300cc1d080957470431e"
          ],
          "data": "0x00000000000000000000000000000000000000000000000000000000000f4240",
          "blockHash": "0xc664074d266f7946fbc36c75c3f6e220bca3fe4415755692db65f7ad03e60775",
          "blockNumber": "0xb098290",
          "transactionHash": "0xa713766e6c951203e18685450eb3c6412dd1bbb23d11e0e043e371cca36131c1",
          "transactionIndex": "0x2",
          "logIndex": "0x4",
          "removed": false
        }
      ],
      "logsBloom": "0x00000000000000000000000400000004000000000000000000000000000000000020000000000000000004102000000000000000000000000000000002000000000000000000000000000018000000000000000000000000280000000000000000200000000000000000000000000000000000000000000000000010000000000000000000000000000000000000000000000008000000000000000000000000000000000000000000000000000001000000000000000000000000000000000080000002000000040000000000000000000000000000080000000000000000000000000000000008000000000000000000000000000000000000020000000000",
      "type": "0x2",
      "transactionHash": "0xa713766e6c951203e18685450eb3c6412dd1bbb23d11e0e043e371cca36131c1",
      "transactionIndex": "0x2",
      "blockHash": "0xc664074d266f7946fbc36c75c3f6e220bca3fe4415755692db65f7ad03e60775",
      "blockNumber": "0xb098290",
      "gasUsed": "0x229a9",
      "effectiveGasPrice": "0x5f5e100",
      "from": "0xb1138094397f7f3ef1200c123e1539c6a5ad1738",
      "to": "0xfa5c0e6982cd399598f9300cc1d080957470431e",
      "contractAddress": null,
      "gasUsedForL1": "0x59",
      "l1BlockNumber": "0x8979ff",
      "timeboosted": false
    },
    {
      "status": "0x1",
      "cumulativeGasUsed": "0x6b39",
      "logs": [
        {
          "address": "0x495c42ea5e1f7d7eddfb458184b44fa78725faf9",
          "topics": [
            "0x8c5be1e5ebec7d5bd14f71427d1e84f3dd0314c0f7b2291e5b200ac8c7c3b925",
            "0x000000000000000000000000e7dab1389f7abdc16044f61cedfcc5086012e0b4",
            "0x000000000000000000000000fa5c0e6982cd399598f9300cc1d080957470431e"
          ],
          "data": "0xffffffffffffffffffffffffffffffffffffffffffffffffffffffffffffffff",
          "blockHash": "0x69a5f44174cd0b859e79f7ac507c86d9aaed2b5c1df1b6bcf72b3555c3d3441d",
          "blockNumber": "0xb098299",
          "transactionHash": "0x07a2d9d1f5ae4a7652e1ef92728f91cfdbad4b49e87dc0f3c40c09f2a6b2e150",
          "transactionIndex": "0x1",
          "logIndex": "0x0",
          "removed": false
        }
      ],
      "logsBloom": "0x00000000000000000000000000000000000000000000000000000000000000000020000000000000000000000000000000000000000000000000000002200000000000000000000000000010000000000000008000000000000000000000000000040000000000000000000000000000000000000000000000000000000000000000004000000000000000000000000000000000000000000000000000000000020000000000000000000000000000000000000000000000000000000000000080000000000000000000000000000000000000000000080000000000000000000010000000000000000000000000000000000000000000000000020000000000",
      "type": "0x2",
      "transactionHash": "0x07a2d9d1f5ae4a7652e1ef92728f91cfdbad4b49e87dc0f3c40c09f2a6b2e150",
      "transactionIndex": "0x1",
      "blockHash": "0x69a5f44174cd0b859e79f7ac507c86d9aaed2b5c1df1b6bcf72b3555c3d3441d",
      "blockNumber": "0xb098299",
      "gasUsed": "0x6b39",
      "effectiveGasPrice": "0x5f5e100",
      "from": "0xe7dab1389f7abdc16044f61cedfcc5086012e0b4",
      "to": "0x495c42ea5e1f7d7eddfb458184b44fa78725faf9",
      "contractAddress": null,
      "gasUsedForL1": "0x6d",
      "l1BlockNumber": "0x8979ff",
      "timeboosted": false
    },
    {
      "status": "0x1",
      "cumulativeGasUsed": "0x39dbb",
      "logs": [
        {
          "address": "0xfa5c0e6982cd399598f9300cc1d080957470431e",
          "topics": [
            "0xfd0a74cd9439908a3aecc74e2d38c760ae56b4df3da24c9723da70b461d3a35d",
            "0x00000000000000000000000000000000000000000000000000000000000770d7",
            "0x000000000000000000000000e7dab1389f7abdc16044f61cedfcc5086012e0b4"
          ],
          "data": "0x00000000000000000000000000000000000000000000000000000000000000000000000000000000000000000000000000000000000000000000000000000064",
          "blockHash": "0xa4bfbb7adde01b7795a49ea6a59771cfff40aab0f632e5c1c7665bbfa61de52f",
          "blockNumber": "0xb0982a0",
          "transactionHash": "0x35f136f7e5c8987d172bc991c679170c501e3866446dc5063c2867194a761f6a",
          "transactionIndex": "0x2",
          "logIndex": "0x2",
          "removed": false
        },
        {
          "address": "0x495c42ea5e1f7d7eddfb458184b44fa78725faf9",
          "topics": [
            "0xddf252ad1be2c89b69c2b068fc378daa952ba7f163c4a11628f55a4df523b3ef",
            "0x000000000000000000000000e7dab1389f7abdc16044f61cedfcc5086012e0b4",
            "0x000000000000000000000000fa5c0e6982cd399598f9300cc1d080957470431e"
          ],
          "data": "0x00000000000000000000000000000000000000000000000000000000000f4240",
          "blockHash": "0xa4bfbb7adde01b7795a49ea6a59771cfff40aab0f632e5c1c7665bbfa61de52f",
          "blockNumber": "0xb0982a0",
          "transactionHash": "0x35f136f7e5c8987d172bc991c679170c501e3866446dc5063c2867194a761f6a",
          "transactionIndex": "0x2",
          "logIndex": "0x3",
          "removed": false
        }
      ],
      "logsBloom": "0x00000000000000000000000400000004000000000000000000000000000000000020000000000000000004102000000000000000000000000000000002000000000000000000000000000018000000000000008000000000080000000000000000240000000000000000000000000000000000000000000000000010000000000000004000000000000000000000000000000000000000000000000000000000000000000000000000000000000000000000000000000000000000000000000080000002000000040000000000000000000000000000080000000000000000000000000000000008000000000000000000000000000000000000020000000000",
      "type": "0x2",
      "transactionHash": "0x35f136f7e5c8987d172bc991c679170c501e3866446dc5063c2867194a761f6a",
      "transactionIndex": "0x2",
      "blockHash": "0xa4bfbb7adde01b7795a49ea6a59771cfff40aab0f632e5c1c7665bbfa61de52f",
      "blockNumber": "0xb0982a0",
      "gasUsed": "0x229a9",
      "effectiveGasPrice": "0x5f5e100",
      "from": "0xe7dab1389f7abdc16044f61cedfcc5086012e0b4",
      "to": "0xfa5c0e6982cd399598f9300cc1d080957470431e",
      "contractAddress": null,
      "gasUsedForL1": "0x59",
      "l1BlockNumber": "0x8979ff",
      "timeboosted": false
    }
  ],
  "libraries": [],
  "pending": [],
  "returns": {},
  "timestamp": 1755503105,
  "chain": 421614,
  "commit": "9c25031"
}