{
  "transactions": [
    {
      "hash": "0x090b94898e98c0497595a7986abca2fcec9171af6840bc6c7183804df488f91d",
      "transactionType": "CALL",
      "contractName": null,
      "contractAddress": "0xa202068950d1ce1fdc54a5f74a4242e6abe8acda",
      "function": "processDrawChunk(uint256,uint256)",
      "arguments": [
        "487779",
        "300"
      ],
      "transaction": {
        "from": "0x94cf685cc5d26828e2ca4c9c571249fc9b1d16be",
        "to": "0xa202068950d1ce1fdc54a5f74a4242e6abe8acda",
        "gas": "0xdbacd",
        "value": "0x0",
        "input": "0xa83474350000000000000000000000000000000000000000000000000000000000077163000000000000000000000000000000000000000000000000000000000000012c",
        "nonce": "0xac",
        "chainId": "0x66eee"
      },
      "additionalContracts": [],
      "isFixedGasLimit": false
    },
    {
      "hash": "0x0990233594748a7860b743d049a54e2981fcd099fb74b025f01d80b06144f37f",
      "transactionType": "CALL",
      "contractName": null,
      "contractAddress": "0xa202068950d1ce1fdc54a5f74a4242e6abe8acda",
      "function": "cleanupDrawChunk(uint256,uint256)",
      "arguments": [
        "487779",
        "300"
      ],
      "transaction": {
        "from": "0x94cf685cc5d26828e2ca4c9c571249fc9b1d16be",
        "to": "0xa202068950d1ce1fdc54a5f74a4242e6abe8acda",
        "gas": "0x80aaa",
        "value": "0x0",
        "input": "0x59b5543b0000000000000000000000000000000000000000000000000000000000077163000000000000000000000000000000000000000000000000000000000000012c",
        "nonce": "0xad",
        "chainId": "0x66eee"
      },
      "additionalContracts": [],
      "isFixedGasLimit": false
    }
  ],
  "receipts": [
    {
      "status": "0x1",
      "cumulativeGasUsed": "0xb171c",
      "logs": [
        {
          "address": "0x495c42ea5e1f7d7eddfb458184b44fa78725faf9",
          "topics": [
            "0xddf252ad1be2c89b69c2b068fc378daa952ba7f163c4a11628f55a4df523b3ef",
            "0x000000000000000000000000a202068950d1ce1fdc54a5f74a4242e6abe8acda",
            "0x000000000000000000000000038e4c608334b64701084966179ac5c714993223"
          ],
          "data": "0x0000000000000000000000000000000000000000000000000000000012a4f300",
          "blockHash": "0x94e079a5b8a2af049ef539b1582802c15452f0bbeb8aa3980a9832086c438926",
          "blockNumber": "0xb26b1ea",
          "transactionHash": "0x090b94898e98c0497595a7986abca2fcec9171af6840bc6c7183804df488f91d",
          "transactionIndex": "0x2",
          "logIndex": "0x1",
          "removed": false
        },
        {
          "address": "0x495c42ea5e1f7d7eddfb458184b44fa78725faf9",
          "topics": [
            "0xddf252ad1be2c89b69c2b068fc378daa952ba7f163c4a11628f55a4df523b3ef",
            "0x000000000000000000000000a202068950d1ce1fdc54a5f74a4242e6abe8acda",
            "0x00000000000000000000000094cf685cc5d26828e2ca4c9c571249fc9b1d16be"
          ],
          "data": "0x00000000000000000000000000000000000000000000000000000000019f0a00",
          "blockHash": "0x94e079a5b8a2af049ef539b1582802c15452f0bbeb8aa3980a9832086c438926",
          "blockNumber": "0xb26b1ea",
          "transactionHash": "0x090b94898e98c0497595a7986abca2fcec9171af6840bc6c7183804df488f91d",
          "transactionIndex": "0x2",
          "logIndex": "0x2",
          "removed": false
        },
        {
          "address": "0xa202068950d1ce1fdc54a5f74a4242e6abe8acda",
          "topics": [
            "0x59d631aad19d6bbdb29b53e70e5db5e0021e3f82d7e6dfbc312bea609b8ab03e",
            "0x0000000000000000000000000000000000000000000000000000000000077163",
            "0x000000000000000000000000038e4c608334b64701084966179ac5c714993223"
          ],
          "data": "0x0000000000000000000000000000000000000000000000000000000012a4f30000000000000000000000000000000000000000000000000000000000019f0a0000000000000000000000000000000000000000000000000000000000000007d0",
          "blockHash": "0x94e079a5b8a2af049ef539b1582802c15452f0bbeb8aa3980a9832086c438926",
          "blockNumber": "0xb26b1ea",
          "transactionHash": "0x090b94898e98c0497595a7986abca2fcec9171af6840bc6c7183804df488f91d",
          "transactionIndex": "0x2",
          "logIndex": "0x3",
          "removed": false
        }
      ],
      "logsBloom": "0x00000000000000000000000080000000000000000000000000000000000000000000000000000000000000000000000000000000000004000800000002000000000000000000004004000408000000000000010000000000000000000000200000000080000000000000000000000000000000000000000000000010000000000200000000000000000000000002000000000000000000000000000000000000000000000200000000000000000000800000000000000000000000000000000000000002000000000000000000000000000000000000080000400000000000000000000000000000000000000002000000000000000000004000020000000800",
      "type": "0x2",
      "transactionHash": "0x090b94898e98c0497595a7986abca2fcec9171af6840bc6c7183804df488f91d",
      "transactionIndex": "0x2",
      "blockHash": "0x94e079a5b8a2af049ef539b1582802c15452f0bbeb8aa3980a9832086c438926",
      "blockNumber": "0xb26b1ea",
      "gasUsed": "0xa66de",
      "effectiveGasPrice": "0x5f5e100",
      "from": "0x94cf685cc5d26828e2ca4c9c571249fc9b1d16be",
      "to": "0xa202068950d1ce1fdc54a5f74a4242e6abe8acda",
      "contractAddress": null,
      "gasUsedForL1": "0x3c",
      "l1BlockNumber": "0x8a1c84",
      "timeboosted": false
    },
    {
      "status": "0x1",
      "cumulativeGasUsed": "0x5d2ac",
      "logs": [],
      "logsBloom": "0x00000000000000000000000000000000000000000000000000000000000000000000000000000000000000000000000000000000000000000000000000000000000000000000000000000000000000000000000000000000000000000000000000000000000000000000000000000000000000000000000000000000000000000000000000000000000000000000000000000000000000000000000000000000000000000000000000000000000000000000000000000000000000000000000000000000000000000000000000000000000000000000000000000000000000000000000000000000000000000000000000000000000000000000000000000000",
      "type": "0x2",
      "transactionHash": "0x0990233594748a7860b743d049a54e2981fcd099fb74b025f01d80b06144f37f",
      "transactionIndex": "0x1",
      "blockHash": "0xcbfcc90ae9bc946fa144c1c123f769f7d0b9180a1803c6b9b2025a7de2b37ef7",
      "blockNumber": "0xb26b1f2",
      "gasUsed": "0x5d2ac",
      "effectiveGasPrice": "0x5f5e100",
      "from": "0x94cf685cc5d26828e2ca4c9c571249fc9b1d16be",
      "to": "0xa202068950d1ce1fdc54a5f74a4242e6abe8acda",
      "contractAddress": null,
      "gasUsedForL1": "0x3c",
      "l1BlockNumber": "0x8a1c84",
      "timeboosted": false
    }
  ],
  "libraries": [],
  "pending": [],
  "returns": {
    "done": {
      "internal_type": "bool",
      "value": "true"
    }
  },
  "timestamp": 1756009420,
  "chain": 421614,
  "commit": "3792cd9"
}