{
  "transactions": [
    {
      "hash": "0x8927b132028affde725db86e8a9d7262089002b5f7116fb94e725f40137d25be",
      "transactionType": "CALL",
      "contractName": null,
      "contractAddress": "0x495c42ea5e1f7d7eddfb458184b44fa78725faf9",
      "function": "mint(address,uint256)",
      "arguments": [
        "0x1804c8AB1F12E6bbf3894d4083f33e07309d1f38",
        "1000000000"
      ],
      "transaction": {
        "from": "0x94cf685cc5d26828e2ca4c9c571249fc9b1d16be",
        "to": "0x495c42ea5e1f7d7eddfb458184b44fa78725faf9",
        "gas": "0x117c3",
        "value": "0x0",
        "input": "0x40c10f190000000000000000000000001804c8ab1f12e6bbf3894d4083f33e07309d1f38000000000000000000000000000000000000000000000000000000003b9aca00",
        "nonce": "0x37",
        "chainId": "0x66eee"
      },
      "additionalContracts": [],
      "isFixedGasLimit": false
    },
    {
      "hash": "0x3a6762f803728d370707c4e426beba9511463779e492c89aa6bfd100349a1a8a",
      "transactionType": "CALL",
      "contractName": null,
      "contractAddress": "0x495c42ea5e1f7d7eddfb458184b44fa78725faf9",
      "function": "approve(address,uint256)",
      "arguments": [
        "0xfA5c0E6982cd399598F9300cC1d080957470431e",
        "115792089237316195423570985008687907853269984665640564039457584007913129639935"
      ],
      "transaction": {
        "from": "0x94cf685cc5d26828e2ca4c9c571249fc9b1d16be",
        "to": "0x495c42ea5e1f7d7eddfb458184b44fa78725faf9",
        "gas": "0x8d46",
        "value": "0x0",
        "input": "0x095ea7b3000000000000000000000000fa5c0e6982cd399598f9300cc1d080957470431effffffffffffffffffffffffffffffffffffffffffffffffffffffffffffffff",
        "nonce": "0x38",
        "chainId": "0x66eee"
      },
      "additionalContracts": [],
      "isFixedGasLimit": false
    },
    {
      "hash": "0x0c13cc74483a6335e7daa4afb6929945abc9cfb5f2f5e0b266e0a957b6dacfac",
      "transactionType": "CALL",
      "contractName": null,
      "contractAddress": "0xfa5c0e6982cd399598f9300cc1d080957470431e",
      "function": "buyTicket(uint8)",
      "arguments": [
        "1"
      ],
      "transaction": {
        "from": "0x94cf685cc5d26828e2ca4c9c571249fc9b1d16be",
        "to": "0xfa5c0e6982cd399598f9300cc1d080957470431e",
        "gas": "0x3528f",
        "value": "0x0",
        "input": "0x023697f00000000000000000000000000000000000000000000000000000000000000001",
        "nonce": "0x39",
        "chainId": "0x66eee"
      },
      "additionalContracts": [],
      "isFixedGasLimit": false
    }
  ],
  "receipts": [
    {
      "status": "0x1",
      "cumulativeGasUsed": "0xf0565",
      "logs": [
        {
          "address": "0x495c42ea5e1f7d7eddfb458184b44fa78725faf9",
          "topics": [
            "0xddf252ad1be2c89b69c2b068fc378daa952ba7f163c4a11628f55a4df523b3ef",
            "0x0000000000000000000000000000000000000000000000000000000000000000",
            "0x0000000000000000000000001804c8ab1f12e6bbf3894d4083f33e07309d1f38"
          ],
          "data": "0x000000000000000000000000000000000000000000000000000000003b9aca00",
          "blockHash": "0x6428f1c0a134f11d9410c486aa0bf02ba9eea4010c8ee8391219f4aabce84756",
          "blockNumber": "0xb0985d0",
          "transactionHash": "0x8927b132028affde725db86e8a9d7262089002b5f7116fb94e725f40137d25be",
          "transactionIndex": "0x7",
          "logIndex": "0x10",
          "removed": false
        }
      ],
      "logsBloom": "0x00000000000000000000000000000000000000000000000000000000000000000000000000000000000000000000000000000000000000000000000002000000000000000000000000000008000000000000000000000000000000000000000000000000020000000001000000000800000000000000000000000010000000000000000000000000000004000000000000000000000000000000000000000000000000000000000000000000000000000000000000000000000000000000000000000002000004000000000000000000000000000000080000000000000020000000000000000000000000000000000000000000000000000000020000000000",
      "type": "0x2",
      "transactionHash": "0x8927b132028affde725db86e8a9d7262089002b5f7116fb94e725f40137d25be",
      "transactionIndex": "0x7",
      "blockHash": "0x6428f1c0a134f11d9410c486aa0bf02ba9eea4010c8ee8391219f4aabce84756",
      "blockNumber": "0xb0985d0",
      "gasUsed": "0xd3fc",
      "effectiveGasPrice": "0x5f5e100",
      "from": "0x94cf685cc5d26828e2ca4c9c571249fc9b1d16be",
      "to": "0x495c42ea5e1f7d7eddfb458184b44fa78725faf9",
      "contractAddress": null,
      "gasUsedForL1": "0x6d",
      "l1BlockNumber": "0x897a11",
      "timeboosted": false
    },
    {
      "status": "0x1",
      "cumulativeGasUsed": "0x191b0",
      "logs": [
        {
          "address": "0x495c42ea5e1f7d7eddfb458184b44fa78725faf9",
          "topics": [
            "0x8c5be1e5ebec7d5bd14f71427d1e84f3dd0314c0f7b2291e5b200ac8c7c3b925",
            "0x00000000000000000000000094cf685cc5d26828e2ca4c9c571249fc9b1d16be",
            "0x000000000000000000000000fa5c0e6982cd399598f9300cc1d080957470431e"
          ],
          "data": "0xffffffffffffffffffffffffffffffffffffffffffffffffffffffffffffffff",
          "blockHash": "0x95cc357c29f9cb84bb4ca95b1180676348f371a951ce6d697590c0b8b10747ee",
          "blockNumber": "0xb0985d9",
          "transactionHash": "0x3a6762f803728d370707c4e426beba9511463779e492c89aa6bfd100349a1a8a",
          "transactionIndex": "0x4",
          "logIndex": "0x1",
          "removed": false
        }
      ],
      "logsBloom": "0x00000000000000000000000000000000000000000000000000000000000000000020000000000000000000000000000000000000000000000000000002200000000000000000000004000010000000000000000000000000000000000000000000000080000000000000000000000000000000000000000000000000000000000000000000000000000000000000000000000000000000000000000000000000020000000000000000000000000000000000000000000000000000000000000080000000000000000000000000000000000000000000080000000000000000000010000000000000000000000000000000000000000000004000020000000000",
      "type": "0x2",
      "transactionHash": "0x3a6762f803728d370707c4e426beba9511463779e492c89aa6bfd100349a1a8a",
      "transactionIndex": "0x4",
      "blockHash": "0x95cc357c29f9cb84bb4ca95b1180676348f371a951ce6d697590c0b8b10747ee",
      "blockNumber": "0xb0985d9",
      "gasUsed": "0x6b39",
      "effectiveGasPrice": "0x5f5e100",
      "from": "0x94cf685cc5d26828e2ca4c9c571249fc9b1d16be",
      "to": "0x495c42ea5e1f7d7eddfb458184b44fa78725faf9",
      "contractAddress": null,
      "gasUsedForL1": "0x6d",
      "l1BlockNumber": "0x897a11",
      "timeboosted": false
    },
    {
      "status": "0x1",
      "cumulativeGasUsed": "0x2777d",
      "logs": [
        {
          "address": "0xfa5c0e6982cd399598f9300cc1d080957470431e",
          "topics": [
            "0xfd0a74cd9439908a3aecc74e2d38c760ae56b4df3da24c9723da70b461d3a35d",
            "0x00000000000000000000000000000000000000000000000000000000000770d7",
            "0x00000000000000000000000094cf685cc5d26828e2ca4c9c571249fc9b1d16be"
          ],
          "data": "0x00000000000000000000000000000000000000000000000000000000000000010000000000000000000000000000000000000000000000000000000000000064",
          "blockHash": "0x51883be83358d163ba9e3a2a227ce7f0eb8b0ebe1750fbb6692c002e2db0dc8a",
          "blockNumber": "0xb0985e0",
          "transactionHash": "0x0c13cc74483a6335e7daa4afb6929945abc9cfb5f2f5e0b266e0a957b6dacfac",
          "transactionIndex": "0x1",
          "logIndex": "0x0",
          "removed": false
        },
        {
          "address": "0x495c42ea5e1f7d7eddfb458184b44fa78725faf9",
          "topics": [
            "0xddf252ad1be2c89b69c2b068fc378daa952ba7f163c4a11628f55a4df523b3ef",
            "0x00000000000000000000000094cf685cc5d26828e2ca4c9c571249fc9b1d16be",
            "0x000000000000000000000000fa5c0e6982cd399598f9300cc1d080957470431e"
          ],
          "data": "0x00000000000000000000000000000000000000000000000000000000002dc6c0",
          "blockHash": "0x51883be83358d163ba9e3a2a227ce7f0eb8b0ebe1750fbb6692c002e2db0dc8a",
          "blockNumber": "0xb0985e0",
          "transactionHash": "0x0c13cc74483a6335e7daa4afb6929945abc9cfb5f2f5e0b266e0a957b6dacfac",
          "transactionIndex": "0x1",
          "logIndex": "0x1",
          "removed": false
        }
      ],
      "logsBloom": "0x00000000000000000000000400000004000000000000000000000000000000000020000000000000000004102000000000000000000000000000000002000000000000000000000004000018000000000000000000000000080000000000000000200080000000000000000000000000000000000000000000000010000000000000000000000000000000000000000000000000000000000000000000000000000000000000000000000000000000000000000000000000000000000000000080000002000000040000000000000000000000000000080000000000000000000000000000000008000000000000000000000000000000004000020000000000",
      "type": "0x2",
      "transactionHash": "0x0c13cc74483a6335e7daa4afb6929945abc9cfb5f2f5e0b266e0a957b6dacfac",
      "transactionIndex": "0x1",
      "blockHash": "0x51883be83358d163ba9e3a2a227ce7f0eb8b0ebe1750fbb6692c002e2db0dc8a",
      "blockNumber": "0xb0985e0",
      "gasUsed": "0x2777d",
      "effectiveGasPrice": "0x5f5e100",
      "from": "0x94cf685cc5d26828e2ca4c9c571249fc9b1d16be",
      "to": "0xfa5c0e6982cd399598f9300cc1d080957470431e",
      "contractAddress": null,
      "gasUsedForL1": "0x59",
      "l1BlockNumber": "0x897a11",
      "timeboosted": false
    }
  ],
  "libraries": [],
  "pending": [],
  "returns": {},
  "timestamp": 1755503323,
  "chain": 421614,
  "commit": "9c25031"
}