{
  "transactions": [
    {
      "hash": "0xdf6f9424e10ad04794d45e99f6dabff74b40a1eec0b821eb5e1f35bac103390d",
      "transactionType": "CALL",
      "contractName": null,
      "contractAddress": "0x495c42ea5e1f7d7eddfb458184b44fa78725faf9",
      "function": "mint(address,uint256)",
      "arguments": [
        "0x1804c8AB1F12E6bbf3894d4083f33e07309d1f38",
        "1000000000"
      ],
      "transaction": {
        "from": "0x94cf685cc5d26828e2ca4c9c571249fc9b1d16be",
        "to": "0x495c42ea5e1f7d7eddfb458184b44fa78725faf9",
        "gas": "0xbf11",
        "value": "0x0",
        "input": "0x40c10f190000000000000000000000001804c8ab1f12e6bbf3894d4083f33e07309d1f38000000000000000000000000000000000000000000000000000000003b9aca00",
        "nonce": "0xbc",
        "chainId": "0x66eee"
      },
      "additionalContracts": [],
      "isFixedGasLimit": false
    },
    {
      "hash": "0xd20ad8e00c8c7f1841eff253b5d230f8df32db787e4d3eda210149108cb37ef6",
      "transactionType": "CALL",
      "contractName": null,
      "contractAddress": "0x495c42ea5e1f7d7eddfb458184b44fa78725faf9",
      "function": "approve(address,uint256)",
      "arguments": [
        "0x7Ced52a4c54F2a6269808BED1d4cC0096af52063",
        "115792089237316195423570985008687907853269984665640564039457584007913129639935"
      ],
      "transaction": {
        "from": "0x94cf685cc5d26828e2ca4c9c571249fc9b1d16be",
        "to": "0x495c42ea5e1f7d7eddfb458184b44fa78725faf9",
        "gas": "0xf2df",
        "value": "0x0",
        "input": "0x095ea7b30000000000000000000000007ced52a4c54f2a6269808bed1d4cc0096af52063ffffffffffffffffffffffffffffffffffffffffffffffffffffffffffffffff",
        "nonce": "0xbd",
        "chainId": "0x66eee"
      },
      "additionalContracts": [],
      "isFixedGasLimit": false
    },
    {
      "hash": "0x2014a7e7f0c5c170c2e25dcaa96dffaf8aa6d220323ff2952f21632910956c79",
      "transactionType": "CALL",
      "contractName": null,
      "contractAddress": "0x7ced52a4c54f2a6269808bed1d4cc0096af52063",
      "function": "buyTicket(uint8)",
      "arguments": [
        "1"
      ],
      "transaction": {
        "from": "0x94cf685cc5d26828e2ca4c9c571249fc9b1d16be",
        "to": "0x7ced52a4c54f2a6269808bed1d4cc0096af52063",
        "gas": "0x46e75",
        "value": "0x0",
        "input": "0x023697f00000000000000000000000000000000000000000000000000000000000000001",
        "nonce": "0xbe",
        "chainId": "0x66eee"
      },
      "additionalContracts": [],
      "isFixedGasLimit": false
    }
  ],
  "receipts": [
    {
      "status": "0x1",
      "cumulativeGasUsed": "0xef266",
      "logs": [
        {
          "address": "0x495c42ea5e1f7d7eddfb458184b44fa78725faf9",
          "topics": [
            "0xddf252ad1be2c89b69c2b068fc378daa952ba7f163c4a11628f55a4df523b3ef",
            "0x0000000000000000000000000000000000000000000000000000000000000000",
            "0x0000000000000000000000001804c8ab1f12e6bbf3894d4083f33e07309d1f38"
          ],
          "data": "0x000000000000000000000000000000000000000000000000000000003b9aca00",
          "blockHash": "0x5f9f996273d7dd227906eb66968565247dd561ddb16abdd03f60577595f98d58",
          "blockNumber": "0xb273460",
          "transactionHash": "0xdf6f9424e10ad04794d45e99f6dabff74b40a1eec0b821eb5e1f35bac103390d",
          "transactionIndex": "0x5",
          "logIndex": "0xa",
          "removed": false
        }
      ],
      "logsBloom": "0x00000000000000000000000000000000000000000000000000000000000000000000000000000000000000000000000000000000000000000000000002000000000000000000000000000008000000000000000000000000000000000000000000000000020000000001000000000800000000000000000000000010000000000000000000000000000004000000000000000000000000000000000000000000000000000000000000000000000000000000000000000000000000000000000000000002000004000000000000000000000000000000080000000000000020000000000000000000000000000000000000000000000000000000020000000000",
      "type": "0x2",
      "transactionHash": "0xdf6f9424e10ad04794d45e99f6dabff74b40a1eec0b821eb5e1f35bac103390d",
      "transactionIndex": "0x5",
      "blockHash": "0x5f9f996273d7dd227906eb66968565247dd561ddb16abdd03f60577595f98d58",
      "blockNumber": "0xb273460",
      "gasUsed": "0x9165",
      "effectiveGasPrice": "0x5f5e100",
      "from": "0x94cf685cc5d26828e2ca4c9c571249fc9b1d16be",
      "to": "0x495c42ea5e1f7d7eddfb458184b44fa78725faf9",
      "contractAddress": null,
      "gasUsedForL1": "0xa2",
      "l1BlockNumber": "0x8a1f2d",
      "timeboosted": false
    },
    {
      "status": "0x1",
      "cumulativeGasUsed": "0x3891a",
      "logs": [
        {
          "address": "0x495c42ea5e1f7d7eddfb458184b44fa78725faf9",
          "topics": [
            "0x8c5be1e5ebec7d5bd14f71427d1e84f3dd0314c0f7b2291e5b200ac8c7c3b925",
            "0x00000000000000000000000094cf685cc5d26828e2ca4c9c571249fc9b1d16be",
            "0x0000000000000000000000007ced52a4c54f2a6269808bed1d4cc0096af52063"
          ],
          "data": "0xffffffffffffffffffffffffffffffffffffffffffffffffffffffffffffffff",
          "blockHash": "0x19e313e4ee787a3328d05129588a6c5901645ff225ede3a0173090a399d03cc6",
          "blockNumber": "0xb273467",
          "transactionHash": "0xd20ad8e00c8c7f1841eff253b5d230f8df32db787e4d3eda210149108cb37ef6",
          "transactionIndex": "0x3",
          "logIndex": "0x5",
          "removed": false
        }
      ],
      "logsBloom": "0x00000000000000000000000000000000002000000000000000000000000000000000000000000000000000000000000000000000000000000000000002200000000000000000000004000000000000000000000000000000000000000000000000000080000000000000040000000000000000000000000000000000000000000000000000000000000000000000000000000000000000000000000000000000020000000100000000000000000000000000000000000000000000000000000000000000000000000000000000000000000000000000080000000000000000000010000000000000000000000000000000000000000000004000020000000000",
      "type": "0x2",
      "transactionHash": "0xd20ad8e00c8c7f1841eff253b5d230f8df32db787e4d3eda210149108cb37ef6",
      "transactionIndex": "0x3",
      "blockHash": "0x19e313e4ee787a3328d05129588a6c5901645ff225ede3a0173090a399d03cc6",
      "blockNumber": "0xb273467",
      "gasUsed": "0xb92a",
      "effectiveGasPrice": "0x5f5e100",
      "from": "0x94cf685cc5d26828e2ca4c9c571249fc9b1d16be",
      "to": "0x495c42ea5e1f7d7eddfb458184b44fa78725faf9",
      "contractAddress": null,
      "gasUsedForL1": "0xa2",
      "l1BlockNumber": "0x8a1f2d",
      "timeboosted": false
    },
    {
      "status": "0x1",
      "cumulativeGasUsed": "0x30839",
      "logs": [
        {
          "address": "0x7ced52a4c54f2a6269808bed1d4cc0096af52063",
          "topics": [
            "0xfd0a74cd9439908a3aecc74e2d38c760ae56b4df3da24c9723da70b461d3a35d",
            "0x0000000000000000000000000000000000000000000000000000000000077166",
            "0x00000000000000000000000094cf685cc5d26828e2ca4c9c571249fc9b1d16be"
          ],
          "data": "0x00000000000000000000000000000000000000000000000000000000000000010000000000000000000000000000000000000000000000000000000000000064",
          "blockHash": "0xa37f90058ea84a5c36e38078780f58567c89f9f3c9a2a71a4b5cf2bc4a09ff6c",
          "blockNumber": "0xb273471",
          "transactionHash": "0x2014a7e7f0c5c170c2e25dcaa96dffaf8aa6d220323ff2952f21632910956c79",
          "transactionIndex": "0x1",
          "logIndex": "0x0",
          "removed": false
        },
        {
          "address": "0x495c42ea5e1f7d7eddfb458184b44fa78725faf9",
          "topics": [
            "0xddf252ad1be2c89b69c2b068fc378daa952ba7f163c4a11628f55a4df523b3ef",
            "0x00000000000000000000000094cf685cc5d26828e2ca4c9c571249fc9b1d16be",
            "0x0000000000000000000000007ced52a4c54f2a6269808bed1d4cc0096af52063"
          ],
          "data": "0x0000000000000000000000000000000000000000000000000000000001c9c380",
          "blockHash": "0xa37f90058ea84a5c36e38078780f58567c89f9f3c9a2a71a4b5cf2bc4a09ff6c",
          "blockNumber": "0xb273471",
          "transactionHash": "0x2014a7e7f0c5c170c2e25dcaa96dffaf8aa6d220323ff2952f21632910956c79",
          "transactionIndex": "0x1",
          "logIndex": "0x1",
          "removed": false
        }
      ],
      "logsBloom": "0x00000000000000000000000000000000002000000000000000000000000000010000000000000000000004002010000000000000000000000000000002000000000000000000000004000008000000000000000000000000000000000000000000000080000000000000040000000000000000800000000000000010000000000000000000000000000000000000000000000000000000000000000000000000000000000100000000000000000000000000000000000000000000000000000000000002000000040000000000000020000000000000080000000400000000000000000000000010000000000000000000000000000000004000020000000000",
      "type": "0x2",
      "transactionHash": "0x2014a7e7f0c5c170c2e25dcaa96dffaf8aa6d220323ff2952f21632910956c79",
      "transactionIndex": "0x1",
      "blockHash": "0xa37f90058ea84a5c36e38078780f58567c89f9f3c9a2a71a4b5cf2bc4a09ff6c",
      "blockNumber": "0xb273471",
      "gasUsed": "0x30839",
      "effectiveGasPrice": "0x5f5e100",
      "from": "0x94cf685cc5d26828e2ca4c9c571249fc9b1d16be",
      "to": "0x7ced52a4c54f2a6269808bed1d4cc0096af52063",
      "contractAddress": null,
      "gasUsedForL1": "0x86",
      "l1BlockNumber": "0x8a1f2d",
      "timeboosted": false
    }
  ],
  "libraries": [],
  "pending": [],
  "returns": {},
  "timestamp": 1756018112,
  "chain": 421614,
  "commit": "201d026"
}