{
  "transactions": [
    {
      "hash": "0x74b182c95c160da9e052f40513b40e735c5cfe4d789bfc825f0157bcffcba745",
      "transactionType": "CALL",
      "contractName": null,
      "contractAddress": "0x495c42ea5e1f7d7eddfb458184b44fa78725faf9",
      "function": "mint(address,uint256)",
      "arguments": [
        "0x1804c8AB1F12E6bbf3894d4083f33e07309d1f38",
        "1000000000"
      ],
      "transaction": {
        "from": "0x94cf685cc5d26828e2ca4c9c571249fc9b1d16be",
        "to": "0x495c42ea5e1f7d7eddfb458184b44fa78725faf9",
        "gas": "0xbe09",
        "value": "0x0",
        "input": "0x40c10f190000000000000000000000001804c8ab1f12e6bbf3894d4083f33e07309d1f38000000000000000000000000000000000000000000000000000000003b9aca00",
        "nonce": "0x4a",
        "chainId": "0x66eee"
      },
      "additionalContracts": [],
      "isFixedGasLimit": false
    },
    {
      "hash": "0x60a22e406eececf3119ce05e569db083eedf622adf9f217a517e268e47a70592",
      "transactionType": "CALL",
      "contractName": null,
      "contractAddress": "0x495c42ea5e1f7d7eddfb458184b44fa78725faf9",
      "function": "approve(address,uint256)",
      "arguments": [
        "0xB97241446b4d57679e28B2133D7E994267c76550",
        "115792089237316195423570985008687907853269984665640564039457584007913129639935"
      ],
      "transaction": {
        "from": "0x94cf685cc5d26828e2ca4c9c571249fc9b1d16be",
        "to": "0x495c42ea5e1f7d7eddfb458184b44fa78725faf9",
        "gas": "0xf1d7",
        "value": "0x0",
        "input": "0x095ea7b3000000000000000000000000b97241446b4d57679e28b2133d7e994267c76550ffffffffffffffffffffffffffffffffffffffffffffffffffffffffffffffff",
        "nonce": "0x4b",
        "chainId": "0x66eee"
      },
      "additionalContracts": [],
      "isFixedGasLimit": false
    },
    {
      "hash": "0xf461d47742e0d177de195e2836ddbb3eee9374d3fb16e10654dcc6f6b6f5a9cb",
      "transactionType": "CALL",
      "contractName": null,
      "contractAddress": "0xb97241446b4d57679e28b2133d7e994267c76550",
      "function": "buyTicket(uint8)",
      "arguments": [
        "1"
      ],
      "transaction": {
        "from": "0x94cf685cc5d26828e2ca4c9c571249fc9b1d16be",
        "to": "0xb97241446b4d57679e28b2133d7e994267c76550",
        "gas": "0x46e74",
        "value": "0x0",
        "input": "0x023697f00000000000000000000000000000000000000000000000000000000000000001",
        "nonce": "0x4c",
        "chainId": "0x66eee"
      },
      "additionalContracts": [],
      "isFixedGasLimit": false
    }
  ],
  "receipts": [
    {
      "status": "0x1",
      "cumulativeGasUsed": "0x17ef0",
      "logs": [
        {
          "address": "0x495c42ea5e1f7d7eddfb458184b44fa78725faf9",
          "topics": [
            "0xddf252ad1be2c89b69c2b068fc378daa952ba7f163c4a11628f55a4df523b3ef",
            "0x0000000000000000000000000000000000000000000000000000000000000000",
            "0x0000000000000000000000001804c8ab1f12e6bbf3894d4083f33e07309d1f38"
          ],
          "data": "0x000000000000000000000000000000000000000000000000000000003b9aca00",
          "blockHash": "0x474b0e94b987f8fd2faad26bfa18e971ba9bf531bc9a40d57296680dcde234a6",
          "blockNumber": "0xb176654",
          "transactionHash": "0x74b182c95c160da9e052f40513b40e735c5cfe4d789bfc825f0157bcffcba745",
          "transactionIndex": "0x2",
          "logIndex": "0x1",
          "removed": false
        }
      ],
      "logsBloom": "0x00000000000000000000000000000000000000000000000000000000000000000000000000000000000000000000000000000000000000000000000002000000000000000000000000000008000000000000000000000000000000000000000000000000020000000001000000000800000000000000000000000010000000000000000000000000000004000000000000000000000000000000000000000000000000000000000000000000000000000000000000000000000000000000000000000002000004000000000000000000000000000000080000000000000020000000000000000000000000000000000000000000000000000000020000000000",
      "type": "0x2",
      "transactionHash": "0x74b182c95c160da9e052f40513b40e735c5cfe4d789bfc825f0157bcffcba745",
      "transactionIndex": "0x2",
      "blockHash": "0x474b0e94b987f8fd2faad26bfa18e971ba9bf531bc9a40d57296680dcde234a6",
      "blockNumber": "0xb176654",
      "gasUsed": "0x90c3",
      "effectiveGasPrice": "0x5f5e100",
      "from": "0x94cf685cc5d26828e2ca4c9c571249fc9b1d16be",
      "to": "0x495c42ea5e1f7d7eddfb458184b44fa78725faf9",
      "contractAddress": null,
      "gasUsedForL1": "0x0",
      "l1BlockNumber": "0x89c711",
      "timeboosted": false
    },
    {
      "status": "0x1",
      "cumulativeGasUsed": "0x814f2",
      "logs": [
        {
          "address": "0x495c42ea5e1f7d7eddfb458184b44fa78725faf9",
          "topics": [
            "0x8c5be1e5ebec7d5bd14f71427d1e84f3dd0314c0f7b2291e5b200ac8c7c3b925",
            "0x00000000000000000000000094cf685cc5d26828e2ca4c9c571249fc9b1d16be",
            "0x000000000000000000000000b97241446b4d57679e28b2133d7e994267c76550"
          ],
          "data": "0xffffffffffffffffffffffffffffffffffffffffffffffffffffffffffffffff",
          "blockHash": "0x8fe3df6398044416eee3af569536723c1a92baa924a0f31ff7bcdbe00acdb743",
          "blockNumber": "0xb17665e",
          "transactionHash": "0x60a22e406eececf3119ce05e569db083eedf622adf9f217a517e268e47a70592",
          "transactionIndex": "0x4",
          "logIndex": "0x8",
          "removed": false
        }
      ],
      "logsBloom": "0x00000000000000000000000000000000000000000000000000000000000000000000000000000000000000000002000000000000000000000000000002200000000000000000000004000000000000000000000000000000000000000000000000000080000000000000000000000000000000002000000000000000000000000000000000000000000000000000000000000000000000000000000000000000020000000000000000000000000000000000000000000000000000000000000000000000000000000000000000000000000000000000080000000000000002000010000000000000000000000000000000000000000000004000020000000000",
      "type": "0x2",
      "transactionHash": "0x60a22e406eececf3119ce05e569db083eedf622adf9f217a517e268e47a70592",
      "transactionIndex": "0x4",
      "blockHash": "0x8fe3df6398044416eee3af569536723c1a92baa924a0f31ff7bcdbe00acdb743",
      "blockNumber": "0xb17665e",
      "gasUsed": "0xb888",
      "effectiveGasPrice": "0x5f5e100",
      "from": "0x94cf685cc5d26828e2ca4c9c571249fc9b1d16be",
      "to": "0x495c42ea5e1f7d7eddfb458184b44fa78725faf9",
      "contractAddress": null,
      "gasUsedForL1": "0x0",
      "l1BlockNumber": "0x89c711",
      "timeboosted": false
    },
    {
      "status": "0x1",
      "cumulativeGasUsed": "0x307b2",
      "logs": [
        {
          "address": "0xb97241446b4d57679e28b2133d7e994267c76550",
          "topics": [
            "0xfd0a74cd9439908a3aecc74e2d38c760ae56b4df3da24c9723da70b461d3a35d",
            "0x0000000000000000000000000000000000000000000000000000000000077119",
            "0x00000000000000000000000094cf685cc5d26828e2ca4c9c571249fc9b1d16be"
          ],
          "data": "0x00000000000000000000000000000000000000000000000000000000000000010000000000000000000000000000000000000000000000000000000000000064",
          "blockHash": "0x5a74de7d81e66fc48e3cf164ef2ff27bba5acc2d7d4fa68d7d81cb7d8f7a31f8",
          "blockNumber": "0xb176666",
          "transactionHash": "0xf461d47742e0d177de195e2836ddbb3eee9374d3fb16e10654dcc6f6b6f5a9cb",
          "transactionIndex": "0x1",
          "logIndex": "0x0",
          "removed": false
        },
        {
          "address": "0x495c42ea5e1f7d7eddfb458184b44fa78725faf9",
          "topics": [
            "0xddf252ad1be2c89b69c2b068fc378daa952ba7f163c4a11628f55a4df523b3ef",
            "0x00000000000000000000000094cf685cc5d26828e2ca4c9c571249fc9b1d16be",
            "0x000000000000000000000000b97241446b4d57679e28b2133d7e994267c76550"
          ],
          "data": "0x00000000000000000000000000000000000000000000000000000000002dc6c0",
          "blockHash": "0x5a74de7d81e66fc48e3cf164ef2ff27bba5acc2d7d4fa68d7d81cb7d8f7a31f8",
          "blockNumber": "0xb176666",
          "transactionHash": "0xf461d47742e0d177de195e2836ddbb3eee9374d3fb16e10654dcc6f6b6f5a9cb",
          "transactionIndex": "0x1",
          "logIndex": "0x1",
          "removed": false
        }
      ],
      "logsBloom": "0x00000000000000000000008000000000000000000000000000000000000000000400000000000000000004002002000000000000000000020000000002000000000000000000000004000008000000000000000000000000000000000000000000000080000000000000000000000000000000002000000000000010000000000000000000000000000080000000000000000000000000000000000000000000000000000000000000000000000000000000000000000000000000000000000000000002000000040080000000000000000000000000080000000000000002000000000000000000000001000000000000000000000000004000020000000000",
      "type": "0x2",
      "transactionHash": "0xf461d47742e0d177de195e2836ddbb3eee9374d3fb16e10654dcc6f6b6f5a9cb",
      "transactionIndex": "0x1",
      "blockHash": "0x5a74de7d81e66fc48e3cf164ef2ff27bba5acc2d7d4fa68d7d81cb7d8f7a31f8",
      "blockNumber": "0xb176666",
      "gasUsed": "0x307b2",
      "effectiveGasPrice": "0x5f5e100",
      "from": "0x94cf685cc5d26828e2ca4c9c571249fc9b1d16be",
      "to": "0xb97241446b4d57679e28b2133d7e994267c76550",
      "contractAddress": null,
      "gasUsedForL1": "0x0",
      "l1BlockNumber": "0x89c711",
      "timeboosted": false
    }
  ],
  "libraries": [],
  "pending": [],
  "returns": {},
  "timestamp": 1755741533,
  "chain": 421614,
  "commit": "f81e8f9"
}